{
	"SimpleSwap.sol": {
		"Simpleswap": {
			"abi": [
				{
					"inputs": [],
					"stateMutability": "nonpayable",
					"type": "constructor"
				},
				{
					"inputs": [
						{
							"internalType": "address",
							"name": "spender",
							"type": "address"
						},
						{
							"internalType": "uint256",
							"name": "allowance",
							"type": "uint256"
						},
						{
							"internalType": "uint256",
							"name": "needed",
							"type": "uint256"
						}
					],
					"name": "ERC20InsufficientAllowance",
					"type": "error"
				},
				{
					"inputs": [
						{
							"internalType": "address",
							"name": "sender",
							"type": "address"
						},
						{
							"internalType": "uint256",
							"name": "balance",
							"type": "uint256"
						},
						{
							"internalType": "uint256",
							"name": "needed",
							"type": "uint256"
						}
					],
					"name": "ERC20InsufficientBalance",
					"type": "error"
				},
				{
					"inputs": [
						{
							"internalType": "address",
							"name": "approver",
							"type": "address"
						}
					],
					"name": "ERC20InvalidApprover",
					"type": "error"
				},
				{
					"inputs": [
						{
							"internalType": "address",
							"name": "receiver",
							"type": "address"
						}
					],
					"name": "ERC20InvalidReceiver",
					"type": "error"
				},
				{
					"inputs": [
						{
							"internalType": "address",
							"name": "sender",
							"type": "address"
						}
					],
					"name": "ERC20InvalidSender",
					"type": "error"
				},
				{
					"inputs": [
						{
							"internalType": "address",
							"name": "spender",
							"type": "address"
						}
					],
					"name": "ERC20InvalidSpender",
					"type": "error"
				},
				{
					"anonymous": false,
					"inputs": [
						{
							"indexed": true,
							"internalType": "address",
							"name": "owner",
							"type": "address"
						},
						{
							"indexed": true,
							"internalType": "address",
							"name": "spender",
							"type": "address"
						},
						{
							"indexed": false,
							"internalType": "uint256",
							"name": "value",
							"type": "uint256"
						}
					],
					"name": "Approval",
					"type": "event"
				},
				{
					"anonymous": false,
					"inputs": [
						{
							"indexed": true,
							"internalType": "address",
							"name": "from",
							"type": "address"
						},
						{
							"indexed": true,
							"internalType": "address",
							"name": "to",
							"type": "address"
						},
						{
							"indexed": false,
							"internalType": "uint256",
							"name": "value",
							"type": "uint256"
						}
					],
					"name": "Transfer",
					"type": "event"
				},
				{
					"inputs": [
						{
							"internalType": "address",
							"name": "tokenA",
							"type": "address"
						},
						{
							"internalType": "address",
							"name": "tokenB",
							"type": "address"
						},
						{
							"internalType": "uint256",
							"name": "amountADesired",
							"type": "uint256"
						},
						{
							"internalType": "uint256",
							"name": "amountBDesired",
							"type": "uint256"
						},
						{
							"internalType": "uint256",
							"name": "amountAMin",
							"type": "uint256"
						},
						{
							"internalType": "uint256",
							"name": "amountBMin",
							"type": "uint256"
						},
						{
							"internalType": "address",
							"name": "to",
							"type": "address"
						},
						{
							"internalType": "uint256",
							"name": "deadline",
							"type": "uint256"
						}
					],
					"name": "addLiquidity",
					"outputs": [
						{
							"internalType": "uint256",
							"name": "amountA",
							"type": "uint256"
						},
						{
							"internalType": "uint256",
							"name": "amountB",
							"type": "uint256"
						},
						{
							"internalType": "uint256",
							"name": "liquidity",
							"type": "uint256"
						}
					],
					"stateMutability": "nonpayable",
					"type": "function"
				},
				{
					"inputs": [
						{
							"internalType": "address",
							"name": "owner",
							"type": "address"
						},
						{
							"internalType": "address",
							"name": "spender",
							"type": "address"
						}
					],
					"name": "allowance",
					"outputs": [
						{
							"internalType": "uint256",
							"name": "",
							"type": "uint256"
						}
					],
					"stateMutability": "view",
					"type": "function"
				},
				{
					"inputs": [
						{
							"internalType": "address",
							"name": "spender",
							"type": "address"
						},
						{
							"internalType": "uint256",
							"name": "value",
							"type": "uint256"
						}
					],
					"name": "approve",
					"outputs": [
						{
							"internalType": "bool",
							"name": "",
							"type": "bool"
						}
					],
					"stateMutability": "nonpayable",
					"type": "function"
				},
				{
					"inputs": [
						{
							"internalType": "address",
							"name": "account",
							"type": "address"
						}
					],
					"name": "balanceOf",
					"outputs": [
						{
							"internalType": "uint256",
							"name": "",
							"type": "uint256"
						}
					],
					"stateMutability": "view",
					"type": "function"
				},
				{
					"inputs": [],
					"name": "decimals",
					"outputs": [
						{
							"internalType": "uint8",
							"name": "",
							"type": "uint8"
						}
					],
					"stateMutability": "view",
					"type": "function"
				},
				{
					"inputs": [
						{
							"internalType": "uint256",
							"name": "amountIn",
							"type": "uint256"
						},
						{
							"internalType": "uint256",
							"name": "reserveIn",
							"type": "uint256"
						},
						{
							"internalType": "uint256",
							"name": "reserveOut",
							"type": "uint256"
						}
					],
					"name": "getAmountOut",
					"outputs": [
						{
							"internalType": "uint256",
							"name": "amountOut",
							"type": "uint256"
						}
					],
					"stateMutability": "pure",
					"type": "function"
				},
				{
					"inputs": [
						{
							"internalType": "address",
							"name": "tokenA",
							"type": "address"
						},
						{
							"internalType": "address",
							"name": "tokenB",
							"type": "address"
						}
					],
					"name": "getPrice",
					"outputs": [
						{
							"internalType": "uint256",
							"name": "price",
							"type": "uint256"
						}
					],
					"stateMutability": "view",
					"type": "function"
				},
				{
					"inputs": [],
					"name": "name",
					"outputs": [
						{
							"internalType": "string",
							"name": "",
							"type": "string"
						}
					],
					"stateMutability": "view",
					"type": "function"
				},
				{
					"inputs": [
						{
							"internalType": "address",
							"name": "tokenA",
							"type": "address"
						},
						{
							"internalType": "address",
							"name": "tokenB",
							"type": "address"
						},
						{
							"internalType": "uint256",
							"name": "liquidity",
							"type": "uint256"
						},
						{
							"internalType": "uint256",
							"name": "amountAMin",
							"type": "uint256"
						},
						{
							"internalType": "uint256",
							"name": "amountBMin",
							"type": "uint256"
						},
						{
							"internalType": "address",
							"name": "to",
							"type": "address"
						},
						{
							"internalType": "uint256",
							"name": "deadline",
							"type": "uint256"
						}
					],
					"name": "removeLiquidity",
					"outputs": [
						{
							"internalType": "uint256",
							"name": "amountA",
							"type": "uint256"
						},
						{
							"internalType": "uint256",
							"name": "amountB",
							"type": "uint256"
						}
					],
					"stateMutability": "nonpayable",
					"type": "function"
				},
				{
					"inputs": [
						{
							"internalType": "uint256",
							"name": "amountIn",
							"type": "uint256"
						},
						{
							"internalType": "uint256",
							"name": "amountOutMin",
							"type": "uint256"
						},
						{
							"internalType": "address[]",
							"name": "path",
							"type": "address[]"
						},
						{
							"internalType": "address",
							"name": "to",
							"type": "address"
						},
						{
							"internalType": "uint256",
							"name": "deadline",
							"type": "uint256"
						}
					],
					"name": "swapExactTokensForTokens",
					"outputs": [
						{
							"internalType": "uint256[]",
							"name": "amounts",
							"type": "uint256[]"
						}
					],
					"stateMutability": "nonpayable",
					"type": "function"
				},
				{
					"inputs": [],
					"name": "symbol",
					"outputs": [
						{
							"internalType": "string",
							"name": "",
							"type": "string"
						}
					],
					"stateMutability": "view",
					"type": "function"
				},
				{
					"inputs": [],
					"name": "totalSupply",
					"outputs": [
						{
							"internalType": "uint256",
							"name": "",
							"type": "uint256"
						}
					],
					"stateMutability": "view",
					"type": "function"
				},
				{
					"inputs": [
						{
							"internalType": "address",
							"name": "to",
							"type": "address"
						},
						{
							"internalType": "uint256",
							"name": "value",
							"type": "uint256"
						}
					],
					"name": "transfer",
					"outputs": [
						{
							"internalType": "bool",
							"name": "",
							"type": "bool"
						}
					],
					"stateMutability": "nonpayable",
					"type": "function"
				},
				{
					"inputs": [
						{
							"internalType": "address",
							"name": "from",
							"type": "address"
						},
						{
							"internalType": "address",
							"name": "to",
							"type": "address"
						},
						{
							"internalType": "uint256",
							"name": "value",
							"type": "uint256"
						}
					],
					"name": "transferFrom",
					"outputs": [
						{
							"internalType": "bool",
							"name": "",
							"type": "bool"
						}
					],
					"stateMutability": "nonpayable",
					"type": "function"
				}
			],
			"devdoc": {
				"errors": {
					"ERC20InsufficientAllowance(address,uint256,uint256)": [
						{
							"details": "Indicates a failure with the `spender`’s `allowance`. Used in transfers.",
							"params": {
								"allowance": "Amount of tokens a `spender` is allowed to operate with.",
								"needed": "Minimum amount required to perform a transfer.",
								"spender": "Address that may be allowed to operate on tokens without being their owner."
							}
						}
					],
					"ERC20InsufficientBalance(address,uint256,uint256)": [
						{
							"details": "Indicates an error related to the current `balance` of a `sender`. Used in transfers.",
							"params": {
								"balance": "Current balance for the interacting account.",
								"needed": "Minimum amount required to perform a transfer.",
								"sender": "Address whose tokens are being transferred."
							}
						}
					],
					"ERC20InvalidApprover(address)": [
						{
							"details": "Indicates a failure with the `approver` of a token to be approved. Used in approvals.",
							"params": {
								"approver": "Address initiating an approval operation."
							}
						}
					],
					"ERC20InvalidReceiver(address)": [
						{
							"details": "Indicates a failure with the token `receiver`. Used in transfers.",
							"params": {
								"receiver": "Address to which tokens are being transferred."
							}
						}
					],
					"ERC20InvalidSender(address)": [
						{
							"details": "Indicates a failure with the token `sender`. Used in transfers.",
							"params": {
								"sender": "Address whose tokens are being transferred."
							}
						}
					],
					"ERC20InvalidSpender(address)": [
						{
							"details": "Indicates a failure with the `spender` to be approved. Used in approvals.",
							"params": {
								"spender": "Address that may be allowed to operate on tokens without being their owner."
							}
						}
					]
				},
				"events": {
					"Approval(address,address,uint256)": {
						"details": "Emitted when the allowance of a `spender` for an `owner` is set by a call to {approve}. `value` is the new allowance."
					},
					"Transfer(address,address,uint256)": {
						"details": "Emitted when `value` tokens are moved from one account (`from`) to another (`to`). Note that `value` may be zero."
					}
				},
				"kind": "dev",
				"methods": {
					"addLiquidity(address,address,uint256,uint256,uint256,uint256,address,uint256)": {
						"details": "Mints LP tokens proportionally based on token reserves",
						"params": {
							"amountADesired": "Desired amount of token A to add",
							"amountAMin": "Minimum acceptable amount of token A",
							"amountBDesired": "Desired amount of token B to add",
							"amountBMin": "Minimum acceptable amount of token B",
							"deadline": "Timestamp after which the transaction is invalid",
							"to": "Address to receive LP tokens",
							"tokenA": "Address of token A",
							"tokenB": "Address of token B"
						},
						"returns": {
							"amountA": "Final amount of token A added",
							"amountB": "Final amount of token B added",
							"liquidity": "Amount of LP tokens minted"
						}
					},
					"allowance(address,address)": {
						"details": "See {IERC20-allowance}."
					},
					"approve(address,uint256)": {
						"details": "See {IERC20-approve}. NOTE: If `value` is the maximum `uint256`, the allowance is not updated on `transferFrom`. This is semantically equivalent to an infinite approval. Requirements: - `spender` cannot be the zero address."
					},
					"balanceOf(address)": {
						"details": "See {IERC20-balanceOf}."
					},
					"decimals()": {
						"details": "Returns the number of decimals used to get its user representation. For example, if `decimals` equals `2`, a balance of `505` tokens should be displayed to a user as `5.05` (`505 / 10 ** 2`). Tokens usually opt for a value of 18, imitating the relationship between Ether and Wei. This is the default value returned by this function, unless it's overridden. NOTE: This information is only used for _display_ purposes: it in no way affects any of the arithmetic of the contract, including {IERC20-balanceOf} and {IERC20-transfer}."
					},
					"getAmountOut(uint256,uint256,uint256)": {
						"details": "Calculates how many tokens will be received in a swap.",
						"params": {
							"amountIn": "Input token amount.",
							"reserveIn": "Reserve of input token.",
							"reserveOut": "Reserve of output token."
						},
						"returns": {
							"amountOut": "Expected output amount.*"
						}
					},
					"getPrice(address,address)": {
						"params": {
							"tokenA": "Address of tokenA.",
							"tokenB": "Address of tokenB."
						},
						"returns": {
							"price": "The ratio tokenB/tokenA with 18 decimals.*"
						}
					},
					"name()": {
						"details": "Returns the name of the token."
					},
					"removeLiquidity(address,address,uint256,uint256,uint256,address,uint256)": {
						"details": "Burns LP tokens in exchange for tokenA and tokenB from the pool",
						"params": {
							"amountAMin": "Minimum acceptable amount of token A",
							"amountBMin": "Minimum acceptable amount of token B",
							"deadline": "Timestamp after which the transaction is invalid",
							"liquidity": "Amount of LP tokens to burn",
							"to": "Address to receive tokens",
							"tokenA": "Address of token A",
							"tokenB": "Address of token B"
						},
						"returns": {
							"amountA": "Amount of token A returned",
							"amountB": "Amount of token B returned*"
						}
					},
					"swapExactTokensForTokens(uint256,uint256,address[],address,uint256)": {
						"details": "Uses a simplified pricing formula, not constant product",
						"params": {
							"amountIn": "Exact amount of input token to send",
							"amountOutMin": "Minimum acceptable amount of output token to receive",
							"deadline": "Timestamp after which the transaction is invalid",
							"path": "Array with [tokenIn, tokenOut]",
							"to": "Recipient address for output token"
						},
						"returns": {
							"amounts": "Array of [amountIn, amountOut]*"
						}
					},
					"symbol()": {
						"details": "Returns the symbol of the token, usually a shorter version of the name."
					},
					"totalSupply()": {
						"details": "See {IERC20-totalSupply}."
					},
					"transfer(address,uint256)": {
						"details": "See {IERC20-transfer}. Requirements: - `to` cannot be the zero address. - the caller must have a balance of at least `value`."
					},
					"transferFrom(address,address,uint256)": {
						"details": "See {IERC20-transferFrom}. Skips emitting an {Approval} event indicating an allowance update. This is not required by the ERC. See {xref-ERC20-_approve-address-address-uint256-bool-}[_approve]. NOTE: Does not update the allowance if the current allowance is the maximum `uint256`. Requirements: - `from` and `to` cannot be the zero address. - `from` must have a balance of at least `value`. - the caller must have allowance for ``from``'s tokens of at least `value`."
					}
				},
				"version": 1
			},
			"evm": {
				"assembly": "    /* \"SimpleSwap.sol\":129:6994  contract Simpleswap is ERC20 {... */\n  mstore(0x40, 0x80)\n    /* \"SimpleSwap.sol\":165:196  constructor() ERC20(\"li\",\"l\"){} */\n  callvalue\n  dup1\n  iszero\n  tag_1\n  jumpi\n  revert(0x00, 0x00)\ntag_1:\n  pop\n    /* \"@openzeppelin/contracts/token/ERC20/ERC20.sol\":1582:1695  constructor(string memory name_, string memory symbol_) {... */\n  mload(0x40)\n  dup1\n  0x40\n  add\n  0x40\n  mstore\n  dup1\n  0x02\n  dup2\n  mstore\n  0x20\n  add\n  0x6c69000000000000000000000000000000000000000000000000000000000000\n  dup2\n  mstore\n  pop\n  mload(0x40)\n  dup1\n  0x40\n  add\n  0x40\n  mstore\n  dup1\n  0x01\n  dup2\n  mstore\n  0x20\n  add\n  0x6c00000000000000000000000000000000000000000000000000000000000000\n  dup2\n  mstore\n  pop\n    /* \"@openzeppelin/contracts/token/ERC20/ERC20.sol\":1656:1661  name_ */\n  dup2\n    /* \"@openzeppelin/contracts/token/ERC20/ERC20.sol\":1648:1653  _name */\n  0x03\n    /* \"@openzeppelin/contracts/token/ERC20/ERC20.sol\":1648:1661  _name = name_ */\n  swap1\n  dup2\n  tag_5\n  swap2\n  swap1\n  tag_6\n  jump\t// in\ntag_5:\n  pop\n    /* \"@openzeppelin/contracts/token/ERC20/ERC20.sol\":1681:1688  symbol_ */\n  dup1\n    /* \"@openzeppelin/contracts/token/ERC20/ERC20.sol\":1671:1678  _symbol */\n  0x04\n    /* \"@openzeppelin/contracts/token/ERC20/ERC20.sol\":1671:1688  _symbol = symbol_ */\n  swap1\n  dup2\n  tag_7\n  swap2\n  swap1\n  tag_6\n  jump\t// in\ntag_7:\n  pop\n    /* \"@openzeppelin/contracts/token/ERC20/ERC20.sol\":1582:1695  constructor(string memory name_, string memory symbol_) {... */\n  pop\n  pop\n    /* \"SimpleSwap.sol\":129:6994  contract Simpleswap is ERC20 {... */\n  jump(tag_9)\n    /* \"#utility.yul\":7:106   */\ntag_10:\n    /* \"#utility.yul\":59:65   */\n  0x00\n    /* \"#utility.yul\":93:98   */\n  dup2\n    /* \"#utility.yul\":87:99   */\n  mload\n    /* \"#utility.yul\":77:99   */\n  swap1\n  pop\n    /* \"#utility.yul\":7:106   */\n  swap2\n  swap1\n  pop\n  jump\t// out\n    /* \"#utility.yul\":112:292   */\ntag_11:\n    /* \"#utility.yul\":160:237   */\n  0x4e487b7100000000000000000000000000000000000000000000000000000000\n    /* \"#utility.yul\":157:158   */\n  0x00\n    /* \"#utility.yul\":150:238   */\n  mstore\n    /* \"#utility.yul\":257:261   */\n  0x41\n    /* \"#utility.yul\":254:255   */\n  0x04\n    /* \"#utility.yul\":247:262   */\n  mstore\n    /* \"#utility.yul\":281:285   */\n  0x24\n    /* \"#utility.yul\":278:279   */\n  0x00\n    /* \"#utility.yul\":271:286   */\n  revert\n    /* \"#utility.yul\":298:478   */\ntag_12:\n    /* \"#utility.yul\":346:423   */\n  0x4e487b7100000000000000000000000000000000000000000000000000000000\n    /* \"#utility.yul\":343:344   */\n  0x00\n    /* \"#utility.yul\":336:424   */\n  mstore\n    /* \"#utility.yul\":443:447   */\n  0x22\n    /* \"#utility.yul\":440:441   */\n  0x04\n    /* \"#utility.yul\":433:448   */\n  mstore\n    /* \"#utility.yul\":467:471   */\n  0x24\n    /* \"#utility.yul\":464:465   */\n  0x00\n    /* \"#utility.yul\":457:472   */\n  revert\n    /* \"#utility.yul\":484:804   */\ntag_13:\n    /* \"#utility.yul\":528:534   */\n  0x00\n    /* \"#utility.yul\":565:566   */\n  0x02\n    /* \"#utility.yul\":559:563   */\n  dup3\n    /* \"#utility.yul\":555:567   */\n  div\n    /* \"#utility.yul\":545:567   */\n  swap1\n  pop\n    /* \"#utility.yul\":612:613   */\n  0x01\n    /* \"#utility.yul\":606:610   */\n  dup3\n    /* \"#utility.yul\":602:614   */\n  and\n    /* \"#utility.yul\":633:651   */\n  dup1\n    /* \"#utility.yul\":623:704   */\n  tag_35\n  jumpi\n    /* \"#utility.yul\":689:693   */\n  0x7f\n    /* \"#utility.yul\":681:687   */\n  dup3\n    /* \"#utility.yul\":677:694   */\n  and\n    /* \"#utility.yul\":667:694   */\n  swap2\n  pop\n    /* \"#utility.yul\":623:704   */\ntag_35:\n    /* \"#utility.yul\":751:753   */\n  0x20\n    /* \"#utility.yul\":743:749   */\n  dup3\n    /* \"#utility.yul\":740:754   */\n  lt\n    /* \"#utility.yul\":720:738   */\n  dup2\n    /* \"#utility.yul\":717:755   */\n  sub\n    /* \"#utility.yul\":714:798   */\n  tag_36\n  jumpi\n    /* \"#utility.yul\":770:788   */\n  tag_37\n  tag_12\n  jump\t// in\ntag_37:\n    /* \"#utility.yul\":714:798   */\ntag_36:\n    /* \"#utility.yul\":535:804   */\n  pop\n    /* \"#utility.yul\":484:804   */\n  swap2\n  swap1\n  pop\n  jump\t// out\n    /* \"#utility.yul\":810:951   */\ntag_14:\n    /* \"#utility.yul\":859:863   */\n  0x00\n    /* \"#utility.yul\":882:885   */\n  dup2\n    /* \"#utility.yul\":874:885   */\n  swap1\n  pop\n    /* \"#utility.yul\":905:908   */\n  dup2\n    /* \"#utility.yul\":902:903   */\n  0x00\n    /* \"#utility.yul\":895:909   */\n  mstore\n    /* \"#utility.yul\":939:943   */\n  0x20\n    /* \"#utility.yul\":936:937   */\n  0x00\n    /* \"#utility.yul\":926:944   */\n  keccak256\n    /* \"#utility.yul\":918:944   */\n  swap1\n  pop\n    /* \"#utility.yul\":810:951   */\n  swap2\n  swap1\n  pop\n  jump\t// out\n    /* \"#utility.yul\":957:1050   */\ntag_15:\n    /* \"#utility.yul\":994:1000   */\n  0x00\n    /* \"#utility.yul\":1041:1043   */\n  0x20\n    /* \"#utility.yul\":1036:1038   */\n  0x1f\n    /* \"#utility.yul\":1029:1034   */\n  dup4\n    /* \"#utility.yul\":1025:1039   */\n  add\n    /* \"#utility.yul\":1021:1044   */\n  div\n    /* \"#utility.yul\":1011:1044   */\n  swap1\n  pop\n    /* \"#utility.yul\":957:1050   */\n  swap2\n  swap1\n  pop\n  jump\t// out\n    /* \"#utility.yul\":1056:1163   */\ntag_16:\n    /* \"#utility.yul\":1100:1108   */\n  0x00\n    /* \"#utility.yul\":1150:1155   */\n  dup3\n    /* \"#utility.yul\":1144:1148   */\n  dup3\n    /* \"#utility.yul\":1140:1156   */\n  shl\n    /* \"#utility.yul\":1119:1156   */\n  swap1\n  pop\n    /* \"#utility.yul\":1056:1163   */\n  swap3\n  swap2\n  pop\n  pop\n  jump\t// out\n    /* \"#utility.yul\":1169:1562   */\ntag_17:\n    /* \"#utility.yul\":1238:1244   */\n  0x00\n    /* \"#utility.yul\":1288:1289   */\n  0x08\n    /* \"#utility.yul\":1276:1286   */\n  dup4\n    /* \"#utility.yul\":1272:1290   */\n  mul\n    /* \"#utility.yul\":1311:1408   */\n  tag_42\n    /* \"#utility.yul\":1341:1407   */\n  0xffffffffffffffffffffffffffffffffffffffffffffffffffffffffffffffff\n    /* \"#utility.yul\":1330:1339   */\n  dup3\n    /* \"#utility.yul\":1311:1408   */\n  tag_16\n  jump\t// in\ntag_42:\n    /* \"#utility.yul\":1429:1468   */\n  tag_43\n    /* \"#utility.yul\":1459:1467   */\n  dup7\n    /* \"#utility.yul\":1448:1457   */\n  dup4\n    /* \"#utility.yul\":1429:1468   */\n  tag_16\n  jump\t// in\ntag_43:\n    /* \"#utility.yul\":1417:1468   */\n  swap6\n  pop\n    /* \"#utility.yul\":1501:1505   */\n  dup1\n    /* \"#utility.yul\":1497:1506   */\n  not\n    /* \"#utility.yul\":1490:1495   */\n  dup5\n    /* \"#utility.yul\":1486:1507   */\n  and\n    /* \"#utility.yul\":1477:1507   */\n  swap4\n  pop\n    /* \"#utility.yul\":1550:1554   */\n  dup1\n    /* \"#utility.yul\":1540:1548   */\n  dup7\n    /* \"#utility.yul\":1536:1555   */\n  and\n    /* \"#utility.yul\":1529:1534   */\n  dup5\n    /* \"#utility.yul\":1526:1556   */\n  or\n    /* \"#utility.yul\":1516:1556   */\n  swap3\n  pop\n    /* \"#utility.yul\":1245:1562   */\n  pop\n  pop\n    /* \"#utility.yul\":1169:1562   */\n  swap4\n  swap3\n  pop\n  pop\n  pop\n  jump\t// out\n    /* \"#utility.yul\":1568:1645   */\ntag_18:\n    /* \"#utility.yul\":1605:1612   */\n  0x00\n    /* \"#utility.yul\":1634:1639   */\n  dup2\n    /* \"#utility.yul\":1623:1639   */\n  swap1\n  pop\n    /* \"#utility.yul\":1568:1645   */\n  swap2\n  swap1\n  pop\n  jump\t// out\n    /* \"#utility.yul\":1651:1711   */\ntag_19:\n    /* \"#utility.yul\":1679:1682   */\n  0x00\n    /* \"#utility.yul\":1700:1705   */\n  dup2\n    /* \"#utility.yul\":1693:1705   */\n  swap1\n  pop\n    /* \"#utility.yul\":1651:1711   */\n  swap2\n  swap1\n  pop\n  jump\t// out\n    /* \"#utility.yul\":1717:1859   */\ntag_20:\n    /* \"#utility.yul\":1767:1776   */\n  0x00\n    /* \"#utility.yul\":1800:1853   */\n  tag_47\n    /* \"#utility.yul\":1818:1852   */\n  tag_48\n    /* \"#utility.yul\":1827:1851   */\n  tag_49\n    /* \"#utility.yul\":1845:1850   */\n  dup5\n    /* \"#utility.yul\":1827:1851   */\n  tag_18\n  jump\t// in\ntag_49:\n    /* \"#utility.yul\":1818:1852   */\n  tag_19\n  jump\t// in\ntag_48:\n    /* \"#utility.yul\":1800:1853   */\n  tag_18\n  jump\t// in\ntag_47:\n    /* \"#utility.yul\":1787:1853   */\n  swap1\n  pop\n    /* \"#utility.yul\":1717:1859   */\n  swap2\n  swap1\n  pop\n  jump\t// out\n    /* \"#utility.yul\":1865:1940   */\ntag_21:\n    /* \"#utility.yul\":1908:1911   */\n  0x00\n    /* \"#utility.yul\":1929:1934   */\n  dup2\n    /* \"#utility.yul\":1922:1934   */\n  swap1\n  pop\n    /* \"#utility.yul\":1865:1940   */\n  swap2\n  swap1\n  pop\n  jump\t// out\n    /* \"#utility.yul\":1946:2215   */\ntag_22:\n    /* \"#utility.yul\":2056:2095   */\n  tag_52\n    /* \"#utility.yul\":2087:2094   */\n  dup4\n    /* \"#utility.yul\":2056:2095   */\n  tag_20\n  jump\t// in\ntag_52:\n    /* \"#utility.yul\":2117:2208   */\n  tag_53\n    /* \"#utility.yul\":2166:2207   */\n  tag_54\n    /* \"#utility.yul\":2190:2206   */\n  dup3\n    /* \"#utility.yul\":2166:2207   */\n  tag_21\n  jump\t// in\ntag_54:\n    /* \"#utility.yul\":2158:2164   */\n  dup5\n    /* \"#utility.yul\":2151:2155   */\n  dup5\n    /* \"#utility.yul\":2145:2156   */\n  sload\n    /* \"#utility.yul\":2117:2208   */\n  tag_17\n  jump\t// in\ntag_53:\n    /* \"#utility.yul\":2111:2115   */\n  dup3\n    /* \"#utility.yul\":2104:2209   */\n  sstore\n    /* \"#utility.yul\":2022:2215   */\n  pop\n    /* \"#utility.yul\":1946:2215   */\n  pop\n  pop\n  pop\n  jump\t// out\n    /* \"#utility.yul\":2221:2294   */\ntag_23:\n    /* \"#utility.yul\":2266:2269   */\n  0x00\n    /* \"#utility.yul\":2287:2288   */\n  0x00\n    /* \"#utility.yul\":2280:2288   */\n  swap1\n  pop\n    /* \"#utility.yul\":2221:2294   */\n  swap1\n  jump\t// out\n    /* \"#utility.yul\":2300:2489   */\ntag_24:\n    /* \"#utility.yul\":2377:2409   */\n  tag_57\n  tag_23\n  jump\t// in\ntag_57:\n    /* \"#utility.yul\":2418:2483   */\n  tag_58\n    /* \"#utility.yul\":2476:2482   */\n  dup2\n    /* \"#utility.yul\":2468:2474   */\n  dup5\n    /* \"#utility.yul\":2462:2466   */\n  dup5\n    /* \"#utility.yul\":2418:2483   */\n  tag_22\n  jump\t// in\ntag_58:\n    /* \"#utility.yul\":2353:2489   */\n  pop\n    /* \"#utility.yul\":2300:2489   */\n  pop\n  pop\n  jump\t// out\n    /* \"#utility.yul\":2495:2681   */\ntag_25:\n    /* \"#utility.yul\":2555:2675   */\ntag_60:\n    /* \"#utility.yul\":2572:2575   */\n  dup2\n    /* \"#utility.yul\":2565:2570   */\n  dup2\n    /* \"#utility.yul\":2562:2576   */\n  lt\n    /* \"#utility.yul\":2555:2675   */\n  iszero\n  tag_62\n  jumpi\n    /* \"#utility.yul\":2626:2665   */\n  tag_63\n    /* \"#utility.yul\":2663:2664   */\n  0x00\n    /* \"#utility.yul\":2656:2661   */\n  dup3\n    /* \"#utility.yul\":2626:2665   */\n  tag_24\n  jump\t// in\ntag_63:\n    /* \"#utility.yul\":2599:2600   */\n  0x01\n    /* \"#utility.yul\":2592:2597   */\n  dup2\n    /* \"#utility.yul\":2588:2601   */\n  add\n    /* \"#utility.yul\":2579:2601   */\n  swap1\n  pop\n    /* \"#utility.yul\":2555:2675   */\n  jump(tag_60)\ntag_62:\n    /* \"#utility.yul\":2495:2681   */\n  pop\n  pop\n  jump\t// out\n    /* \"#utility.yul\":2687:3230   */\ntag_26:\n    /* \"#utility.yul\":2788:2790   */\n  0x1f\n    /* \"#utility.yul\":2783:2786   */\n  dup3\n    /* \"#utility.yul\":2780:2791   */\n  gt\n    /* \"#utility.yul\":2777:3223   */\n  iszero\n  tag_65\n  jumpi\n    /* \"#utility.yul\":2822:2860   */\n  tag_66\n    /* \"#utility.yul\":2854:2859   */\n  dup2\n    /* \"#utility.yul\":2822:2860   */\n  tag_14\n  jump\t// in\ntag_66:\n    /* \"#utility.yul\":2906:2935   */\n  tag_67\n    /* \"#utility.yul\":2924:2934   */\n  dup5\n    /* \"#utility.yul\":2906:2935   */\n  tag_15\n  jump\t// in\ntag_67:\n    /* \"#utility.yul\":2896:2904   */\n  dup2\n    /* \"#utility.yul\":2892:2936   */\n  add\n    /* \"#utility.yul\":3089:3091   */\n  0x20\n    /* \"#utility.yul\":3077:3087   */\n  dup6\n    /* \"#utility.yul\":3074:3092   */\n  lt\n    /* \"#utility.yul\":3071:3120   */\n  iszero\n  tag_68\n  jumpi\n    /* \"#utility.yul\":3110:3118   */\n  dup2\n    /* \"#utility.yul\":3095:3118   */\n  swap1\n  pop\n    /* \"#utility.yul\":3071:3120   */\ntag_68:\n    /* \"#utility.yul\":3133:3213   */\n  tag_69\n    /* \"#utility.yul\":3189:3211   */\n  tag_70\n    /* \"#utility.yul\":3207:3210   */\n  dup6\n    /* \"#utility.yul\":3189:3211   */\n  tag_15\n  jump\t// in\ntag_70:\n    /* \"#utility.yul\":3179:3187   */\n  dup4\n    /* \"#utility.yul\":3175:3212   */\n  add\n    /* \"#utility.yul\":3162:3173   */\n  dup3\n    /* \"#utility.yul\":3133:3213   */\n  tag_25\n  jump\t// in\ntag_69:\n    /* \"#utility.yul\":2792:3223   */\n  pop\n  pop\n    /* \"#utility.yul\":2777:3223   */\ntag_65:\n    /* \"#utility.yul\":2687:3230   */\n  pop\n  pop\n  pop\n  jump\t// out\n    /* \"#utility.yul\":3236:3353   */\ntag_27:\n    /* \"#utility.yul\":3290:3298   */\n  0x00\n    /* \"#utility.yul\":3340:3345   */\n  dup3\n    /* \"#utility.yul\":3334:3338   */\n  dup3\n    /* \"#utility.yul\":3330:3346   */\n  shr\n    /* \"#utility.yul\":3309:3346   */\n  swap1\n  pop\n    /* \"#utility.yul\":3236:3353   */\n  swap3\n  swap2\n  pop\n  pop\n  jump\t// out\n    /* \"#utility.yul\":3359:3528   */\ntag_28:\n    /* \"#utility.yul\":3403:3409   */\n  0x00\n    /* \"#utility.yul\":3436:3487   */\n  tag_73\n    /* \"#utility.yul\":3484:3485   */\n  0x00\n    /* \"#utility.yul\":3480:3486   */\n  not\n    /* \"#utility.yul\":3472:3477   */\n  dup5\n    /* \"#utility.yul\":3469:3470   */\n  0x08\n    /* \"#utility.yul\":3465:3478   */\n  mul\n    /* \"#utility.yul\":3436:3487   */\n  tag_27\n  jump\t// in\ntag_73:\n    /* \"#utility.yul\":3432:3488   */\n  not\n    /* \"#utility.yul\":3517:3521   */\n  dup1\n    /* \"#utility.yul\":3511:3515   */\n  dup4\n    /* \"#utility.yul\":3507:3522   */\n  and\n    /* \"#utility.yul\":3497:3522   */\n  swap2\n  pop\n    /* \"#utility.yul\":3410:3528   */\n  pop\n    /* \"#utility.yul\":3359:3528   */\n  swap3\n  swap2\n  pop\n  pop\n  jump\t// out\n    /* \"#utility.yul\":3533:3828   */\ntag_29:\n    /* \"#utility.yul\":3609:3613   */\n  0x00\n    /* \"#utility.yul\":3755:3784   */\n  tag_75\n    /* \"#utility.yul\":3780:3783   */\n  dup4\n    /* \"#utility.yul\":3774:3778   */\n  dup4\n    /* \"#utility.yul\":3755:3784   */\n  tag_28\n  jump\t// in\ntag_75:\n    /* \"#utility.yul\":3747:3784   */\n  swap2\n  pop\n    /* \"#utility.yul\":3817:3820   */\n  dup3\n    /* \"#utility.yul\":3814:3815   */\n  0x02\n    /* \"#utility.yul\":3810:3821   */\n  mul\n    /* \"#utility.yul\":3804:3808   */\n  dup3\n    /* \"#utility.yul\":3801:3822   */\n  or\n    /* \"#utility.yul\":3793:3822   */\n  swap1\n  pop\n    /* \"#utility.yul\":3533:3828   */\n  swap3\n  swap2\n  pop\n  pop\n  jump\t// out\n    /* \"#utility.yul\":3833:5228   */\ntag_6:\n    /* \"#utility.yul\":3950:3987   */\n  tag_77\n    /* \"#utility.yul\":3983:3986   */\n  dup3\n    /* \"#utility.yul\":3950:3987   */\n  tag_10\n  jump\t// in\ntag_77:\n    /* \"#utility.yul\":4052:4070   */\n  0xffffffffffffffff\n    /* \"#utility.yul\":4044:4050   */\n  dup2\n    /* \"#utility.yul\":4041:4071   */\n  gt\n    /* \"#utility.yul\":4038:4094   */\n  iszero\n  tag_78\n  jumpi\n    /* \"#utility.yul\":4074:4092   */\n  tag_79\n  tag_11\n  jump\t// in\ntag_79:\n    /* \"#utility.yul\":4038:4094   */\ntag_78:\n    /* \"#utility.yul\":4118:4156   */\n  tag_80\n    /* \"#utility.yul\":4150:4154   */\n  dup3\n    /* \"#utility.yul\":4144:4155   */\n  sload\n    /* \"#utility.yul\":4118:4156   */\n  tag_13\n  jump\t// in\ntag_80:\n    /* \"#utility.yul\":4203:4270   */\n  tag_81\n    /* \"#utility.yul\":4263:4269   */\n  dup3\n    /* \"#utility.yul\":4255:4261   */\n  dup3\n    /* \"#utility.yul\":4249:4253   */\n  dup6\n    /* \"#utility.yul\":4203:4270   */\n  tag_26\n  jump\t// in\ntag_81:\n    /* \"#utility.yul\":4297:4298   */\n  0x00\n    /* \"#utility.yul\":4321:4325   */\n  0x20\n    /* \"#utility.yul\":4308:4325   */\n  swap1\n  pop\n    /* \"#utility.yul\":4353:4355   */\n  0x1f\n    /* \"#utility.yul\":4345:4351   */\n  dup4\n    /* \"#utility.yul\":4342:4356   */\n  gt\n    /* \"#utility.yul\":4370:4371   */\n  0x01\n    /* \"#utility.yul\":4365:4983   */\n  dup2\n  eq\n  tag_83\n  jumpi\n    /* \"#utility.yul\":5027:5028   */\n  0x00\n    /* \"#utility.yul\":5044:5050   */\n  dup5\n    /* \"#utility.yul\":5041:5118   */\n  iszero\n  tag_84\n  jumpi\n    /* \"#utility.yul\":5093:5102   */\n  dup3\n    /* \"#utility.yul\":5088:5091   */\n  dup8\n    /* \"#utility.yul\":5084:5103   */\n  add\n    /* \"#utility.yul\":5078:5104   */\n  mload\n    /* \"#utility.yul\":5069:5104   */\n  swap1\n  pop\n    /* \"#utility.yul\":5041:5118   */\ntag_84:\n    /* \"#utility.yul\":5144:5211   */\n  tag_85\n    /* \"#utility.yul\":5204:5210   */\n  dup6\n    /* \"#utility.yul\":5197:5202   */\n  dup3\n    /* \"#utility.yul\":5144:5211   */\n  tag_29\n  jump\t// in\ntag_85:\n    /* \"#utility.yul\":5138:5142   */\n  dup7\n    /* \"#utility.yul\":5131:5212   */\n  sstore\n    /* \"#utility.yul\":5000:5222   */\n  pop\n    /* \"#utility.yul\":4335:5222   */\n  jump(tag_82)\n    /* \"#utility.yul\":4365:4983   */\ntag_83:\n    /* \"#utility.yul\":4417:4421   */\n  0x1f\n    /* \"#utility.yul\":4413:4422   */\n  not\n    /* \"#utility.yul\":4405:4411   */\n  dup5\n    /* \"#utility.yul\":4401:4423   */\n  and\n    /* \"#utility.yul\":4451:4488   */\n  tag_86\n    /* \"#utility.yul\":4483:4487   */\n  dup7\n    /* \"#utility.yul\":4451:4488   */\n  tag_14\n  jump\t// in\ntag_86:\n    /* \"#utility.yul\":4510:4511   */\n  0x00\n    /* \"#utility.yul\":4524:4732   */\ntag_87:\n    /* \"#utility.yul\":4538:4545   */\n  dup3\n    /* \"#utility.yul\":4535:4536   */\n  dup2\n    /* \"#utility.yul\":4532:4546   */\n  lt\n    /* \"#utility.yul\":4524:4732   */\n  iszero\n  tag_89\n  jumpi\n    /* \"#utility.yul\":4617:4626   */\n  dup5\n    /* \"#utility.yul\":4612:4615   */\n  dup10\n    /* \"#utility.yul\":4608:4627   */\n  add\n    /* \"#utility.yul\":4602:4628   */\n  mload\n    /* \"#utility.yul\":4594:4600   */\n  dup3\n    /* \"#utility.yul\":4587:4629   */\n  sstore\n    /* \"#utility.yul\":4668:4669   */\n  0x01\n    /* \"#utility.yul\":4660:4666   */\n  dup3\n    /* \"#utility.yul\":4656:4670   */\n  add\n    /* \"#utility.yul\":4646:4670   */\n  swap2\n  pop\n    /* \"#utility.yul\":4715:4717   */\n  0x20\n    /* \"#utility.yul\":4704:4713   */\n  dup6\n    /* \"#utility.yul\":4700:4718   */\n  add\n    /* \"#utility.yul\":4687:4718   */\n  swap5\n  pop\n    /* \"#utility.yul\":4561:4565   */\n  0x20\n    /* \"#utility.yul\":4558:4559   */\n  dup2\n    /* \"#utility.yul\":4554:4566   */\n  add\n    /* \"#utility.yul\":4549:4566   */\n  swap1\n  pop\n    /* \"#utility.yul\":4524:4732   */\n  jump(tag_87)\ntag_89:\n    /* \"#utility.yul\":4760:4766   */\n  dup7\n    /* \"#utility.yul\":4751:4758   */\n  dup4\n    /* \"#utility.yul\":4748:4767   */\n  lt\n    /* \"#utility.yul\":4745:4924   */\n  iszero\n  tag_90\n  jumpi\n    /* \"#utility.yul\":4818:4827   */\n  dup5\n    /* \"#utility.yul\":4813:4816   */\n  dup10\n    /* \"#utility.yul\":4809:4828   */\n  add\n    /* \"#utility.yul\":4803:4829   */\n  mload\n    /* \"#utility.yul\":4861:4909   */\n  tag_91\n    /* \"#utility.yul\":4903:4907   */\n  0x1f\n    /* \"#utility.yul\":4895:4901   */\n  dup10\n    /* \"#utility.yul\":4891:4908   */\n  and\n    /* \"#utility.yul\":4880:4889   */\n  dup3\n    /* \"#utility.yul\":4861:4909   */\n  tag_28\n  jump\t// in\ntag_91:\n    /* \"#utility.yul\":4853:4859   */\n  dup4\n    /* \"#utility.yul\":4846:4910   */\n  sstore\n    /* \"#utility.yul\":4768:4924   */\n  pop\n    /* \"#utility.yul\":4745:4924   */\ntag_90:\n    /* \"#utility.yul\":4970:4971   */\n  0x01\n    /* \"#utility.yul\":4966:4967   */\n  0x02\n    /* \"#utility.yul\":4958:4964   */\n  dup9\n    /* \"#utility.yul\":4954:4968   */\n  mul\n    /* \"#utility.yul\":4950:4972   */\n  add\n    /* \"#utility.yul\":4944:4948   */\n  dup9\n    /* \"#utility.yul\":4937:4973   */\n  sstore\n    /* \"#utility.yul\":4372:4983   */\n  pop\n  pop\n  pop\n    /* \"#utility.yul\":4335:5222   */\ntag_82:\n  pop\n    /* \"#utility.yul\":3925:5228   */\n  pop\n  pop\n  pop\n    /* \"#utility.yul\":3833:5228   */\n  pop\n  pop\n  jump\t// out\n    /* \"SimpleSwap.sol\":129:6994  contract Simpleswap is ERC20 {... */\ntag_9:\n  dataSize(sub_0)\n  dup1\n  dataOffset(sub_0)\n  0x00\n  codecopy\n  0x00\n  return\nstop\n\nsub_0: assembly {\n        /* \"SimpleSwap.sol\":129:6994  contract Simpleswap is ERC20 {... */\n      mstore(0x40, 0x80)\n      callvalue\n      dup1\n      iszero\n      tag_1\n      jumpi\n      revert(0x00, 0x00)\n    tag_1:\n      pop\n      jumpi(tag_2, lt(calldatasize, 0x04))\n      shr(0xe0, calldataload(0x00))\n      dup1\n      0x70a08231\n      gt\n      tag_17\n      jumpi\n      dup1\n      0xac41865a\n      gt\n      tag_18\n      jumpi\n      dup1\n      0xac41865a\n      eq\n      tag_13\n      jumpi\n      dup1\n      0xbaa2abde\n      eq\n      tag_14\n      jumpi\n      dup1\n      0xdd62ed3e\n      eq\n      tag_15\n      jumpi\n      dup1\n      0xe8e33700\n      eq\n      tag_16\n      jumpi\n      jump(tag_2)\n    tag_18:\n      dup1\n      0x70a08231\n      eq\n      tag_10\n      jumpi\n      dup1\n      0x95d89b41\n      eq\n      tag_11\n      jumpi\n      dup1\n      0xa9059cbb\n      eq\n      tag_12\n      jumpi\n      jump(tag_2)\n    tag_17:\n      dup1\n      0x18160ddd\n      gt\n      tag_19\n      jumpi\n      dup1\n      0x18160ddd\n      eq\n      tag_6\n      jumpi\n      dup1\n      0x23b872dd\n      eq\n      tag_7\n      jumpi\n      dup1\n      0x313ce567\n      eq\n      tag_8\n      jumpi\n      dup1\n      0x38ed1739\n      eq\n      tag_9\n      jumpi\n      jump(tag_2)\n    tag_19:\n      dup1\n      0x054d50d4\n      eq\n      tag_3\n      jumpi\n      dup1\n      0x06fdde03\n      eq\n      tag_4\n      jumpi\n      dup1\n      0x095ea7b3\n      eq\n      tag_5\n      jumpi\n    tag_2:\n      revert(0x00, 0x00)\n        /* \"SimpleSwap.sol\":6718:6971  function getAmountOut(uint amountIn, uint reserveIn, uint reserveOut) external pure returns (uint amountOut){... */\n    tag_3:\n      tag_20\n      0x04\n      dup1\n      calldatasize\n      sub\n      dup2\n      add\n      swap1\n      tag_21\n      swap2\n      swap1\n      tag_22\n      jump\t// in\n    tag_21:\n      tag_23\n      jump\t// in\n    tag_20:\n      mload(0x40)\n      tag_24\n      swap2\n      swap1\n      tag_25\n      jump\t// in\n    tag_24:\n      mload(0x40)\n      dup1\n      swap2\n      sub\n      swap1\n      return\n        /* \"@openzeppelin/contracts/token/ERC20/ERC20.sol\":1760:1849  function name() public view virtual returns (string memory) {... */\n    tag_4:\n      tag_26\n      tag_27\n      jump\t// in\n    tag_26:\n      mload(0x40)\n      tag_28\n      swap2\n      swap1\n      tag_29\n      jump\t// in\n    tag_28:\n      mload(0x40)\n      dup1\n      swap2\n      sub\n      swap1\n      return\n        /* \"@openzeppelin/contracts/token/ERC20/ERC20.sol\":3979:4165  function approve(address spender, uint256 value) public virtual returns (bool) {... */\n    tag_5:\n      tag_30\n      0x04\n      dup1\n      calldatasize\n      sub\n      dup2\n      add\n      swap1\n      tag_31\n      swap2\n      swap1\n      tag_32\n      jump\t// in\n    tag_31:\n      tag_33\n      jump\t// in\n    tag_30:\n      mload(0x40)\n      tag_34\n      swap2\n      swap1\n      tag_35\n      jump\t// in\n    tag_34:\n      mload(0x40)\n      dup1\n      swap2\n      sub\n      swap1\n      return\n        /* \"@openzeppelin/contracts/token/ERC20/ERC20.sol\":2830:2927  function totalSupply() public view virtual returns (uint256) {... */\n    tag_6:\n      tag_36\n      tag_37\n      jump\t// in\n    tag_36:\n      mload(0x40)\n      tag_38\n      swap2\n      swap1\n      tag_25\n      jump\t// in\n    tag_38:\n      mload(0x40)\n      dup1\n      swap2\n      sub\n      swap1\n      return\n        /* \"@openzeppelin/contracts/token/ERC20/ERC20.sol\":4757:5001  function transferFrom(address from, address to, uint256 value) public virtual returns (bool) {... */\n    tag_7:\n      tag_39\n      0x04\n      dup1\n      calldatasize\n      sub\n      dup2\n      add\n      swap1\n      tag_40\n      swap2\n      swap1\n      tag_41\n      jump\t// in\n    tag_40:\n      tag_42\n      jump\t// in\n    tag_39:\n      mload(0x40)\n      tag_43\n      swap2\n      swap1\n      tag_35\n      jump\t// in\n    tag_43:\n      mload(0x40)\n      dup1\n      swap2\n      sub\n      swap1\n      return\n        /* \"@openzeppelin/contracts/token/ERC20/ERC20.sol\":2688:2770  function decimals() public view virtual returns (uint8) {... */\n    tag_8:\n      tag_44\n      tag_45\n      jump\t// in\n    tag_44:\n      mload(0x40)\n      tag_46\n      swap2\n      swap1\n      tag_47\n      jump\t// in\n    tag_46:\n      mload(0x40)\n      dup1\n      swap2\n      sub\n      swap1\n      return\n        /* \"SimpleSwap.sol\":4657:5637  function swapExactTokensForTokens(... */\n    tag_9:\n      tag_48\n      0x04\n      dup1\n      calldatasize\n      sub\n      dup2\n      add\n      swap1\n      tag_49\n      swap2\n      swap1\n      tag_50\n      jump\t// in\n    tag_49:\n      tag_51\n      jump\t// in\n    tag_48:\n      mload(0x40)\n      tag_52\n      swap2\n      swap1\n      tag_53\n      jump\t// in\n    tag_52:\n      mload(0x40)\n      dup1\n      swap2\n      sub\n      swap1\n      return\n        /* \"@openzeppelin/contracts/token/ERC20/ERC20.sol\":2985:3101  function balanceOf(address account) public view virtual returns (uint256) {... */\n    tag_10:\n      tag_54\n      0x04\n      dup1\n      calldatasize\n      sub\n      dup2\n      add\n      swap1\n      tag_55\n      swap2\n      swap1\n      tag_56\n      jump\t// in\n    tag_55:\n      tag_57\n      jump\t// in\n    tag_54:\n      mload(0x40)\n      tag_58\n      swap2\n      swap1\n      tag_25\n      jump\t// in\n    tag_58:\n      mload(0x40)\n      dup1\n      swap2\n      sub\n      swap1\n      return\n        /* \"@openzeppelin/contracts/token/ERC20/ERC20.sol\":1962:2055  function symbol() public view virtual returns (string memory) {... */\n    tag_11:\n      tag_59\n      tag_60\n      jump\t// in\n    tag_59:\n      mload(0x40)\n      tag_61\n      swap2\n      swap1\n      tag_29\n      jump\t// in\n    tag_61:\n      mload(0x40)\n      dup1\n      swap2\n      sub\n      swap1\n      return\n        /* \"@openzeppelin/contracts/token/ERC20/ERC20.sol\":3296:3474  function transfer(address to, uint256 value) public virtual returns (bool) {... */\n    tag_12:\n      tag_62\n      0x04\n      dup1\n      calldatasize\n      sub\n      dup2\n      add\n      swap1\n      tag_63\n      swap2\n      swap1\n      tag_32\n      jump\t// in\n    tag_63:\n      tag_64\n      jump\t// in\n    tag_62:\n      mload(0x40)\n      tag_65\n      swap2\n      swap1\n      tag_35\n      jump\t// in\n    tag_65:\n      mload(0x40)\n      dup1\n      swap2\n      sub\n      swap1\n      return\n        /* \"SimpleSwap.sol\":5966:6326  function getPrice(address tokenA, address tokenB) public view returns (uint price){... */\n    tag_13:\n      tag_66\n      0x04\n      dup1\n      calldatasize\n      sub\n      dup2\n      add\n      swap1\n      tag_67\n      swap2\n      swap1\n      tag_68\n      jump\t// in\n    tag_67:\n      tag_69\n      jump\t// in\n    tag_66:\n      mload(0x40)\n      tag_70\n      swap2\n      swap1\n      tag_25\n      jump\t// in\n    tag_70:\n      mload(0x40)\n      dup1\n      swap2\n      sub\n      swap1\n      return\n        /* \"SimpleSwap.sol\":3105:4031  function removeLiquidity(... */\n    tag_14:\n      tag_71\n      0x04\n      dup1\n      calldatasize\n      sub\n      dup2\n      add\n      swap1\n      tag_72\n      swap2\n      swap1\n      tag_73\n      jump\t// in\n    tag_72:\n      tag_74\n      jump\t// in\n    tag_71:\n      mload(0x40)\n      tag_75\n      swap3\n      swap2\n      swap1\n      tag_76\n      jump\t// in\n    tag_75:\n      mload(0x40)\n      dup1\n      swap2\n      sub\n      swap1\n      return\n        /* \"@openzeppelin/contracts/token/ERC20/ERC20.sol\":3532:3672  function allowance(address owner, address spender) public view virtual returns (uint256) {... */\n    tag_15:\n      tag_77\n      0x04\n      dup1\n      calldatasize\n      sub\n      dup2\n      add\n      swap1\n      tag_78\n      swap2\n      swap1\n      tag_68\n      jump\t// in\n    tag_78:\n      tag_79\n      jump\t// in\n    tag_77:\n      mload(0x40)\n      tag_80\n      swap2\n      swap1\n      tag_25\n      jump\t// in\n    tag_80:\n      mload(0x40)\n      dup1\n      swap2\n      sub\n      swap1\n      return\n        /* \"SimpleSwap.sol\":944:2342  function addLiquidity(... */\n    tag_16:\n      tag_81\n      0x04\n      dup1\n      calldatasize\n      sub\n      dup2\n      add\n      swap1\n      tag_82\n      swap2\n      swap1\n      tag_83\n      jump\t// in\n    tag_82:\n      tag_84\n      jump\t// in\n    tag_81:\n      mload(0x40)\n      tag_85\n      swap4\n      swap3\n      swap2\n      swap1\n      tag_86\n      jump\t// in\n    tag_85:\n      mload(0x40)\n      dup1\n      swap2\n      sub\n      swap1\n      return\n        /* \"SimpleSwap.sol\":6718:6971  function getAmountOut(uint amountIn, uint reserveIn, uint reserveOut) external pure returns (uint amountOut){... */\n    tag_23:\n        /* \"SimpleSwap.sol\":6811:6825  uint amountOut */\n      0x00\n        /* \"SimpleSwap.sol\":6941:6950  reserveIn */\n      dup3\n        /* \"SimpleSwap.sol\":6932:6940  amountIn */\n      dup5\n        /* \"SimpleSwap.sol\":6932:6950  amountIn+reserveIn */\n      tag_88\n      swap2\n      swap1\n      tag_89\n      jump\t// in\n    tag_88:\n        /* \"SimpleSwap.sol\":6920:6930  reserveOut */\n      dup3\n        /* \"SimpleSwap.sol\":6909:6917  amountIn */\n      dup6\n        /* \"SimpleSwap.sol\":6909:6930  amountIn * reserveOut */\n      tag_90\n      swap2\n      swap1\n      tag_91\n      jump\t// in\n    tag_90:\n        /* \"SimpleSwap.sol\":6909:6951  amountIn * reserveOut/(amountIn+reserveIn) */\n      tag_92\n      swap2\n      swap1\n      tag_93\n      jump\t// in\n    tag_92:\n        /* \"SimpleSwap.sol\":6897:6951  amountOut = amountIn * reserveOut/(amountIn+reserveIn) */\n      swap1\n      pop\n        /* \"SimpleSwap.sol\":6718:6971  function getAmountOut(uint amountIn, uint reserveIn, uint reserveOut) external pure returns (uint amountOut){... */\n      swap4\n      swap3\n      pop\n      pop\n      pop\n      jump\t// out\n        /* \"@openzeppelin/contracts/token/ERC20/ERC20.sol\":1760:1849  function name() public view virtual returns (string memory) {... */\n    tag_27:\n        /* \"@openzeppelin/contracts/token/ERC20/ERC20.sol\":1805:1818  string memory */\n      0x60\n        /* \"@openzeppelin/contracts/token/ERC20/ERC20.sol\":1837:1842  _name */\n      0x03\n        /* \"@openzeppelin/contracts/token/ERC20/ERC20.sol\":1830:1842  return _name */\n      dup1\n      sload\n      tag_95\n      swap1\n      tag_96\n      jump\t// in\n    tag_95:\n      dup1\n      0x1f\n      add\n      0x20\n      dup1\n      swap2\n      div\n      mul\n      0x20\n      add\n      mload(0x40)\n      swap1\n      dup2\n      add\n      0x40\n      mstore\n      dup1\n      swap3\n      swap2\n      swap1\n      dup2\n      dup2\n      mstore\n      0x20\n      add\n      dup3\n      dup1\n      sload\n      tag_97\n      swap1\n      tag_96\n      jump\t// in\n    tag_97:\n      dup1\n      iszero\n      tag_98\n      jumpi\n      dup1\n      0x1f\n      lt\n      tag_99\n      jumpi\n      0x0100\n      dup1\n      dup4\n      sload\n      div\n      mul\n      dup4\n      mstore\n      swap2\n      0x20\n      add\n      swap2\n      jump(tag_98)\n    tag_99:\n      dup3\n      add\n      swap2\n      swap1\n      0x00\n      mstore\n      keccak256(0x00, 0x20)\n      swap1\n    tag_100:\n      dup2\n      sload\n      dup2\n      mstore\n      swap1\n      0x01\n      add\n      swap1\n      0x20\n      add\n      dup1\n      dup4\n      gt\n      tag_100\n      jumpi\n      dup3\n      swap1\n      sub\n      0x1f\n      and\n      dup3\n      add\n      swap2\n    tag_98:\n      pop\n      pop\n      pop\n      pop\n      pop\n      swap1\n      pop\n        /* \"@openzeppelin/contracts/token/ERC20/ERC20.sol\":1760:1849  function name() public view virtual returns (string memory) {... */\n      swap1\n      jump\t// out\n        /* \"@openzeppelin/contracts/token/ERC20/ERC20.sol\":3979:4165  function approve(address spender, uint256 value) public virtual returns (bool) {... */\n    tag_33:\n        /* \"@openzeppelin/contracts/token/ERC20/ERC20.sol\":4052:4056  bool */\n      0x00\n        /* \"@openzeppelin/contracts/token/ERC20/ERC20.sol\":4068:4081  address owner */\n      0x00\n        /* \"@openzeppelin/contracts/token/ERC20/ERC20.sol\":4084:4096  _msgSender() */\n      tag_102\n        /* \"@openzeppelin/contracts/token/ERC20/ERC20.sol\":4084:4094  _msgSender */\n      tag_103\n        /* \"@openzeppelin/contracts/token/ERC20/ERC20.sol\":4084:4096  _msgSender() */\n      jump\t// in\n    tag_102:\n        /* \"@openzeppelin/contracts/token/ERC20/ERC20.sol\":4068:4096  address owner = _msgSender() */\n      swap1\n      pop\n        /* \"@openzeppelin/contracts/token/ERC20/ERC20.sol\":4106:4137  _approve(owner, spender, value) */\n      tag_104\n        /* \"@openzeppelin/contracts/token/ERC20/ERC20.sol\":4115:4120  owner */\n      dup2\n        /* \"@openzeppelin/contracts/token/ERC20/ERC20.sol\":4122:4129  spender */\n      dup6\n        /* \"@openzeppelin/contracts/token/ERC20/ERC20.sol\":4131:4136  value */\n      dup6\n        /* \"@openzeppelin/contracts/token/ERC20/ERC20.sol\":4106:4114  _approve */\n      tag_105\n        /* \"@openzeppelin/contracts/token/ERC20/ERC20.sol\":4106:4137  _approve(owner, spender, value) */\n      jump\t// in\n    tag_104:\n        /* \"@openzeppelin/contracts/token/ERC20/ERC20.sol\":4154:4158  true */\n      0x01\n        /* \"@openzeppelin/contracts/token/ERC20/ERC20.sol\":4147:4158  return true */\n      swap2\n      pop\n      pop\n        /* \"@openzeppelin/contracts/token/ERC20/ERC20.sol\":3979:4165  function approve(address spender, uint256 value) public virtual returns (bool) {... */\n      swap3\n      swap2\n      pop\n      pop\n      jump\t// out\n        /* \"@openzeppelin/contracts/token/ERC20/ERC20.sol\":2830:2927  function totalSupply() public view virtual returns (uint256) {... */\n    tag_37:\n        /* \"@openzeppelin/contracts/token/ERC20/ERC20.sol\":2882:2889  uint256 */\n      0x00\n        /* \"@openzeppelin/contracts/token/ERC20/ERC20.sol\":2908:2920  _totalSupply */\n      sload(0x02)\n        /* \"@openzeppelin/contracts/token/ERC20/ERC20.sol\":2901:2920  return _totalSupply */\n      swap1\n      pop\n        /* \"@openzeppelin/contracts/token/ERC20/ERC20.sol\":2830:2927  function totalSupply() public view virtual returns (uint256) {... */\n      swap1\n      jump\t// out\n        /* \"@openzeppelin/contracts/token/ERC20/ERC20.sol\":4757:5001  function transferFrom(address from, address to, uint256 value) public virtual returns (bool) {... */\n    tag_42:\n        /* \"@openzeppelin/contracts/token/ERC20/ERC20.sol\":4844:4848  bool */\n      0x00\n        /* \"@openzeppelin/contracts/token/ERC20/ERC20.sol\":4860:4875  address spender */\n      0x00\n        /* \"@openzeppelin/contracts/token/ERC20/ERC20.sol\":4878:4890  _msgSender() */\n      tag_108\n        /* \"@openzeppelin/contracts/token/ERC20/ERC20.sol\":4878:4888  _msgSender */\n      tag_103\n        /* \"@openzeppelin/contracts/token/ERC20/ERC20.sol\":4878:4890  _msgSender() */\n      jump\t// in\n    tag_108:\n        /* \"@openzeppelin/contracts/token/ERC20/ERC20.sol\":4860:4890  address spender = _msgSender() */\n      swap1\n      pop\n        /* \"@openzeppelin/contracts/token/ERC20/ERC20.sol\":4900:4937  _spendAllowance(from, spender, value) */\n      tag_109\n        /* \"@openzeppelin/contracts/token/ERC20/ERC20.sol\":4916:4920  from */\n      dup6\n        /* \"@openzeppelin/contracts/token/ERC20/ERC20.sol\":4922:4929  spender */\n      dup3\n        /* \"@openzeppelin/contracts/token/ERC20/ERC20.sol\":4931:4936  value */\n      dup6\n        /* \"@openzeppelin/contracts/token/ERC20/ERC20.sol\":4900:4915  _spendAllowance */\n      tag_110\n        /* \"@openzeppelin/contracts/token/ERC20/ERC20.sol\":4900:4937  _spendAllowance(from, spender, value) */\n      jump\t// in\n    tag_109:\n        /* \"@openzeppelin/contracts/token/ERC20/ERC20.sol\":4947:4973  _transfer(from, to, value) */\n      tag_111\n        /* \"@openzeppelin/contracts/token/ERC20/ERC20.sol\":4957:4961  from */\n      dup6\n        /* \"@openzeppelin/contracts/token/ERC20/ERC20.sol\":4963:4965  to */\n      dup6\n        /* \"@openzeppelin/contracts/token/ERC20/ERC20.sol\":4967:4972  value */\n      dup6\n        /* \"@openzeppelin/contracts/token/ERC20/ERC20.sol\":4947:4956  _transfer */\n      tag_112\n        /* \"@openzeppelin/contracts/token/ERC20/ERC20.sol\":4947:4973  _transfer(from, to, value) */\n      jump\t// in\n    tag_111:\n        /* \"@openzeppelin/contracts/token/ERC20/ERC20.sol\":4990:4994  true */\n      0x01\n        /* \"@openzeppelin/contracts/token/ERC20/ERC20.sol\":4983:4994  return true */\n      swap2\n      pop\n      pop\n        /* \"@openzeppelin/contracts/token/ERC20/ERC20.sol\":4757:5001  function transferFrom(address from, address to, uint256 value) public virtual returns (bool) {... */\n      swap4\n      swap3\n      pop\n      pop\n      pop\n      jump\t// out\n        /* \"@openzeppelin/contracts/token/ERC20/ERC20.sol\":2688:2770  function decimals() public view virtual returns (uint8) {... */\n    tag_45:\n        /* \"@openzeppelin/contracts/token/ERC20/ERC20.sol\":2737:2742  uint8 */\n      0x00\n        /* \"@openzeppelin/contracts/token/ERC20/ERC20.sol\":2761:2763  18 */\n      0x12\n        /* \"@openzeppelin/contracts/token/ERC20/ERC20.sol\":2754:2763  return 18 */\n      swap1\n      pop\n        /* \"@openzeppelin/contracts/token/ERC20/ERC20.sol\":2688:2770  function decimals() public view virtual returns (uint8) {... */\n      swap1\n      jump\t// out\n        /* \"SimpleSwap.sol\":4657:5637  function swapExactTokensForTokens(... */\n    tag_51:\n        /* \"SimpleSwap.sol\":4903:4924  uint[] memory amounts */\n      0x60\n        /* \"SimpleSwap.sol\":4967:4982  block.timestamp */\n      timestamp\n        /* \"SimpleSwap.sol\":4956:4964  deadline */\n      dup3\n        /* \"SimpleSwap.sol\":4956:4982  deadline>= block.timestamp */\n      lt\n      iszero\n        /* \"SimpleSwap.sol\":4948:5002  require(deadline>= block.timestamp, \"deadlineReached\") */\n      tag_115\n      jumpi\n      mload(0x40)\n      0x08c379a000000000000000000000000000000000000000000000000000000000\n      dup2\n      mstore\n      0x04\n      add\n      tag_116\n      swap1\n      tag_117\n      jump\t// in\n    tag_116:\n      mload(0x40)\n      dup1\n      swap2\n      sub\n      swap1\n      revert\n    tag_115:\n        /* \"SimpleSwap.sol\":5073:5085  ERC20 tokenA */\n      0x00\n        /* \"SimpleSwap.sol\":5094:5098  path */\n      dup6\n      dup6\n        /* \"SimpleSwap.sol\":5099:5100  0 */\n      0x00\n        /* \"SimpleSwap.sol\":5094:5101  path[0] */\n      dup2\n      dup2\n      lt\n      tag_118\n      jumpi\n      tag_119\n      tag_120\n      jump\t// in\n    tag_119:\n    tag_118:\n      swap1\n      pop\n      0x20\n      mul\n      add\n      0x20\n      dup2\n      add\n      swap1\n      tag_121\n      swap2\n      swap1\n      tag_56\n      jump\t// in\n    tag_121:\n        /* \"SimpleSwap.sol\":5073:5102  ERC20 tokenA = ERC20(path[0]) */\n      swap1\n      pop\n        /* \"SimpleSwap.sol\":5125:5137  ERC20 tokenB */\n      0x00\n        /* \"SimpleSwap.sol\":5146:5150  path */\n      dup7\n      dup7\n        /* \"SimpleSwap.sol\":5151:5152  1 */\n      0x01\n        /* \"SimpleSwap.sol\":5146:5153  path[1] */\n      dup2\n      dup2\n      lt\n      tag_122\n      jumpi\n      tag_123\n      tag_120\n      jump\t// in\n    tag_123:\n    tag_122:\n      swap1\n      pop\n      0x20\n      mul\n      add\n      0x20\n      dup2\n      add\n      swap1\n      tag_124\n      swap2\n      swap1\n      tag_56\n      jump\t// in\n    tag_124:\n        /* \"SimpleSwap.sol\":5125:5154  ERC20 tokenB = ERC20(path[1]) */\n      swap1\n      pop\n        /* \"SimpleSwap.sol\":5199:5216  uint256 amountOut */\n      0x00\n        /* \"SimpleSwap.sol\":5272:5278  tokenA */\n      dup3\n        /* \"SimpleSwap.sol\":5272:5288  tokenA.balanceOf */\n      0xffffffffffffffffffffffffffffffffffffffff\n      and\n      0x70a08231\n        /* \"SimpleSwap.sol\":5297:5301  this */\n      address\n        /* \"SimpleSwap.sol\":5272:5303  tokenA.balanceOf(address(this)) */\n      mload(0x40)\n      dup3\n      0xffffffff\n      and\n      0xe0\n      shl\n      dup2\n      mstore\n      0x04\n      add\n      tag_125\n      swap2\n      swap1\n      tag_126\n      jump\t// in\n    tag_125:\n      0x20\n      mload(0x40)\n      dup1\n      dup4\n      sub\n      dup2\n      dup7\n      gas\n      staticcall\n      iszero\n      dup1\n      iszero\n      tag_128\n      jumpi\n      returndatacopy(0x00, 0x00, returndatasize)\n      revert(0x00, returndatasize)\n    tag_128:\n      pop\n      pop\n      pop\n      pop\n      mload(0x40)\n      returndatasize\n      not(0x1f)\n      0x1f\n      dup3\n      add\n      and\n      dup3\n      add\n      dup1\n      0x40\n      mstore\n      pop\n      dup2\n      add\n      swap1\n      tag_129\n      swap2\n      swap1\n      tag_130\n      jump\t// in\n    tag_129:\n        /* \"SimpleSwap.sol\":5263:5271  amountIn */\n      dup11\n        /* \"SimpleSwap.sol\":5263:5303  amountIn+tokenA.balanceOf(address(this)) */\n      tag_131\n      swap2\n      swap1\n      tag_89\n      jump\t// in\n    tag_131:\n        /* \"SimpleSwap.sol\":5230:5236  tokenB */\n      dup3\n        /* \"SimpleSwap.sol\":5230:5246  tokenB.balanceOf */\n      0xffffffffffffffffffffffffffffffffffffffff\n      and\n      0x70a08231\n        /* \"SimpleSwap.sol\":5255:5259  this */\n      address\n        /* \"SimpleSwap.sol\":5230:5261  tokenB.balanceOf(address(this)) */\n      mload(0x40)\n      dup3\n      0xffffffff\n      and\n      0xe0\n      shl\n      dup2\n      mstore\n      0x04\n      add\n      tag_132\n      swap2\n      swap1\n      tag_126\n      jump\t// in\n    tag_132:\n      0x20\n      mload(0x40)\n      dup1\n      dup4\n      sub\n      dup2\n      dup7\n      gas\n      staticcall\n      iszero\n      dup1\n      iszero\n      tag_134\n      jumpi\n      returndatacopy(0x00, 0x00, returndatasize)\n      revert(0x00, returndatasize)\n    tag_134:\n      pop\n      pop\n      pop\n      pop\n      mload(0x40)\n      returndatasize\n      not(0x1f)\n      0x1f\n      dup3\n      add\n      and\n      dup3\n      add\n      dup1\n      0x40\n      mstore\n      pop\n      dup2\n      add\n      swap1\n      tag_135\n      swap2\n      swap1\n      tag_130\n      jump\t// in\n    tag_135:\n        /* \"SimpleSwap.sol\":5219:5227  amountIn */\n      dup12\n        /* \"SimpleSwap.sol\":5219:5261  amountIn * tokenB.balanceOf(address(this)) */\n      tag_136\n      swap2\n      swap1\n      tag_91\n      jump\t// in\n    tag_136:\n        /* \"SimpleSwap.sol\":5219:5304  amountIn * tokenB.balanceOf(address(this))/(amountIn+tokenA.balanceOf(address(this))) */\n      tag_137\n      swap2\n      swap1\n      tag_93\n      jump\t// in\n    tag_137:\n        /* \"SimpleSwap.sol\":5199:5304  uint256 amountOut = amountIn * tokenB.balanceOf(address(this))/(amountIn+tokenA.balanceOf(address(this))) */\n      swap1\n      pop\n        /* \"SimpleSwap.sol\":5346:5358  amountOutMin */\n      dup9\n        /* \"SimpleSwap.sol\":5335:5344  amountOut */\n      dup2\n        /* \"SimpleSwap.sol\":5335:5358  amountOut>=amountOutMin */\n      lt\n      iszero\n        /* \"SimpleSwap.sol\":5327:5359  require(amountOut>=amountOutMin) */\n      tag_138\n      jumpi\n      revert(0x00, 0x00)\n    tag_138:\n        /* \"SimpleSwap.sol\":5382:5388  tokenA */\n      dup3\n        /* \"SimpleSwap.sol\":5382:5401  tokenA.transferFrom */\n      0xffffffffffffffffffffffffffffffffffffffff\n      and\n      0x23b872dd\n        /* \"SimpleSwap.sol\":5402:5412  msg.sender */\n      caller\n        /* \"SimpleSwap.sol\":5422:5426  this */\n      address\n        /* \"SimpleSwap.sol\":5428:5429  0 */\n      0x00\n        /* \"SimpleSwap.sol\":5382:5430  tokenA.transferFrom(msg.sender, address(this),0) */\n      mload(0x40)\n      dup5\n      0xffffffff\n      and\n      0xe0\n      shl\n      dup2\n      mstore\n      0x04\n      add\n      tag_139\n      swap4\n      swap3\n      swap2\n      swap1\n      tag_140\n      jump\t// in\n    tag_139:\n      0x20\n      mload(0x40)\n      dup1\n      dup4\n      sub\n      dup2\n      0x00\n      dup8\n      gas\n      call\n      iszero\n      dup1\n      iszero\n      tag_142\n      jumpi\n      returndatacopy(0x00, 0x00, returndatasize)\n      revert(0x00, returndatasize)\n    tag_142:\n      pop\n      pop\n      pop\n      pop\n      mload(0x40)\n      returndatasize\n      not(0x1f)\n      0x1f\n      dup3\n      add\n      and\n      dup3\n      add\n      dup1\n      0x40\n      mstore\n      pop\n      dup2\n      add\n      swap1\n      tag_143\n      swap2\n      swap1\n      tag_144\n      jump\t// in\n    tag_143:\n      pop\n        /* \"SimpleSwap.sol\":5453:5459  tokenB */\n      dup2\n        /* \"SimpleSwap.sol\":5453:5468  tokenB.transfer */\n      0xffffffffffffffffffffffffffffffffffffffff\n      and\n      0xa9059cbb\n        /* \"SimpleSwap.sol\":5469:5471  to */\n      dup8\n        /* \"SimpleSwap.sol\":5473:5482  amountOut */\n      dup4\n        /* \"SimpleSwap.sol\":5453:5483  tokenB.transfer(to, amountOut) */\n      mload(0x40)\n      dup4\n      0xffffffff\n      and\n      0xe0\n      shl\n      dup2\n      mstore\n      0x04\n      add\n      tag_145\n      swap3\n      swap2\n      swap1\n      tag_146\n      jump\t// in\n    tag_145:\n      0x20\n      mload(0x40)\n      dup1\n      dup4\n      sub\n      dup2\n      0x00\n      dup8\n      gas\n      call\n      iszero\n      dup1\n      iszero\n      tag_148\n      jumpi\n      returndatacopy(0x00, 0x00, returndatasize)\n      revert(0x00, returndatasize)\n    tag_148:\n      pop\n      pop\n      pop\n      pop\n      mload(0x40)\n      returndatasize\n      not(0x1f)\n      0x1f\n      dup3\n      add\n      and\n      dup3\n      add\n      dup1\n      0x40\n      mstore\n      pop\n      dup2\n      add\n      swap1\n      tag_149\n      swap2\n      swap1\n      tag_144\n      jump\t// in\n    tag_149:\n      pop\n        /* \"SimpleSwap.sol\":5527:5528  2 */\n      0x02\n        /* \"SimpleSwap.sol\":5516:5529  new uint[](2) */\n      0xffffffffffffffff\n      dup2\n      gt\n      iszero\n      tag_150\n      jumpi\n      tag_151\n      tag_152\n      jump\t// in\n    tag_151:\n    tag_150:\n      mload(0x40)\n      swap1\n      dup1\n      dup3\n      mstore\n      dup1\n      0x20\n      mul\n      0x20\n      add\n      dup3\n      add\n      0x40\n      mstore\n      dup1\n      iszero\n      tag_153\n      jumpi\n      dup2\n      0x20\n      add\n      0x20\n      dup3\n      mul\n      dup1\n      calldatasize\n      dup4\n      calldatacopy\n      dup1\n      dup3\n      add\n      swap2\n      pop\n      pop\n      swap1\n      pop\n    tag_153:\n      pop\n        /* \"SimpleSwap.sol\":5506:5529  amounts = new uint[](2) */\n      swap4\n      pop\n        /* \"SimpleSwap.sol\":5565:5573  amountIn */\n      dup10\n        /* \"SimpleSwap.sol\":5552:5559  amounts */\n      dup5\n        /* \"SimpleSwap.sol\":5560:5561  0 */\n      0x00\n        /* \"SimpleSwap.sol\":5552:5562  amounts[0] */\n      dup2\n      mload\n      dup2\n      lt\n      tag_154\n      jumpi\n      tag_155\n      tag_120\n      jump\t// in\n    tag_155:\n    tag_154:\n      0x20\n      mul\n      0x20\n      add\n      add\n        /* \"SimpleSwap.sol\":5552:5573  amounts[0] = amountIn */\n      dup2\n      dup2\n      mstore\n      pop\n      pop\n        /* \"SimpleSwap.sol\":5608:5617  amountOut */\n      dup1\n        /* \"SimpleSwap.sol\":5596:5603  amounts */\n      dup5\n        /* \"SimpleSwap.sol\":5604:5605  1 */\n      0x01\n        /* \"SimpleSwap.sol\":5596:5606  amounts[1] */\n      dup2\n      mload\n      dup2\n      lt\n      tag_156\n      jumpi\n      tag_157\n      tag_120\n      jump\t// in\n    tag_157:\n    tag_156:\n      0x20\n      mul\n      0x20\n      add\n      add\n        /* \"SimpleSwap.sol\":5596:5617  amounts[1]= amountOut */\n      dup2\n      dup2\n      mstore\n      pop\n      pop\n        /* \"SimpleSwap.sol\":4925:5637  {... */\n      pop\n      pop\n      pop\n        /* \"SimpleSwap.sol\":4657:5637  function swapExactTokensForTokens(... */\n      swap7\n      swap6\n      pop\n      pop\n      pop\n      pop\n      pop\n      pop\n      jump\t// out\n        /* \"@openzeppelin/contracts/token/ERC20/ERC20.sol\":2985:3101  function balanceOf(address account) public view virtual returns (uint256) {... */\n    tag_57:\n        /* \"@openzeppelin/contracts/token/ERC20/ERC20.sol\":3050:3057  uint256 */\n      0x00\n        /* \"@openzeppelin/contracts/token/ERC20/ERC20.sol\":3076:3085  _balances */\n      0x00\n        /* \"@openzeppelin/contracts/token/ERC20/ERC20.sol\":3076:3094  _balances[account] */\n      0x00\n        /* \"@openzeppelin/contracts/token/ERC20/ERC20.sol\":3086:3093  account */\n      dup4\n        /* \"@openzeppelin/contracts/token/ERC20/ERC20.sol\":3076:3094  _balances[account] */\n      0xffffffffffffffffffffffffffffffffffffffff\n      and\n      0xffffffffffffffffffffffffffffffffffffffff\n      and\n      dup2\n      mstore\n      0x20\n      add\n      swap1\n      dup2\n      mstore\n      0x20\n      add\n      0x00\n      keccak256\n      sload\n        /* \"@openzeppelin/contracts/token/ERC20/ERC20.sol\":3069:3094  return _balances[account] */\n      swap1\n      pop\n        /* \"@openzeppelin/contracts/token/ERC20/ERC20.sol\":2985:3101  function balanceOf(address account) public view virtual returns (uint256) {... */\n      swap2\n      swap1\n      pop\n      jump\t// out\n        /* \"@openzeppelin/contracts/token/ERC20/ERC20.sol\":1962:2055  function symbol() public view virtual returns (string memory) {... */\n    tag_60:\n        /* \"@openzeppelin/contracts/token/ERC20/ERC20.sol\":2009:2022  string memory */\n      0x60\n        /* \"@openzeppelin/contracts/token/ERC20/ERC20.sol\":2041:2048  _symbol */\n      0x04\n        /* \"@openzeppelin/contracts/token/ERC20/ERC20.sol\":2034:2048  return _symbol */\n      dup1\n      sload\n      tag_160\n      swap1\n      tag_96\n      jump\t// in\n    tag_160:\n      dup1\n      0x1f\n      add\n      0x20\n      dup1\n      swap2\n      div\n      mul\n      0x20\n      add\n      mload(0x40)\n      swap1\n      dup2\n      add\n      0x40\n      mstore\n      dup1\n      swap3\n      swap2\n      swap1\n      dup2\n      dup2\n      mstore\n      0x20\n      add\n      dup3\n      dup1\n      sload\n      tag_161\n      swap1\n      tag_96\n      jump\t// in\n    tag_161:\n      dup1\n      iszero\n      tag_162\n      jumpi\n      dup1\n      0x1f\n      lt\n      tag_163\n      jumpi\n      0x0100\n      dup1\n      dup4\n      sload\n      div\n      mul\n      dup4\n      mstore\n      swap2\n      0x20\n      add\n      swap2\n      jump(tag_162)\n    tag_163:\n      dup3\n      add\n      swap2\n      swap1\n      0x00\n      mstore\n      keccak256(0x00, 0x20)\n      swap1\n    tag_164:\n      dup2\n      sload\n      dup2\n      mstore\n      swap1\n      0x01\n      add\n      swap1\n      0x20\n      add\n      dup1\n      dup4\n      gt\n      tag_164\n      jumpi\n      dup3\n      swap1\n      sub\n      0x1f\n      and\n      dup3\n      add\n      swap2\n    tag_162:\n      pop\n      pop\n      pop\n      pop\n      pop\n      swap1\n      pop\n        /* \"@openzeppelin/contracts/token/ERC20/ERC20.sol\":1962:2055  function symbol() public view virtual returns (string memory) {... */\n      swap1\n      jump\t// out\n        /* \"@openzeppelin/contracts/token/ERC20/ERC20.sol\":3296:3474  function transfer(address to, uint256 value) public virtual returns (bool) {... */\n    tag_64:\n        /* \"@openzeppelin/contracts/token/ERC20/ERC20.sol\":3365:3369  bool */\n      0x00\n        /* \"@openzeppelin/contracts/token/ERC20/ERC20.sol\":3381:3394  address owner */\n      0x00\n        /* \"@openzeppelin/contracts/token/ERC20/ERC20.sol\":3397:3409  _msgSender() */\n      tag_166\n        /* \"@openzeppelin/contracts/token/ERC20/ERC20.sol\":3397:3407  _msgSender */\n      tag_103\n        /* \"@openzeppelin/contracts/token/ERC20/ERC20.sol\":3397:3409  _msgSender() */\n      jump\t// in\n    tag_166:\n        /* \"@openzeppelin/contracts/token/ERC20/ERC20.sol\":3381:3409  address owner = _msgSender() */\n      swap1\n      pop\n        /* \"@openzeppelin/contracts/token/ERC20/ERC20.sol\":3419:3446  _transfer(owner, to, value) */\n      tag_167\n        /* \"@openzeppelin/contracts/token/ERC20/ERC20.sol\":3429:3434  owner */\n      dup2\n        /* \"@openzeppelin/contracts/token/ERC20/ERC20.sol\":3436:3438  to */\n      dup6\n        /* \"@openzeppelin/contracts/token/ERC20/ERC20.sol\":3440:3445  value */\n      dup6\n        /* \"@openzeppelin/contracts/token/ERC20/ERC20.sol\":3419:3428  _transfer */\n      tag_112\n        /* \"@openzeppelin/contracts/token/ERC20/ERC20.sol\":3419:3446  _transfer(owner, to, value) */\n      jump\t// in\n    tag_167:\n        /* \"@openzeppelin/contracts/token/ERC20/ERC20.sol\":3463:3467  true */\n      0x01\n        /* \"@openzeppelin/contracts/token/ERC20/ERC20.sol\":3456:3467  return true */\n      swap2\n      pop\n      pop\n        /* \"@openzeppelin/contracts/token/ERC20/ERC20.sol\":3296:3474  function transfer(address to, uint256 value) public virtual returns (bool) {... */\n      swap3\n      swap2\n      pop\n      pop\n      jump\t// out\n        /* \"SimpleSwap.sol\":5966:6326  function getPrice(address tokenA, address tokenB) public view returns (uint price){... */\n    tag_69:\n        /* \"SimpleSwap.sol\":6037:6047  uint price */\n      0x00\n        /* \"SimpleSwap.sol\":6119:6134  uint256 amount1 */\n      0x00\n        /* \"SimpleSwap.sol\":6143:6149  tokenA */\n      dup4\n        /* \"SimpleSwap.sol\":6137:6160  ERC20(tokenA).balanceOf */\n      0xffffffffffffffffffffffffffffffffffffffff\n      and\n      0x70a08231\n        /* \"SimpleSwap.sol\":6169:6173  this */\n      address\n        /* \"SimpleSwap.sol\":6137:6175  ERC20(tokenA).balanceOf(address(this)) */\n      mload(0x40)\n      dup3\n      0xffffffff\n      and\n      0xe0\n      shl\n      dup2\n      mstore\n      0x04\n      add\n      tag_169\n      swap2\n      swap1\n      tag_126\n      jump\t// in\n    tag_169:\n      0x20\n      mload(0x40)\n      dup1\n      dup4\n      sub\n      dup2\n      dup7\n      gas\n      staticcall\n      iszero\n      dup1\n      iszero\n      tag_171\n      jumpi\n      returndatacopy(0x00, 0x00, returndatasize)\n      revert(0x00, returndatasize)\n    tag_171:\n      pop\n      pop\n      pop\n      pop\n      mload(0x40)\n      returndatasize\n      not(0x1f)\n      0x1f\n      dup3\n      add\n      and\n      dup3\n      add\n      dup1\n      0x40\n      mstore\n      pop\n      dup2\n      add\n      swap1\n      tag_172\n      swap2\n      swap1\n      tag_130\n      jump\t// in\n    tag_172:\n        /* \"SimpleSwap.sol\":6119:6175  uint256 amount1 = ERC20(tokenA).balanceOf(address(this)) */\n      swap1\n      pop\n        /* \"SimpleSwap.sol\":6198:6213  uint256 amount2 */\n      0x00\n        /* \"SimpleSwap.sol\":6222:6228  tokenB */\n      dup4\n        /* \"SimpleSwap.sol\":6216:6239  ERC20(tokenB).balanceOf */\n      0xffffffffffffffffffffffffffffffffffffffff\n      and\n      0x70a08231\n        /* \"SimpleSwap.sol\":6248:6252  this */\n      address\n        /* \"SimpleSwap.sol\":6216:6254  ERC20(tokenB).balanceOf(address(this)) */\n      mload(0x40)\n      dup3\n      0xffffffff\n      and\n      0xe0\n      shl\n      dup2\n      mstore\n      0x04\n      add\n      tag_173\n      swap2\n      swap1\n      tag_126\n      jump\t// in\n    tag_173:\n      0x20\n      mload(0x40)\n      dup1\n      dup4\n      sub\n      dup2\n      dup7\n      gas\n      staticcall\n      iszero\n      dup1\n      iszero\n      tag_175\n      jumpi\n      returndatacopy(0x00, 0x00, returndatasize)\n      revert(0x00, returndatasize)\n    tag_175:\n      pop\n      pop\n      pop\n      pop\n      mload(0x40)\n      returndatasize\n      not(0x1f)\n      0x1f\n      dup3\n      add\n      and\n      dup3\n      add\n      dup1\n      0x40\n      mstore\n      pop\n      dup2\n      add\n      swap1\n      tag_176\n      swap2\n      swap1\n      tag_130\n      jump\t// in\n    tag_176:\n        /* \"SimpleSwap.sol\":6198:6254  uint256 amount2 = ERC20(tokenB).balanceOf(address(this)) */\n      swap1\n      pop\n        /* \"SimpleSwap.sol\":6299:6306  amount1 */\n      dup2\n        /* \"SimpleSwap.sol\":6293:6297  1e18 */\n      0x0de0b6b3a7640000\n        /* \"SimpleSwap.sol\":6285:6292  amount2 */\n      dup3\n        /* \"SimpleSwap.sol\":6285:6297  amount2*1e18 */\n      tag_177\n      swap2\n      swap1\n      tag_91\n      jump\t// in\n    tag_177:\n        /* \"SimpleSwap.sol\":6284:6306  (amount2*1e18)/amount1 */\n      tag_178\n      swap2\n      swap1\n      tag_93\n      jump\t// in\n    tag_178:\n        /* \"SimpleSwap.sol\":6277:6306  return (amount2*1e18)/amount1 */\n      swap3\n      pop\n      pop\n      pop\n        /* \"SimpleSwap.sol\":5966:6326  function getPrice(address tokenA, address tokenB) public view returns (uint price){... */\n      swap3\n      swap2\n      pop\n      pop\n      jump\t// out\n        /* \"SimpleSwap.sol\":3105:4031  function removeLiquidity(... */\n    tag_74:\n        /* \"SimpleSwap.sol\":3369:3381  uint amountA */\n      0x00\n        /* \"SimpleSwap.sol\":3383:3395  uint amountB */\n      0x00\n        /* \"SimpleSwap.sol\":3478:3493  block.timestamp */\n      timestamp\n        /* \"SimpleSwap.sol\":3467:3475  deadline */\n      dup4\n        /* \"SimpleSwap.sol\":3467:3493  deadline>= block.timestamp */\n      lt\n      iszero\n        /* \"SimpleSwap.sol\":3459:3513  require(deadline>= block.timestamp, \"deadlineReached\") */\n      tag_180\n      jumpi\n      mload(0x40)\n      0x08c379a000000000000000000000000000000000000000000000000000000000\n      dup2\n      mstore\n      0x04\n      add\n      tag_181\n      swap1\n      tag_117\n      jump\t// in\n    tag_181:\n      mload(0x40)\n      dup1\n      swap2\n      sub\n      swap1\n      revert\n    tag_180:\n        /* \"SimpleSwap.sol\":3532:3554  uint256 totalLiquidity */\n      0x00\n        /* \"SimpleSwap.sol\":3557:3570  totalSupply() */\n      tag_182\n        /* \"SimpleSwap.sol\":3557:3568  totalSupply */\n      tag_37\n        /* \"SimpleSwap.sol\":3557:3570  totalSupply() */\n      jump\t// in\n    tag_182:\n        /* \"SimpleSwap.sol\":3532:3570  uint256 totalLiquidity = totalSupply() */\n      swap1\n      pop\n        /* \"SimpleSwap.sol\":3652:3666  totalLiquidity */\n      dup1\n        /* \"SimpleSwap.sol\":3619:3625  tokenA */\n      dup11\n        /* \"SimpleSwap.sol\":3613:3636  ERC20(tokenA).balanceOf */\n      0xffffffffffffffffffffffffffffffffffffffff\n      and\n      0x70a08231\n        /* \"SimpleSwap.sol\":3645:3649  this */\n      address\n        /* \"SimpleSwap.sol\":3613:3651  ERC20(tokenA).balanceOf(address(this)) */\n      mload(0x40)\n      dup3\n      0xffffffff\n      and\n      0xe0\n      shl\n      dup2\n      mstore\n      0x04\n      add\n      tag_183\n      swap2\n      swap1\n      tag_126\n      jump\t// in\n    tag_183:\n      0x20\n      mload(0x40)\n      dup1\n      dup4\n      sub\n      dup2\n      dup7\n      gas\n      staticcall\n      iszero\n      dup1\n      iszero\n      tag_185\n      jumpi\n      returndatacopy(0x00, 0x00, returndatasize)\n      revert(0x00, returndatasize)\n    tag_185:\n      pop\n      pop\n      pop\n      pop\n      mload(0x40)\n      returndatasize\n      not(0x1f)\n      0x1f\n      dup3\n      add\n      and\n      dup3\n      add\n      dup1\n      0x40\n      mstore\n      pop\n      dup2\n      add\n      swap1\n      tag_186\n      swap2\n      swap1\n      tag_130\n      jump\t// in\n    tag_186:\n        /* \"SimpleSwap.sol\":3601:3610  liquidity */\n      dup10\n        /* \"SimpleSwap.sol\":3601:3651  liquidity * ERC20(tokenA).balanceOf(address(this)) */\n      tag_187\n      swap2\n      swap1\n      tag_91\n      jump\t// in\n    tag_187:\n        /* \"SimpleSwap.sol\":3601:3666  liquidity * ERC20(tokenA).balanceOf(address(this))/totalLiquidity */\n      tag_188\n      swap2\n      swap1\n      tag_93\n      jump\t// in\n    tag_188:\n        /* \"SimpleSwap.sol\":3591:3666  amountA = liquidity * ERC20(tokenA).balanceOf(address(this))/totalLiquidity */\n      swap3\n      pop\n        /* \"SimpleSwap.sol\":3746:3760  totalLiquidity */\n      dup1\n        /* \"SimpleSwap.sol\":3713:3719  tokenB */\n      dup10\n        /* \"SimpleSwap.sol\":3707:3730  ERC20(tokenB).balanceOf */\n      0xffffffffffffffffffffffffffffffffffffffff\n      and\n      0x70a08231\n        /* \"SimpleSwap.sol\":3739:3743  this */\n      address\n        /* \"SimpleSwap.sol\":3707:3745  ERC20(tokenB).balanceOf(address(this)) */\n      mload(0x40)\n      dup3\n      0xffffffff\n      and\n      0xe0\n      shl\n      dup2\n      mstore\n      0x04\n      add\n      tag_189\n      swap2\n      swap1\n      tag_126\n      jump\t// in\n    tag_189:\n      0x20\n      mload(0x40)\n      dup1\n      dup4\n      sub\n      dup2\n      dup7\n      gas\n      staticcall\n      iszero\n      dup1\n      iszero\n      tag_191\n      jumpi\n      returndatacopy(0x00, 0x00, returndatasize)\n      revert(0x00, returndatasize)\n    tag_191:\n      pop\n      pop\n      pop\n      pop\n      mload(0x40)\n      returndatasize\n      not(0x1f)\n      0x1f\n      dup3\n      add\n      and\n      dup3\n      add\n      dup1\n      0x40\n      mstore\n      pop\n      dup2\n      add\n      swap1\n      tag_192\n      swap2\n      swap1\n      tag_130\n      jump\t// in\n    tag_192:\n        /* \"SimpleSwap.sol\":3695:3704  liquidity */\n      dup10\n        /* \"SimpleSwap.sol\":3695:3745  liquidity * ERC20(tokenB).balanceOf(address(this)) */\n      tag_193\n      swap2\n      swap1\n      tag_91\n      jump\t// in\n    tag_193:\n        /* \"SimpleSwap.sol\":3695:3760  liquidity * ERC20(tokenB).balanceOf(address(this))/totalLiquidity */\n      tag_194\n      swap2\n      swap1\n      tag_93\n      jump\t// in\n    tag_194:\n        /* \"SimpleSwap.sol\":3685:3760  amountB = liquidity * ERC20(tokenB).balanceOf(address(this))/totalLiquidity */\n      swap2\n      pop\n        /* \"SimpleSwap.sol\":3801:3808  amountA */\n      dup3\n        /* \"SimpleSwap.sol\":3789:3799  amountAMin */\n      dup8\n        /* \"SimpleSwap.sol\":3789:3808  amountAMin<=amountA */\n      gt\n      iszero\n        /* \"SimpleSwap.sol\":3781:3809  require(amountAMin<=amountA) */\n      tag_195\n      jumpi\n      revert(0x00, 0x00)\n    tag_195:\n        /* \"SimpleSwap.sol\":3849:3856  amountB */\n      dup2\n        /* \"SimpleSwap.sol\":3836:3846  amountBMin */\n      dup7\n        /* \"SimpleSwap.sol\":3836:3856  amountBMin <=amountB */\n      gt\n      iszero\n        /* \"SimpleSwap.sol\":3828:3857  require(amountBMin <=amountB) */\n      tag_196\n      jumpi\n      revert(0x00, 0x00)\n    tag_196:\n        /* \"SimpleSwap.sol\":3878:3906  _burn(msg.sender, liquidity) */\n      tag_197\n        /* \"SimpleSwap.sol\":3884:3894  msg.sender */\n      caller\n        /* \"SimpleSwap.sol\":3896:3905  liquidity */\n      dup10\n        /* \"SimpleSwap.sol\":3878:3883  _burn */\n      tag_198\n        /* \"SimpleSwap.sol\":3878:3906  _burn(msg.sender, liquidity) */\n      jump\t// in\n    tag_197:\n        /* \"SimpleSwap.sol\":3931:3937  tokenA */\n      dup10\n        /* \"SimpleSwap.sol\":3925:3947  ERC20(tokenA).transfer */\n      0xffffffffffffffffffffffffffffffffffffffff\n      and\n      0xa9059cbb\n        /* \"SimpleSwap.sol\":3948:3950  to */\n      dup7\n        /* \"SimpleSwap.sol\":3952:3959  amountA */\n      dup6\n        /* \"SimpleSwap.sol\":3925:3960  ERC20(tokenA).transfer(to, amountA) */\n      mload(0x40)\n      dup4\n      0xffffffff\n      and\n      0xe0\n      shl\n      dup2\n      mstore\n      0x04\n      add\n      tag_199\n      swap3\n      swap2\n      swap1\n      tag_146\n      jump\t// in\n    tag_199:\n      0x20\n      mload(0x40)\n      dup1\n      dup4\n      sub\n      dup2\n      0x00\n      dup8\n      gas\n      call\n      iszero\n      dup1\n      iszero\n      tag_201\n      jumpi\n      returndatacopy(0x00, 0x00, returndatasize)\n      revert(0x00, returndatasize)\n    tag_201:\n      pop\n      pop\n      pop\n      pop\n      mload(0x40)\n      returndatasize\n      not(0x1f)\n      0x1f\n      dup3\n      add\n      and\n      dup3\n      add\n      dup1\n      0x40\n      mstore\n      pop\n      dup2\n      add\n      swap1\n      tag_202\n      swap2\n      swap1\n      tag_144\n      jump\t// in\n    tag_202:\n      pop\n        /* \"SimpleSwap.sol\":3985:3991  tokenB */\n      dup9\n        /* \"SimpleSwap.sol\":3979:4001  ERC20(tokenB).transfer */\n      0xffffffffffffffffffffffffffffffffffffffff\n      and\n      0xa9059cbb\n        /* \"SimpleSwap.sol\":4002:4004  to */\n      dup7\n        /* \"SimpleSwap.sol\":4005:4012  amountB */\n      dup5\n        /* \"SimpleSwap.sol\":3979:4013  ERC20(tokenB).transfer(to,amountB) */\n      mload(0x40)\n      dup4\n      0xffffffff\n      and\n      0xe0\n      shl\n      dup2\n      mstore\n      0x04\n      add\n      tag_203\n      swap3\n      swap2\n      swap1\n      tag_146\n      jump\t// in\n    tag_203:\n      0x20\n      mload(0x40)\n      dup1\n      dup4\n      sub\n      dup2\n      0x00\n      dup8\n      gas\n      call\n      iszero\n      dup1\n      iszero\n      tag_205\n      jumpi\n      returndatacopy(0x00, 0x00, returndatasize)\n      revert(0x00, returndatasize)\n    tag_205:\n      pop\n      pop\n      pop\n      pop\n      mload(0x40)\n      returndatasize\n      not(0x1f)\n      0x1f\n      dup3\n      add\n      and\n      dup3\n      add\n      dup1\n      0x40\n      mstore\n      pop\n      dup2\n      add\n      swap1\n      tag_206\n      swap2\n      swap1\n      tag_144\n      jump\t// in\n    tag_206:\n      pop\n        /* \"SimpleSwap.sol\":3396:4031  {... */\n      pop\n        /* \"SimpleSwap.sol\":3105:4031  function removeLiquidity(... */\n      swap8\n      pop\n      swap8\n      swap6\n      pop\n      pop\n      pop\n      pop\n      pop\n      pop\n      jump\t// out\n        /* \"@openzeppelin/contracts/token/ERC20/ERC20.sol\":3532:3672  function allowance(address owner, address spender) public view virtual returns (uint256) {... */\n    tag_79:\n        /* \"@openzeppelin/contracts/token/ERC20/ERC20.sol\":3612:3619  uint256 */\n      0x00\n        /* \"@openzeppelin/contracts/token/ERC20/ERC20.sol\":3638:3649  _allowances */\n      0x01\n        /* \"@openzeppelin/contracts/token/ERC20/ERC20.sol\":3638:3656  _allowances[owner] */\n      0x00\n        /* \"@openzeppelin/contracts/token/ERC20/ERC20.sol\":3650:3655  owner */\n      dup5\n        /* \"@openzeppelin/contracts/token/ERC20/ERC20.sol\":3638:3656  _allowances[owner] */\n      0xffffffffffffffffffffffffffffffffffffffff\n      and\n      0xffffffffffffffffffffffffffffffffffffffff\n      and\n      dup2\n      mstore\n      0x20\n      add\n      swap1\n      dup2\n      mstore\n      0x20\n      add\n      0x00\n      keccak256\n        /* \"@openzeppelin/contracts/token/ERC20/ERC20.sol\":3638:3665  _allowances[owner][spender] */\n      0x00\n        /* \"@openzeppelin/contracts/token/ERC20/ERC20.sol\":3657:3664  spender */\n      dup4\n        /* \"@openzeppelin/contracts/token/ERC20/ERC20.sol\":3638:3665  _allowances[owner][spender] */\n      0xffffffffffffffffffffffffffffffffffffffff\n      and\n      0xffffffffffffffffffffffffffffffffffffffff\n      and\n      dup2\n      mstore\n      0x20\n      add\n      swap1\n      dup2\n      mstore\n      0x20\n      add\n      0x00\n      keccak256\n      sload\n        /* \"@openzeppelin/contracts/token/ERC20/ERC20.sol\":3631:3665  return _allowances[owner][spender] */\n      swap1\n      pop\n        /* \"@openzeppelin/contracts/token/ERC20/ERC20.sol\":3532:3672  function allowance(address owner, address spender) public view virtual returns (uint256) {... */\n      swap3\n      swap2\n      pop\n      pop\n      jump\t// out\n        /* \"SimpleSwap.sol\":944:2342  function addLiquidity(... */\n    tag_84:\n        /* \"SimpleSwap.sol\":1208:1220  uint amountA */\n      0x00\n        /* \"SimpleSwap.sol\":1222:1234  uint amountB */\n      0x00\n        /* \"SimpleSwap.sol\":1236:1250  uint liquidity */\n      0x00\n        /* \"SimpleSwap.sol\":1285:1300  block.timestamp */\n      timestamp\n        /* \"SimpleSwap.sol\":1274:1282  deadline */\n      dup5\n        /* \"SimpleSwap.sol\":1274:1300  deadline >=block.timestamp */\n      lt\n      iszero\n        /* \"SimpleSwap.sol\":1266:1320  require(deadline >=block.timestamp,\"deadlineReached\" ) */\n      tag_209\n      jumpi\n      mload(0x40)\n      0x08c379a000000000000000000000000000000000000000000000000000000000\n      dup2\n      mstore\n      0x04\n      add\n      tag_210\n      swap1\n      tag_117\n      jump\t// in\n    tag_210:\n      mload(0x40)\n      dup1\n      swap2\n      sub\n      swap1\n      revert\n    tag_209:\n        /* \"SimpleSwap.sol\":1347:1360  totalSupply() */\n      tag_211\n        /* \"SimpleSwap.sol\":1347:1358  totalSupply */\n      tag_37\n        /* \"SimpleSwap.sol\":1347:1360  totalSupply() */\n      jump\t// in\n    tag_211:\n        /* \"SimpleSwap.sol\":1335:1360  liquidity = totalSupply() */\n      swap1\n      pop\n        /* \"SimpleSwap.sol\":1390:1391  0 */\n      0x00\n        /* \"SimpleSwap.sol\":1378:1387  liquidity */\n      dup2\n        /* \"SimpleSwap.sol\":1378:1391  liquidity > 0 */\n      gt\n        /* \"SimpleSwap.sol\":1375:2056  if(liquidity > 0){... */\n      iszero\n      tag_212\n      jumpi\n        /* \"SimpleSwap.sol\":1411:1421  uint256 l1 */\n      0x00\n        /* \"SimpleSwap.sol\":1459:1465  tokenA */\n      dup12\n        /* \"SimpleSwap.sol\":1453:1476  ERC20(tokenA).balanceOf */\n      0xffffffffffffffffffffffffffffffffffffffff\n      and\n      0x70a08231\n        /* \"SimpleSwap.sol\":1485:1489  this */\n      address\n        /* \"SimpleSwap.sol\":1453:1491  ERC20(tokenA).balanceOf(address(this)) */\n      mload(0x40)\n      dup3\n      0xffffffff\n      and\n      0xe0\n      shl\n      dup2\n      mstore\n      0x04\n      add\n      tag_213\n      swap2\n      swap1\n      tag_126\n      jump\t// in\n    tag_213:\n      0x20\n      mload(0x40)\n      dup1\n      dup4\n      sub\n      dup2\n      dup7\n      gas\n      staticcall\n      iszero\n      dup1\n      iszero\n      tag_215\n      jumpi\n      returndatacopy(0x00, 0x00, returndatasize)\n      revert(0x00, returndatasize)\n    tag_215:\n      pop\n      pop\n      pop\n      pop\n      mload(0x40)\n      returndatasize\n      not(0x1f)\n      0x1f\n      dup3\n      add\n      and\n      dup3\n      add\n      dup1\n      0x40\n      mstore\n      pop\n      dup2\n      add\n      swap1\n      tag_216\n      swap2\n      swap1\n      tag_130\n      jump\t// in\n    tag_216:\n        /* \"SimpleSwap.sol\":1441:1450  liquidity */\n      dup3\n        /* \"SimpleSwap.sol\":1424:1438  amountADesired */\n      dup12\n        /* \"SimpleSwap.sol\":1424:1450  amountADesired * liquidity */\n      tag_217\n      swap2\n      swap1\n      tag_91\n      jump\t// in\n    tag_217:\n        /* \"SimpleSwap.sol\":1423:1491  (amountADesired * liquidity)/ ERC20(tokenA).balanceOf(address(this)) */\n      tag_218\n      swap2\n      swap1\n      tag_93\n      jump\t// in\n    tag_218:\n        /* \"SimpleSwap.sol\":1411:1491  uint256 l1= (amountADesired * liquidity)/ ERC20(tokenA).balanceOf(address(this)) */\n      swap1\n      pop\n        /* \"SimpleSwap.sol\":1510:1520  uint256 l2 */\n      0x00\n        /* \"SimpleSwap.sol\":1558:1564  tokenB */\n      dup12\n        /* \"SimpleSwap.sol\":1552:1575  ERC20(tokenB).balanceOf */\n      0xffffffffffffffffffffffffffffffffffffffff\n      and\n      0x70a08231\n        /* \"SimpleSwap.sol\":1584:1588  this */\n      address\n        /* \"SimpleSwap.sol\":1552:1590  ERC20(tokenB).balanceOf(address(this)) */\n      mload(0x40)\n      dup3\n      0xffffffff\n      and\n      0xe0\n      shl\n      dup2\n      mstore\n      0x04\n      add\n      tag_219\n      swap2\n      swap1\n      tag_126\n      jump\t// in\n    tag_219:\n      0x20\n      mload(0x40)\n      dup1\n      dup4\n      sub\n      dup2\n      dup7\n      gas\n      staticcall\n      iszero\n      dup1\n      iszero\n      tag_221\n      jumpi\n      returndatacopy(0x00, 0x00, returndatasize)\n      revert(0x00, returndatasize)\n    tag_221:\n      pop\n      pop\n      pop\n      pop\n      mload(0x40)\n      returndatasize\n      not(0x1f)\n      0x1f\n      dup3\n      add\n      and\n      dup3\n      add\n      dup1\n      0x40\n      mstore\n      pop\n      dup2\n      add\n      swap1\n      tag_222\n      swap2\n      swap1\n      tag_130\n      jump\t// in\n    tag_222:\n        /* \"SimpleSwap.sol\":1540:1549  liquidity */\n      dup4\n        /* \"SimpleSwap.sol\":1523:1537  amountBDesired */\n      dup12\n        /* \"SimpleSwap.sol\":1523:1549  amountBDesired * liquidity */\n      tag_223\n      swap2\n      swap1\n      tag_91\n      jump\t// in\n    tag_223:\n        /* \"SimpleSwap.sol\":1522:1590  (amountBDesired * liquidity)/ ERC20(tokenB).balanceOf(address(this)) */\n      tag_224\n      swap2\n      swap1\n      tag_93\n      jump\t// in\n    tag_224:\n        /* \"SimpleSwap.sol\":1510:1590  uint256 l2= (amountBDesired * liquidity)/ ERC20(tokenB).balanceOf(address(this)) */\n      swap1\n      pop\n        /* \"SimpleSwap.sol\":1617:1619  l2 */\n      dup1\n        /* \"SimpleSwap.sol\":1612:1614  l1 */\n      dup3\n        /* \"SimpleSwap.sol\":1612:1619  l1 < l2 */\n      lt\n        /* \"SimpleSwap.sol\":1609:1890  if(l1 < l2) {... */\n      iszero\n      tag_225\n      jumpi\n        /* \"SimpleSwap.sol\":1654:1668  amountADesired */\n      dup11\n        /* \"SimpleSwap.sol\":1644:1668  amountA = amountADesired */\n      swap5\n      pop\n        /* \"SimpleSwap.sol\":1726:1733  amountA */\n      dup5\n        /* \"SimpleSwap.sol\":1701:1725  getPrice(tokenA, tokenB) */\n      tag_226\n        /* \"SimpleSwap.sol\":1710:1716  tokenA */\n      dup15\n        /* \"SimpleSwap.sol\":1718:1724  tokenB */\n      dup15\n        /* \"SimpleSwap.sol\":1701:1709  getPrice */\n      tag_69\n        /* \"SimpleSwap.sol\":1701:1725  getPrice(tokenA, tokenB) */\n      jump\t// in\n    tag_226:\n        /* \"SimpleSwap.sol\":1701:1733  getPrice(tokenA, tokenB)*amountA */\n      tag_227\n      swap2\n      swap1\n      tag_91\n      jump\t// in\n    tag_227:\n        /* \"SimpleSwap.sol\":1691:1733  amountB = getPrice(tokenA, tokenB)*amountA */\n      swap4\n      pop\n        /* \"SimpleSwap.sol\":1609:1890  if(l1 < l2) {... */\n      jump(tag_228)\n    tag_225:\n        /* \"SimpleSwap.sol\":1791:1805  amountBDesired */\n      dup10\n        /* \"SimpleSwap.sol\":1781:1805  amountB = amountBDesired */\n      swap4\n      pop\n        /* \"SimpleSwap.sol\":1863:1870  amountB */\n      dup4\n        /* \"SimpleSwap.sol\":1838:1862  getPrice(tokenB, tokenA) */\n      tag_229\n        /* \"SimpleSwap.sol\":1847:1853  tokenB */\n      dup14\n        /* \"SimpleSwap.sol\":1855:1861  tokenA */\n      dup16\n        /* \"SimpleSwap.sol\":1838:1846  getPrice */\n      tag_69\n        /* \"SimpleSwap.sol\":1838:1862  getPrice(tokenB, tokenA) */\n      jump\t// in\n    tag_229:\n        /* \"SimpleSwap.sol\":1838:1870  getPrice(tokenB, tokenA)*amountB */\n      tag_230\n      swap2\n      swap1\n      tag_91\n      jump\t// in\n    tag_230:\n        /* \"SimpleSwap.sol\":1828:1870  amountA = getPrice(tokenB, tokenA)*amountB */\n      swap5\n      pop\n        /* \"SimpleSwap.sol\":1609:1890  if(l1 < l2) {... */\n    tag_228:\n        /* \"SimpleSwap.sol\":1392:1905  {... */\n      pop\n      pop\n        /* \"SimpleSwap.sol\":1375:2056  if(liquidity > 0){... */\n      jump(tag_231)\n    tag_212:\n        /* \"SimpleSwap.sol\":1940:1954  amountADesired */\n      dup9\n        /* \"SimpleSwap.sol\":1928:1954  liquidity = amountADesired */\n      swap1\n      pop\n        /* \"SimpleSwap.sol\":1983:1997  amountADesired */\n      dup9\n        /* \"SimpleSwap.sol\":1973:1997  amountA = amountADesired */\n      swap3\n      pop\n        /* \"SimpleSwap.sol\":2026:2040  amountBDesired */\n      dup8\n        /* \"SimpleSwap.sol\":2016:2040  amountB = amountBDesired */\n      swap2\n      pop\n        /* \"SimpleSwap.sol\":1375:2056  if(liquidity > 0){... */\n    tag_231:\n        /* \"SimpleSwap.sol\":2090:2097  amountA */\n      dup3\n        /* \"SimpleSwap.sol\":2078:2088  amountAMin */\n      dup8\n        /* \"SimpleSwap.sol\":2078:2097  amountAMin<=amountA */\n      gt\n      iszero\n        /* \"SimpleSwap.sol\":2070:2098  require(amountAMin<=amountA) */\n      tag_232\n      jumpi\n      revert(0x00, 0x00)\n    tag_232:\n        /* \"SimpleSwap.sol\":2134:2141  amountB */\n      dup2\n        /* \"SimpleSwap.sol\":2121:2131  amountBMin */\n      dup7\n        /* \"SimpleSwap.sol\":2121:2141  amountBMin <=amountB */\n      gt\n      iszero\n        /* \"SimpleSwap.sol\":2113:2142  require(amountBMin <=amountB) */\n      tag_233\n      jumpi\n      revert(0x00, 0x00)\n    tag_233:\n        /* \"SimpleSwap.sol\":2163:2169  tokenA */\n      dup11\n        /* \"SimpleSwap.sol\":2157:2183  ERC20(tokenA).transferFrom */\n      0xffffffffffffffffffffffffffffffffffffffff\n      and\n      0x23b872dd\n        /* \"SimpleSwap.sol\":2184:2194  msg.sender */\n      caller\n        /* \"SimpleSwap.sol\":2204:2208  this */\n      address\n        /* \"SimpleSwap.sol\":2210:2217  amountA */\n      dup7\n        /* \"SimpleSwap.sol\":2157:2218  ERC20(tokenA).transferFrom(msg.sender, address(this),amountA) */\n      mload(0x40)\n      dup5\n      0xffffffff\n      and\n      0xe0\n      shl\n      dup2\n      mstore\n      0x04\n      add\n      tag_234\n      swap4\n      swap3\n      swap2\n      swap1\n      tag_235\n      jump\t// in\n    tag_234:\n      0x20\n      mload(0x40)\n      dup1\n      dup4\n      sub\n      dup2\n      0x00\n      dup8\n      gas\n      call\n      iszero\n      dup1\n      iszero\n      tag_237\n      jumpi\n      returndatacopy(0x00, 0x00, returndatasize)\n      revert(0x00, returndatasize)\n    tag_237:\n      pop\n      pop\n      pop\n      pop\n      mload(0x40)\n      returndatasize\n      not(0x1f)\n      0x1f\n      dup3\n      add\n      and\n      dup3\n      add\n      dup1\n      0x40\n      mstore\n      pop\n      dup2\n      add\n      swap1\n      tag_238\n      swap2\n      swap1\n      tag_144\n      jump\t// in\n    tag_238:\n      pop\n        /* \"SimpleSwap.sol\":2239:2245  tokenB */\n      dup10\n        /* \"SimpleSwap.sol\":2233:2259  ERC20(tokenB).transferFrom */\n      0xffffffffffffffffffffffffffffffffffffffff\n      and\n      0x23b872dd\n        /* \"SimpleSwap.sol\":2260:2270  msg.sender */\n      caller\n        /* \"SimpleSwap.sol\":2280:2284  this */\n      address\n        /* \"SimpleSwap.sol\":2287:2294  amountB */\n      dup6\n        /* \"SimpleSwap.sol\":2233:2295  ERC20(tokenB).transferFrom(msg.sender, address(this), amountB) */\n      mload(0x40)\n      dup5\n      0xffffffff\n      and\n      0xe0\n      shl\n      dup2\n      mstore\n      0x04\n      add\n      tag_239\n      swap4\n      swap3\n      swap2\n      swap1\n      tag_235\n      jump\t// in\n    tag_239:\n      0x20\n      mload(0x40)\n      dup1\n      dup4\n      sub\n      dup2\n      0x00\n      dup8\n      gas\n      call\n      iszero\n      dup1\n      iszero\n      tag_241\n      jumpi\n      returndatacopy(0x00, 0x00, returndatasize)\n      revert(0x00, returndatasize)\n    tag_241:\n      pop\n      pop\n      pop\n      pop\n      mload(0x40)\n      returndatasize\n      not(0x1f)\n      0x1f\n      dup3\n      add\n      and\n      dup3\n      add\n      dup1\n      0x40\n      mstore\n      pop\n      dup2\n      add\n      swap1\n      tag_242\n      swap2\n      swap1\n      tag_144\n      jump\t// in\n    tag_242:\n      pop\n        /* \"SimpleSwap.sol\":2310:2330  _mint(to, liquidity) */\n      tag_243\n        /* \"SimpleSwap.sol\":2316:2318  to */\n      dup6\n        /* \"SimpleSwap.sol\":2320:2329  liquidity */\n      dup3\n        /* \"SimpleSwap.sol\":2310:2315  _mint */\n      tag_244\n        /* \"SimpleSwap.sol\":2310:2330  _mint(to, liquidity) */\n      jump\t// in\n    tag_243:\n        /* \"SimpleSwap.sol\":944:2342  function addLiquidity(... */\n      swap9\n      pop\n      swap9\n      pop\n      swap9\n      swap6\n      pop\n      pop\n      pop\n      pop\n      pop\n      pop\n      jump\t// out\n        /* \"@openzeppelin/contracts/utils/Context.sol\":656:752  function _msgSender() internal view virtual returns (address) {... */\n    tag_103:\n        /* \"@openzeppelin/contracts/utils/Context.sol\":709:716  address */\n      0x00\n        /* \"@openzeppelin/contracts/utils/Context.sol\":735:745  msg.sender */\n      caller\n        /* \"@openzeppelin/contracts/utils/Context.sol\":728:745  return msg.sender */\n      swap1\n      pop\n        /* \"@openzeppelin/contracts/utils/Context.sol\":656:752  function _msgSender() internal view virtual returns (address) {... */\n      swap1\n      jump\t// out\n        /* \"@openzeppelin/contracts/token/ERC20/ERC20.sol\":8707:8835  function _approve(address owner, address spender, uint256 value) internal {... */\n    tag_105:\n        /* \"@openzeppelin/contracts/token/ERC20/ERC20.sol\":8791:8828  _approve(owner, spender, value, true) */\n      tag_247\n        /* \"@openzeppelin/contracts/token/ERC20/ERC20.sol\":8800:8805  owner */\n      dup4\n        /* \"@openzeppelin/contracts/token/ERC20/ERC20.sol\":8807:8814  spender */\n      dup4\n        /* \"@openzeppelin/contracts/token/ERC20/ERC20.sol\":8816:8821  value */\n      dup4\n        /* \"@openzeppelin/contracts/token/ERC20/ERC20.sol\":8823:8827  true */\n      0x01\n        /* \"@openzeppelin/contracts/token/ERC20/ERC20.sol\":8791:8799  _approve */\n      tag_248\n        /* \"@openzeppelin/contracts/token/ERC20/ERC20.sol\":8791:8828  _approve(owner, spender, value, true) */\n      jump\t// in\n    tag_247:\n        /* \"@openzeppelin/contracts/token/ERC20/ERC20.sol\":8707:8835  function _approve(address owner, address spender, uint256 value) internal {... */\n      pop\n      pop\n      pop\n      jump\t// out\n        /* \"@openzeppelin/contracts/token/ERC20/ERC20.sol\":10396:10872  function _spendAllowance(address owner, address spender, uint256 value) internal virtual {... */\n    tag_110:\n        /* \"@openzeppelin/contracts/token/ERC20/ERC20.sol\":10495:10519  uint256 currentAllowance */\n      0x00\n        /* \"@openzeppelin/contracts/token/ERC20/ERC20.sol\":10522:10547  allowance(owner, spender) */\n      tag_250\n        /* \"@openzeppelin/contracts/token/ERC20/ERC20.sol\":10532:10537  owner */\n      dup5\n        /* \"@openzeppelin/contracts/token/ERC20/ERC20.sol\":10539:10546  spender */\n      dup5\n        /* \"@openzeppelin/contracts/token/ERC20/ERC20.sol\":10522:10531  allowance */\n      tag_79\n        /* \"@openzeppelin/contracts/token/ERC20/ERC20.sol\":10522:10547  allowance(owner, spender) */\n      jump\t// in\n    tag_250:\n        /* \"@openzeppelin/contracts/token/ERC20/ERC20.sol\":10495:10547  uint256 currentAllowance = allowance(owner, spender) */\n      swap1\n      pop\n        /* \"@openzeppelin/contracts/token/ERC20/ERC20.sol\":10580:10597  type(uint256).max */\n      0xffffffffffffffffffffffffffffffffffffffffffffffffffffffffffffffff\n        /* \"@openzeppelin/contracts/token/ERC20/ERC20.sol\":10561:10577  currentAllowance */\n      dup2\n        /* \"@openzeppelin/contracts/token/ERC20/ERC20.sol\":10561:10597  currentAllowance < type(uint256).max */\n      lt\n        /* \"@openzeppelin/contracts/token/ERC20/ERC20.sol\":10557:10866  if (currentAllowance < type(uint256).max) {... */\n      iszero\n      tag_251\n      jumpi\n        /* \"@openzeppelin/contracts/token/ERC20/ERC20.sol\":10636:10641  value */\n      dup2\n        /* \"@openzeppelin/contracts/token/ERC20/ERC20.sol\":10617:10633  currentAllowance */\n      dup2\n        /* \"@openzeppelin/contracts/token/ERC20/ERC20.sol\":10617:10641  currentAllowance < value */\n      lt\n        /* \"@openzeppelin/contracts/token/ERC20/ERC20.sol\":10613:10743  if (currentAllowance < value) {... */\n      iszero\n      tag_252\n      jumpi\n        /* \"@openzeppelin/contracts/token/ERC20/ERC20.sol\":10695:10702  spender */\n      dup3\n        /* \"@openzeppelin/contracts/token/ERC20/ERC20.sol\":10704:10720  currentAllowance */\n      dup2\n        /* \"@openzeppelin/contracts/token/ERC20/ERC20.sol\":10722:10727  value */\n      dup4\n        /* \"@openzeppelin/contracts/token/ERC20/ERC20.sol\":10668:10728  ERC20InsufficientAllowance(spender, currentAllowance, value) */\n      mload(0x40)\n      0xfb8f41b200000000000000000000000000000000000000000000000000000000\n      dup2\n      mstore\n      0x04\n      add\n      tag_253\n      swap4\n      swap3\n      swap2\n      swap1\n      tag_254\n      jump\t// in\n    tag_253:\n      mload(0x40)\n      dup1\n      swap2\n      sub\n      swap1\n      revert\n        /* \"@openzeppelin/contracts/token/ERC20/ERC20.sol\":10613:10743  if (currentAllowance < value) {... */\n    tag_252:\n        /* \"@openzeppelin/contracts/token/ERC20/ERC20.sol\":10784:10841  _approve(owner, spender, currentAllowance - value, false) */\n      tag_255\n        /* \"@openzeppelin/contracts/token/ERC20/ERC20.sol\":10793:10798  owner */\n      dup5\n        /* \"@openzeppelin/contracts/token/ERC20/ERC20.sol\":10800:10807  spender */\n      dup5\n        /* \"@openzeppelin/contracts/token/ERC20/ERC20.sol\":10828:10833  value */\n      dup5\n        /* \"@openzeppelin/contracts/token/ERC20/ERC20.sol\":10809:10825  currentAllowance */\n      dup5\n        /* \"@openzeppelin/contracts/token/ERC20/ERC20.sol\":10809:10833  currentAllowance - value */\n      sub\n        /* \"@openzeppelin/contracts/token/ERC20/ERC20.sol\":10835:10840  false */\n      0x00\n        /* \"@openzeppelin/contracts/token/ERC20/ERC20.sol\":10784:10792  _approve */\n      tag_248\n        /* \"@openzeppelin/contracts/token/ERC20/ERC20.sol\":10784:10841  _approve(owner, spender, currentAllowance - value, false) */\n      jump\t// in\n    tag_255:\n        /* \"@openzeppelin/contracts/token/ERC20/ERC20.sol\":10557:10866  if (currentAllowance < type(uint256).max) {... */\n    tag_251:\n        /* \"@openzeppelin/contracts/token/ERC20/ERC20.sol\":10485:10872  {... */\n      pop\n        /* \"@openzeppelin/contracts/token/ERC20/ERC20.sol\":10396:10872  function _spendAllowance(address owner, address spender, uint256 value) internal virtual {... */\n      pop\n      pop\n      pop\n      jump\t// out\n        /* \"@openzeppelin/contracts/token/ERC20/ERC20.sol\":5374:5674  function _transfer(address from, address to, uint256 value) internal {... */\n    tag_112:\n        /* \"@openzeppelin/contracts/token/ERC20/ERC20.sol\":5473:5474  0 */\n      0x00\n        /* \"@openzeppelin/contracts/token/ERC20/ERC20.sol\":5457:5475  from == address(0) */\n      0xffffffffffffffffffffffffffffffffffffffff\n      and\n        /* \"@openzeppelin/contracts/token/ERC20/ERC20.sol\":5457:5461  from */\n      dup4\n        /* \"@openzeppelin/contracts/token/ERC20/ERC20.sol\":5457:5475  from == address(0) */\n      0xffffffffffffffffffffffffffffffffffffffff\n      and\n      sub\n        /* \"@openzeppelin/contracts/token/ERC20/ERC20.sol\":5453:5539  if (from == address(0)) {... */\n      tag_257\n      jumpi\n        /* \"@openzeppelin/contracts/token/ERC20/ERC20.sol\":5525:5526  0 */\n      0x00\n        /* \"@openzeppelin/contracts/token/ERC20/ERC20.sol\":5498:5528  ERC20InvalidSender(address(0)) */\n      mload(0x40)\n      0x96c6fd1e00000000000000000000000000000000000000000000000000000000\n      dup2\n      mstore\n      0x04\n      add\n      tag_258\n      swap2\n      swap1\n      tag_126\n      jump\t// in\n    tag_258:\n      mload(0x40)\n      dup1\n      swap2\n      sub\n      swap1\n      revert\n        /* \"@openzeppelin/contracts/token/ERC20/ERC20.sol\":5453:5539  if (from == address(0)) {... */\n    tag_257:\n        /* \"@openzeppelin/contracts/token/ERC20/ERC20.sol\":5566:5567  0 */\n      0x00\n        /* \"@openzeppelin/contracts/token/ERC20/ERC20.sol\":5552:5568  to == address(0) */\n      0xffffffffffffffffffffffffffffffffffffffff\n      and\n        /* \"@openzeppelin/contracts/token/ERC20/ERC20.sol\":5552:5554  to */\n      dup3\n        /* \"@openzeppelin/contracts/token/ERC20/ERC20.sol\":5552:5568  to == address(0) */\n      0xffffffffffffffffffffffffffffffffffffffff\n      and\n      sub\n        /* \"@openzeppelin/contracts/token/ERC20/ERC20.sol\":5548:5634  if (to == address(0)) {... */\n      tag_259\n      jumpi\n        /* \"@openzeppelin/contracts/token/ERC20/ERC20.sol\":5620:5621  0 */\n      0x00\n        /* \"@openzeppelin/contracts/token/ERC20/ERC20.sol\":5591:5623  ERC20InvalidReceiver(address(0)) */\n      mload(0x40)\n      0xec442f0500000000000000000000000000000000000000000000000000000000\n      dup2\n      mstore\n      0x04\n      add\n      tag_260\n      swap2\n      swap1\n      tag_126\n      jump\t// in\n    tag_260:\n      mload(0x40)\n      dup1\n      swap2\n      sub\n      swap1\n      revert\n        /* \"@openzeppelin/contracts/token/ERC20/ERC20.sol\":5548:5634  if (to == address(0)) {... */\n    tag_259:\n        /* \"@openzeppelin/contracts/token/ERC20/ERC20.sol\":5643:5667  _update(from, to, value) */\n      tag_261\n        /* \"@openzeppelin/contracts/token/ERC20/ERC20.sol\":5651:5655  from */\n      dup4\n        /* \"@openzeppelin/contracts/token/ERC20/ERC20.sol\":5657:5659  to */\n      dup4\n        /* \"@openzeppelin/contracts/token/ERC20/ERC20.sol\":5661:5666  value */\n      dup4\n        /* \"@openzeppelin/contracts/token/ERC20/ERC20.sol\":5643:5650  _update */\n      tag_262\n        /* \"@openzeppelin/contracts/token/ERC20/ERC20.sol\":5643:5667  _update(from, to, value) */\n      jump\t// in\n    tag_261:\n        /* \"@openzeppelin/contracts/token/ERC20/ERC20.sol\":5374:5674  function _transfer(address from, address to, uint256 value) internal {... */\n      pop\n      pop\n      pop\n      jump\t// out\n        /* \"@openzeppelin/contracts/token/ERC20/ERC20.sol\":7965:8171  function _burn(address account, uint256 value) internal {... */\n    tag_198:\n        /* \"@openzeppelin/contracts/token/ERC20/ERC20.sol\":8054:8055  0 */\n      0x00\n        /* \"@openzeppelin/contracts/token/ERC20/ERC20.sol\":8035:8056  account == address(0) */\n      0xffffffffffffffffffffffffffffffffffffffff\n      and\n        /* \"@openzeppelin/contracts/token/ERC20/ERC20.sol\":8035:8042  account */\n      dup3\n        /* \"@openzeppelin/contracts/token/ERC20/ERC20.sol\":8035:8056  account == address(0) */\n      0xffffffffffffffffffffffffffffffffffffffff\n      and\n      sub\n        /* \"@openzeppelin/contracts/token/ERC20/ERC20.sol\":8031:8120  if (account == address(0)) {... */\n      tag_264\n      jumpi\n        /* \"@openzeppelin/contracts/token/ERC20/ERC20.sol\":8106:8107  0 */\n      0x00\n        /* \"@openzeppelin/contracts/token/ERC20/ERC20.sol\":8079:8109  ERC20InvalidSender(address(0)) */\n      mload(0x40)\n      0x96c6fd1e00000000000000000000000000000000000000000000000000000000\n      dup2\n      mstore\n      0x04\n      add\n      tag_265\n      swap2\n      swap1\n      tag_126\n      jump\t// in\n    tag_265:\n      mload(0x40)\n      dup1\n      swap2\n      sub\n      swap1\n      revert\n        /* \"@openzeppelin/contracts/token/ERC20/ERC20.sol\":8031:8120  if (account == address(0)) {... */\n    tag_264:\n        /* \"@openzeppelin/contracts/token/ERC20/ERC20.sol\":8129:8164  _update(account, address(0), value) */\n      tag_266\n        /* \"@openzeppelin/contracts/token/ERC20/ERC20.sol\":8137:8144  account */\n      dup3\n        /* \"@openzeppelin/contracts/token/ERC20/ERC20.sol\":8154:8155  0 */\n      0x00\n        /* \"@openzeppelin/contracts/token/ERC20/ERC20.sol\":8158:8163  value */\n      dup4\n        /* \"@openzeppelin/contracts/token/ERC20/ERC20.sol\":8129:8136  _update */\n      tag_262\n        /* \"@openzeppelin/contracts/token/ERC20/ERC20.sol\":8129:8164  _update(account, address(0), value) */\n      jump\t// in\n    tag_266:\n        /* \"@openzeppelin/contracts/token/ERC20/ERC20.sol\":7965:8171  function _burn(address account, uint256 value) internal {... */\n      pop\n      pop\n      jump\t// out\n        /* \"@openzeppelin/contracts/token/ERC20/ERC20.sol\":7439:7647  function _mint(address account, uint256 value) internal {... */\n    tag_244:\n        /* \"@openzeppelin/contracts/token/ERC20/ERC20.sol\":7528:7529  0 */\n      0x00\n        /* \"@openzeppelin/contracts/token/ERC20/ERC20.sol\":7509:7530  account == address(0) */\n      0xffffffffffffffffffffffffffffffffffffffff\n      and\n        /* \"@openzeppelin/contracts/token/ERC20/ERC20.sol\":7509:7516  account */\n      dup3\n        /* \"@openzeppelin/contracts/token/ERC20/ERC20.sol\":7509:7530  account == address(0) */\n      0xffffffffffffffffffffffffffffffffffffffff\n      and\n      sub\n        /* \"@openzeppelin/contracts/token/ERC20/ERC20.sol\":7505:7596  if (account == address(0)) {... */\n      tag_268\n      jumpi\n        /* \"@openzeppelin/contracts/token/ERC20/ERC20.sol\":7582:7583  0 */\n      0x00\n        /* \"@openzeppelin/contracts/token/ERC20/ERC20.sol\":7553:7585  ERC20InvalidReceiver(address(0)) */\n      mload(0x40)\n      0xec442f0500000000000000000000000000000000000000000000000000000000\n      dup2\n      mstore\n      0x04\n      add\n      tag_269\n      swap2\n      swap1\n      tag_126\n      jump\t// in\n    tag_269:\n      mload(0x40)\n      dup1\n      swap2\n      sub\n      swap1\n      revert\n        /* \"@openzeppelin/contracts/token/ERC20/ERC20.sol\":7505:7596  if (account == address(0)) {... */\n    tag_268:\n        /* \"@openzeppelin/contracts/token/ERC20/ERC20.sol\":7605:7640  _update(address(0), account, value) */\n      tag_270\n        /* \"@openzeppelin/contracts/token/ERC20/ERC20.sol\":7621:7622  0 */\n      0x00\n        /* \"@openzeppelin/contracts/token/ERC20/ERC20.sol\":7625:7632  account */\n      dup4\n        /* \"@openzeppelin/contracts/token/ERC20/ERC20.sol\":7634:7639  value */\n      dup4\n        /* \"@openzeppelin/contracts/token/ERC20/ERC20.sol\":7605:7612  _update */\n      tag_262\n        /* \"@openzeppelin/contracts/token/ERC20/ERC20.sol\":7605:7640  _update(address(0), account, value) */\n      jump\t// in\n    tag_270:\n        /* \"@openzeppelin/contracts/token/ERC20/ERC20.sol\":7439:7647  function _mint(address account, uint256 value) internal {... */\n      pop\n      pop\n      jump\t// out\n        /* \"@openzeppelin/contracts/token/ERC20/ERC20.sol\":9682:10114  function _approve(address owner, address spender, uint256 value, bool emitEvent) internal virtual {... */\n    tag_248:\n        /* \"@openzeppelin/contracts/token/ERC20/ERC20.sol\":9811:9812  0 */\n      0x00\n        /* \"@openzeppelin/contracts/token/ERC20/ERC20.sol\":9794:9813  owner == address(0) */\n      0xffffffffffffffffffffffffffffffffffffffff\n      and\n        /* \"@openzeppelin/contracts/token/ERC20/ERC20.sol\":9794:9799  owner */\n      dup5\n        /* \"@openzeppelin/contracts/token/ERC20/ERC20.sol\":9794:9813  owner == address(0) */\n      0xffffffffffffffffffffffffffffffffffffffff\n      and\n      sub\n        /* \"@openzeppelin/contracts/token/ERC20/ERC20.sol\":9790:9879  if (owner == address(0)) {... */\n      tag_272\n      jumpi\n        /* \"@openzeppelin/contracts/token/ERC20/ERC20.sol\":9865:9866  0 */\n      0x00\n        /* \"@openzeppelin/contracts/token/ERC20/ERC20.sol\":9836:9868  ERC20InvalidApprover(address(0)) */\n      mload(0x40)\n      0xe602df0500000000000000000000000000000000000000000000000000000000\n      dup2\n      mstore\n      0x04\n      add\n      tag_273\n      swap2\n      swap1\n      tag_126\n      jump\t// in\n    tag_273:\n      mload(0x40)\n      dup1\n      swap2\n      sub\n      swap1\n      revert\n        /* \"@openzeppelin/contracts/token/ERC20/ERC20.sol\":9790:9879  if (owner == address(0)) {... */\n    tag_272:\n        /* \"@openzeppelin/contracts/token/ERC20/ERC20.sol\":9911:9912  0 */\n      0x00\n        /* \"@openzeppelin/contracts/token/ERC20/ERC20.sol\":9892:9913  spender == address(0) */\n      0xffffffffffffffffffffffffffffffffffffffff\n      and\n        /* \"@openzeppelin/contracts/token/ERC20/ERC20.sol\":9892:9899  spender */\n      dup4\n        /* \"@openzeppelin/contracts/token/ERC20/ERC20.sol\":9892:9913  spender == address(0) */\n      0xffffffffffffffffffffffffffffffffffffffff\n      and\n      sub\n        /* \"@openzeppelin/contracts/token/ERC20/ERC20.sol\":9888:9978  if (spender == address(0)) {... */\n      tag_274\n      jumpi\n        /* \"@openzeppelin/contracts/token/ERC20/ERC20.sol\":9964:9965  0 */\n      0x00\n        /* \"@openzeppelin/contracts/token/ERC20/ERC20.sol\":9936:9967  ERC20InvalidSpender(address(0)) */\n      mload(0x40)\n      0x94280d6200000000000000000000000000000000000000000000000000000000\n      dup2\n      mstore\n      0x04\n      add\n      tag_275\n      swap2\n      swap1\n      tag_126\n      jump\t// in\n    tag_275:\n      mload(0x40)\n      dup1\n      swap2\n      sub\n      swap1\n      revert\n        /* \"@openzeppelin/contracts/token/ERC20/ERC20.sol\":9888:9978  if (spender == address(0)) {... */\n    tag_274:\n        /* \"@openzeppelin/contracts/token/ERC20/ERC20.sol\":10017:10022  value */\n      dup2\n        /* \"@openzeppelin/contracts/token/ERC20/ERC20.sol\":9987:9998  _allowances */\n      0x01\n        /* \"@openzeppelin/contracts/token/ERC20/ERC20.sol\":9987:10005  _allowances[owner] */\n      0x00\n        /* \"@openzeppelin/contracts/token/ERC20/ERC20.sol\":9999:10004  owner */\n      dup7\n        /* \"@openzeppelin/contracts/token/ERC20/ERC20.sol\":9987:10005  _allowances[owner] */\n      0xffffffffffffffffffffffffffffffffffffffff\n      and\n      0xffffffffffffffffffffffffffffffffffffffff\n      and\n      dup2\n      mstore\n      0x20\n      add\n      swap1\n      dup2\n      mstore\n      0x20\n      add\n      0x00\n      keccak256\n        /* \"@openzeppelin/contracts/token/ERC20/ERC20.sol\":9987:10014  _allowances[owner][spender] */\n      0x00\n        /* \"@openzeppelin/contracts/token/ERC20/ERC20.sol\":10006:10013  spender */\n      dup6\n        /* \"@openzeppelin/contracts/token/ERC20/ERC20.sol\":9987:10014  _allowances[owner][spender] */\n      0xffffffffffffffffffffffffffffffffffffffff\n      and\n      0xffffffffffffffffffffffffffffffffffffffff\n      and\n      dup2\n      mstore\n      0x20\n      add\n      swap1\n      dup2\n      mstore\n      0x20\n      add\n      0x00\n      keccak256\n        /* \"@openzeppelin/contracts/token/ERC20/ERC20.sol\":9987:10022  _allowances[owner][spender] = value */\n      dup2\n      swap1\n      sstore\n      pop\n        /* \"@openzeppelin/contracts/token/ERC20/ERC20.sol\":10036:10045  emitEvent */\n      dup1\n        /* \"@openzeppelin/contracts/token/ERC20/ERC20.sol\":10032:10108  if (emitEvent) {... */\n      iszero\n      tag_276\n      jumpi\n        /* \"@openzeppelin/contracts/token/ERC20/ERC20.sol\":10082:10089  spender */\n      dup3\n        /* \"@openzeppelin/contracts/token/ERC20/ERC20.sol\":10066:10097  Approval(owner, spender, value) */\n      0xffffffffffffffffffffffffffffffffffffffff\n      and\n        /* \"@openzeppelin/contracts/token/ERC20/ERC20.sol\":10075:10080  owner */\n      dup5\n        /* \"@openzeppelin/contracts/token/ERC20/ERC20.sol\":10066:10097  Approval(owner, spender, value) */\n      0xffffffffffffffffffffffffffffffffffffffff\n      and\n      0x8c5be1e5ebec7d5bd14f71427d1e84f3dd0314c0f7b2291e5b200ac8c7c3b925\n        /* \"@openzeppelin/contracts/token/ERC20/ERC20.sol\":10091:10096  value */\n      dup5\n        /* \"@openzeppelin/contracts/token/ERC20/ERC20.sol\":10066:10097  Approval(owner, spender, value) */\n      mload(0x40)\n      tag_277\n      swap2\n      swap1\n      tag_25\n      jump\t// in\n    tag_277:\n      mload(0x40)\n      dup1\n      swap2\n      sub\n      swap1\n      log3\n        /* \"@openzeppelin/contracts/token/ERC20/ERC20.sol\":10032:10108  if (emitEvent) {... */\n    tag_276:\n        /* \"@openzeppelin/contracts/token/ERC20/ERC20.sol\":9682:10114  function _approve(address owner, address spender, uint256 value, bool emitEvent) internal virtual {... */\n      pop\n      pop\n      pop\n      pop\n      jump\t// out\n        /* \"@openzeppelin/contracts/token/ERC20/ERC20.sol\":5989:7096  function _update(address from, address to, uint256 value) internal virtual {... */\n    tag_262:\n        /* \"@openzeppelin/contracts/token/ERC20/ERC20.sol\":6094:6095  0 */\n      0x00\n        /* \"@openzeppelin/contracts/token/ERC20/ERC20.sol\":6078:6096  from == address(0) */\n      0xffffffffffffffffffffffffffffffffffffffff\n      and\n        /* \"@openzeppelin/contracts/token/ERC20/ERC20.sol\":6078:6082  from */\n      dup4\n        /* \"@openzeppelin/contracts/token/ERC20/ERC20.sol\":6078:6096  from == address(0) */\n      0xffffffffffffffffffffffffffffffffffffffff\n      and\n      sub\n        /* \"@openzeppelin/contracts/token/ERC20/ERC20.sol\":6074:6614  if (from == address(0)) {... */\n      tag_279\n      jumpi\n        /* \"@openzeppelin/contracts/token/ERC20/ERC20.sol\":6230:6235  value */\n      dup1\n        /* \"@openzeppelin/contracts/token/ERC20/ERC20.sol\":6214:6226  _totalSupply */\n      0x02\n      0x00\n        /* \"@openzeppelin/contracts/token/ERC20/ERC20.sol\":6214:6235  _totalSupply += value */\n      dup3\n      dup3\n      sload\n      tag_280\n      swap2\n      swap1\n      tag_89\n      jump\t// in\n    tag_280:\n      swap3\n      pop\n      pop\n      dup2\n      swap1\n      sstore\n      pop\n        /* \"@openzeppelin/contracts/token/ERC20/ERC20.sol\":6074:6614  if (from == address(0)) {... */\n      jump(tag_281)\n    tag_279:\n        /* \"@openzeppelin/contracts/token/ERC20/ERC20.sol\":6266:6285  uint256 fromBalance */\n      0x00\n        /* \"@openzeppelin/contracts/token/ERC20/ERC20.sol\":6288:6297  _balances */\n      0x00\n        /* \"@openzeppelin/contracts/token/ERC20/ERC20.sol\":6288:6303  _balances[from] */\n      0x00\n        /* \"@openzeppelin/contracts/token/ERC20/ERC20.sol\":6298:6302  from */\n      dup6\n        /* \"@openzeppelin/contracts/token/ERC20/ERC20.sol\":6288:6303  _balances[from] */\n      0xffffffffffffffffffffffffffffffffffffffff\n      and\n      0xffffffffffffffffffffffffffffffffffffffff\n      and\n      dup2\n      mstore\n      0x20\n      add\n      swap1\n      dup2\n      mstore\n      0x20\n      add\n      0x00\n      keccak256\n      sload\n        /* \"@openzeppelin/contracts/token/ERC20/ERC20.sol\":6266:6303  uint256 fromBalance = _balances[from] */\n      swap1\n      pop\n        /* \"@openzeppelin/contracts/token/ERC20/ERC20.sol\":6335:6340  value */\n      dup2\n        /* \"@openzeppelin/contracts/token/ERC20/ERC20.sol\":6321:6332  fromBalance */\n      dup2\n        /* \"@openzeppelin/contracts/token/ERC20/ERC20.sol\":6321:6340  fromBalance < value */\n      lt\n        /* \"@openzeppelin/contracts/token/ERC20/ERC20.sol\":6317:6432  if (fromBalance < value) {... */\n      iszero\n      tag_282\n      jumpi\n        /* \"@openzeppelin/contracts/token/ERC20/ERC20.sol\":6392:6396  from */\n      dup4\n        /* \"@openzeppelin/contracts/token/ERC20/ERC20.sol\":6398:6409  fromBalance */\n      dup2\n        /* \"@openzeppelin/contracts/token/ERC20/ERC20.sol\":6411:6416  value */\n      dup4\n        /* \"@openzeppelin/contracts/token/ERC20/ERC20.sol\":6367:6417  ERC20InsufficientBalance(from, fromBalance, value) */\n      mload(0x40)\n      0xe450d38c00000000000000000000000000000000000000000000000000000000\n      dup2\n      mstore\n      0x04\n      add\n      tag_283\n      swap4\n      swap3\n      swap2\n      swap1\n      tag_254\n      jump\t// in\n    tag_283:\n      mload(0x40)\n      dup1\n      swap2\n      sub\n      swap1\n      revert\n        /* \"@openzeppelin/contracts/token/ERC20/ERC20.sol\":6317:6432  if (fromBalance < value) {... */\n    tag_282:\n        /* \"@openzeppelin/contracts/token/ERC20/ERC20.sol\":6584:6589  value */\n      dup2\n        /* \"@openzeppelin/contracts/token/ERC20/ERC20.sol\":6570:6581  fromBalance */\n      dup2\n        /* \"@openzeppelin/contracts/token/ERC20/ERC20.sol\":6570:6589  fromBalance - value */\n      sub\n        /* \"@openzeppelin/contracts/token/ERC20/ERC20.sol\":6552:6561  _balances */\n      0x00\n        /* \"@openzeppelin/contracts/token/ERC20/ERC20.sol\":6552:6567  _balances[from] */\n      0x00\n        /* \"@openzeppelin/contracts/token/ERC20/ERC20.sol\":6562:6566  from */\n      dup7\n        /* \"@openzeppelin/contracts/token/ERC20/ERC20.sol\":6552:6567  _balances[from] */\n      0xffffffffffffffffffffffffffffffffffffffff\n      and\n      0xffffffffffffffffffffffffffffffffffffffff\n      and\n      dup2\n      mstore\n      0x20\n      add\n      swap1\n      dup2\n      mstore\n      0x20\n      add\n      0x00\n      keccak256\n        /* \"@openzeppelin/contracts/token/ERC20/ERC20.sol\":6552:6589  _balances[from] = fromBalance - value */\n      dup2\n      swap1\n      sstore\n      pop\n        /* \"@openzeppelin/contracts/token/ERC20/ERC20.sol\":6252:6614  {... */\n      pop\n        /* \"@openzeppelin/contracts/token/ERC20/ERC20.sol\":6074:6614  if (from == address(0)) {... */\n    tag_281:\n        /* \"@openzeppelin/contracts/token/ERC20/ERC20.sol\":6642:6643  0 */\n      0x00\n        /* \"@openzeppelin/contracts/token/ERC20/ERC20.sol\":6628:6644  to == address(0) */\n      0xffffffffffffffffffffffffffffffffffffffff\n      and\n        /* \"@openzeppelin/contracts/token/ERC20/ERC20.sol\":6628:6630  to */\n      dup3\n        /* \"@openzeppelin/contracts/token/ERC20/ERC20.sol\":6628:6644  to == address(0) */\n      0xffffffffffffffffffffffffffffffffffffffff\n      and\n      sub\n        /* \"@openzeppelin/contracts/token/ERC20/ERC20.sol\":6624:7049  if (to == address(0)) {... */\n      tag_284\n      jumpi\n        /* \"@openzeppelin/contracts/token/ERC20/ERC20.sol\":6807:6812  value */\n      dup1\n        /* \"@openzeppelin/contracts/token/ERC20/ERC20.sol\":6791:6803  _totalSupply */\n      0x02\n      0x00\n        /* \"@openzeppelin/contracts/token/ERC20/ERC20.sol\":6791:6812  _totalSupply -= value */\n      dup3\n      dup3\n      sload\n      sub\n      swap3\n      pop\n      pop\n      dup2\n      swap1\n      sstore\n      pop\n        /* \"@openzeppelin/contracts/token/ERC20/ERC20.sol\":6624:7049  if (to == address(0)) {... */\n      jump(tag_285)\n    tag_284:\n        /* \"@openzeppelin/contracts/token/ERC20/ERC20.sol\":7019:7024  value */\n      dup1\n        /* \"@openzeppelin/contracts/token/ERC20/ERC20.sol\":7002:7011  _balances */\n      0x00\n        /* \"@openzeppelin/contracts/token/ERC20/ERC20.sol\":7002:7015  _balances[to] */\n      0x00\n        /* \"@openzeppelin/contracts/token/ERC20/ERC20.sol\":7012:7014  to */\n      dup5\n        /* \"@openzeppelin/contracts/token/ERC20/ERC20.sol\":7002:7015  _balances[to] */\n      0xffffffffffffffffffffffffffffffffffffffff\n      and\n      0xffffffffffffffffffffffffffffffffffffffff\n      and\n      dup2\n      mstore\n      0x20\n      add\n      swap1\n      dup2\n      mstore\n      0x20\n      add\n      0x00\n      keccak256\n      0x00\n        /* \"@openzeppelin/contracts/token/ERC20/ERC20.sol\":7002:7024  _balances[to] += value */\n      dup3\n      dup3\n      sload\n      add\n      swap3\n      pop\n      pop\n      dup2\n      swap1\n      sstore\n      pop\n        /* \"@openzeppelin/contracts/token/ERC20/ERC20.sol\":6624:7049  if (to == address(0)) {... */\n    tag_285:\n        /* \"@openzeppelin/contracts/token/ERC20/ERC20.sol\":7079:7081  to */\n      dup2\n        /* \"@openzeppelin/contracts/token/ERC20/ERC20.sol\":7064:7089  Transfer(from, to, value) */\n      0xffffffffffffffffffffffffffffffffffffffff\n      and\n        /* \"@openzeppelin/contracts/token/ERC20/ERC20.sol\":7073:7077  from */\n      dup4\n        /* \"@openzeppelin/contracts/token/ERC20/ERC20.sol\":7064:7089  Transfer(from, to, value) */\n      0xffffffffffffffffffffffffffffffffffffffff\n      and\n      0xddf252ad1be2c89b69c2b068fc378daa952ba7f163c4a11628f55a4df523b3ef\n        /* \"@openzeppelin/contracts/token/ERC20/ERC20.sol\":7083:7088  value */\n      dup4\n        /* \"@openzeppelin/contracts/token/ERC20/ERC20.sol\":7064:7089  Transfer(from, to, value) */\n      mload(0x40)\n      tag_286\n      swap2\n      swap1\n      tag_25\n      jump\t// in\n    tag_286:\n      mload(0x40)\n      dup1\n      swap2\n      sub\n      swap1\n      log3\n        /* \"@openzeppelin/contracts/token/ERC20/ERC20.sol\":5989:7096  function _update(address from, address to, uint256 value) internal virtual {... */\n      pop\n      pop\n      pop\n      jump\t// out\n        /* \"#utility.yul\":88:205   */\n    tag_288:\n        /* \"#utility.yul\":197:198   */\n      0x00\n        /* \"#utility.yul\":194:195   */\n      0x00\n        /* \"#utility.yul\":187:199   */\n      revert\n        /* \"#utility.yul\":211:328   */\n    tag_289:\n        /* \"#utility.yul\":320:321   */\n      0x00\n        /* \"#utility.yul\":317:318   */\n      0x00\n        /* \"#utility.yul\":310:322   */\n      revert\n        /* \"#utility.yul\":334:411   */\n    tag_290:\n        /* \"#utility.yul\":371:378   */\n      0x00\n        /* \"#utility.yul\":400:405   */\n      dup2\n        /* \"#utility.yul\":389:405   */\n      swap1\n      pop\n        /* \"#utility.yul\":334:411   */\n      swap2\n      swap1\n      pop\n      jump\t// out\n        /* \"#utility.yul\":417:539   */\n    tag_291:\n        /* \"#utility.yul\":490:514   */\n      tag_337\n        /* \"#utility.yul\":508:513   */\n      dup2\n        /* \"#utility.yul\":490:514   */\n      tag_290\n      jump\t// in\n    tag_337:\n        /* \"#utility.yul\":483:488   */\n      dup2\n        /* \"#utility.yul\":480:515   */\n      eq\n        /* \"#utility.yul\":470:533   */\n      tag_338\n      jumpi\n        /* \"#utility.yul\":529:530   */\n      0x00\n        /* \"#utility.yul\":526:527   */\n      0x00\n        /* \"#utility.yul\":519:531   */\n      revert\n        /* \"#utility.yul\":470:533   */\n    tag_338:\n        /* \"#utility.yul\":417:539   */\n      pop\n      jump\t// out\n        /* \"#utility.yul\":545:684   */\n    tag_292:\n        /* \"#utility.yul\":591:596   */\n      0x00\n        /* \"#utility.yul\":629:635   */\n      dup2\n        /* \"#utility.yul\":616:636   */\n      calldataload\n        /* \"#utility.yul\":607:636   */\n      swap1\n      pop\n        /* \"#utility.yul\":645:678   */\n      tag_340\n        /* \"#utility.yul\":672:677   */\n      dup2\n        /* \"#utility.yul\":645:678   */\n      tag_291\n      jump\t// in\n    tag_340:\n        /* \"#utility.yul\":545:684   */\n      swap3\n      swap2\n      pop\n      pop\n      jump\t// out\n        /* \"#utility.yul\":690:1309   */\n    tag_22:\n        /* \"#utility.yul\":767:773   */\n      0x00\n        /* \"#utility.yul\":775:781   */\n      0x00\n        /* \"#utility.yul\":783:789   */\n      0x00\n        /* \"#utility.yul\":832:834   */\n      0x60\n        /* \"#utility.yul\":820:829   */\n      dup5\n        /* \"#utility.yul\":811:818   */\n      dup7\n        /* \"#utility.yul\":807:830   */\n      sub\n        /* \"#utility.yul\":803:835   */\n      slt\n        /* \"#utility.yul\":800:919   */\n      iszero\n      tag_342\n      jumpi\n        /* \"#utility.yul\":838:917   */\n      tag_343\n      tag_288\n      jump\t// in\n    tag_343:\n        /* \"#utility.yul\":800:919   */\n    tag_342:\n        /* \"#utility.yul\":958:959   */\n      0x00\n        /* \"#utility.yul\":983:1036   */\n      tag_344\n        /* \"#utility.yul\":1028:1035   */\n      dup7\n        /* \"#utility.yul\":1019:1025   */\n      dup3\n        /* \"#utility.yul\":1008:1017   */\n      dup8\n        /* \"#utility.yul\":1004:1026   */\n      add\n        /* \"#utility.yul\":983:1036   */\n      tag_292\n      jump\t// in\n    tag_344:\n        /* \"#utility.yul\":973:1036   */\n      swap4\n      pop\n        /* \"#utility.yul\":929:1046   */\n      pop\n        /* \"#utility.yul\":1085:1087   */\n      0x20\n        /* \"#utility.yul\":1111:1164   */\n      tag_345\n        /* \"#utility.yul\":1156:1163   */\n      dup7\n        /* \"#utility.yul\":1147:1153   */\n      dup3\n        /* \"#utility.yul\":1136:1145   */\n      dup8\n        /* \"#utility.yul\":1132:1154   */\n      add\n        /* \"#utility.yul\":1111:1164   */\n      tag_292\n      jump\t// in\n    tag_345:\n        /* \"#utility.yul\":1101:1164   */\n      swap3\n      pop\n        /* \"#utility.yul\":1056:1174   */\n      pop\n        /* \"#utility.yul\":1213:1215   */\n      0x40\n        /* \"#utility.yul\":1239:1292   */\n      tag_346\n        /* \"#utility.yul\":1284:1291   */\n      dup7\n        /* \"#utility.yul\":1275:1281   */\n      dup3\n        /* \"#utility.yul\":1264:1273   */\n      dup8\n        /* \"#utility.yul\":1260:1282   */\n      add\n        /* \"#utility.yul\":1239:1292   */\n      tag_292\n      jump\t// in\n    tag_346:\n        /* \"#utility.yul\":1229:1292   */\n      swap2\n      pop\n        /* \"#utility.yul\":1184:1302   */\n      pop\n        /* \"#utility.yul\":690:1309   */\n      swap3\n      pop\n      swap3\n      pop\n      swap3\n      jump\t// out\n        /* \"#utility.yul\":1315:1433   */\n    tag_293:\n        /* \"#utility.yul\":1402:1426   */\n      tag_348\n        /* \"#utility.yul\":1420:1425   */\n      dup2\n        /* \"#utility.yul\":1402:1426   */\n      tag_290\n      jump\t// in\n    tag_348:\n        /* \"#utility.yul\":1397:1400   */\n      dup3\n        /* \"#utility.yul\":1390:1427   */\n      mstore\n        /* \"#utility.yul\":1315:1433   */\n      pop\n      pop\n      jump\t// out\n        /* \"#utility.yul\":1439:1661   */\n    tag_25:\n        /* \"#utility.yul\":1532:1536   */\n      0x00\n        /* \"#utility.yul\":1570:1572   */\n      0x20\n        /* \"#utility.yul\":1559:1568   */\n      dup3\n        /* \"#utility.yul\":1555:1573   */\n      add\n        /* \"#utility.yul\":1547:1573   */\n      swap1\n      pop\n        /* \"#utility.yul\":1583:1654   */\n      tag_350\n        /* \"#utility.yul\":1651:1652   */\n      0x00\n        /* \"#utility.yul\":1640:1649   */\n      dup4\n        /* \"#utility.yul\":1636:1653   */\n      add\n        /* \"#utility.yul\":1627:1633   */\n      dup5\n        /* \"#utility.yul\":1583:1654   */\n      tag_293\n      jump\t// in\n    tag_350:\n        /* \"#utility.yul\":1439:1661   */\n      swap3\n      swap2\n      pop\n      pop\n      jump\t// out\n        /* \"#utility.yul\":1667:1766   */\n    tag_294:\n        /* \"#utility.yul\":1719:1725   */\n      0x00\n        /* \"#utility.yul\":1753:1758   */\n      dup2\n        /* \"#utility.yul\":1747:1759   */\n      mload\n        /* \"#utility.yul\":1737:1759   */\n      swap1\n      pop\n        /* \"#utility.yul\":1667:1766   */\n      swap2\n      swap1\n      pop\n      jump\t// out\n        /* \"#utility.yul\":1772:1941   */\n    tag_295:\n        /* \"#utility.yul\":1856:1867   */\n      0x00\n        /* \"#utility.yul\":1890:1896   */\n      dup3\n        /* \"#utility.yul\":1885:1888   */\n      dup3\n        /* \"#utility.yul\":1878:1897   */\n      mstore\n        /* \"#utility.yul\":1930:1934   */\n      0x20\n        /* \"#utility.yul\":1925:1928   */\n      dup3\n        /* \"#utility.yul\":1921:1935   */\n      add\n        /* \"#utility.yul\":1906:1935   */\n      swap1\n      pop\n        /* \"#utility.yul\":1772:1941   */\n      swap3\n      swap2\n      pop\n      pop\n      jump\t// out\n        /* \"#utility.yul\":1947:2086   */\n    tag_296:\n        /* \"#utility.yul\":2036:2042   */\n      dup3\n        /* \"#utility.yul\":2031:2034   */\n      dup2\n        /* \"#utility.yul\":2026:2029   */\n      dup4\n        /* \"#utility.yul\":2020:2043   */\n      mcopy\n        /* \"#utility.yul\":2077:2078   */\n      0x00\n        /* \"#utility.yul\":2068:2074   */\n      dup4\n        /* \"#utility.yul\":2063:2066   */\n      dup4\n        /* \"#utility.yul\":2059:2075   */\n      add\n        /* \"#utility.yul\":2052:2079   */\n      mstore\n        /* \"#utility.yul\":1947:2086   */\n      pop\n      pop\n      pop\n      jump\t// out\n        /* \"#utility.yul\":2092:2194   */\n    tag_297:\n        /* \"#utility.yul\":2133:2139   */\n      0x00\n        /* \"#utility.yul\":2184:2186   */\n      0x1f\n        /* \"#utility.yul\":2180:2187   */\n      not\n        /* \"#utility.yul\":2175:2177   */\n      0x1f\n        /* \"#utility.yul\":2168:2173   */\n      dup4\n        /* \"#utility.yul\":2164:2178   */\n      add\n        /* \"#utility.yul\":2160:2188   */\n      and\n        /* \"#utility.yul\":2150:2188   */\n      swap1\n      pop\n        /* \"#utility.yul\":2092:2194   */\n      swap2\n      swap1\n      pop\n      jump\t// out\n        /* \"#utility.yul\":2200:2577   */\n    tag_298:\n        /* \"#utility.yul\":2288:2291   */\n      0x00\n        /* \"#utility.yul\":2316:2355   */\n      tag_356\n        /* \"#utility.yul\":2349:2354   */\n      dup3\n        /* \"#utility.yul\":2316:2355   */\n      tag_294\n      jump\t// in\n    tag_356:\n        /* \"#utility.yul\":2371:2442   */\n      tag_357\n        /* \"#utility.yul\":2435:2441   */\n      dup2\n        /* \"#utility.yul\":2430:2433   */\n      dup6\n        /* \"#utility.yul\":2371:2442   */\n      tag_295\n      jump\t// in\n    tag_357:\n        /* \"#utility.yul\":2364:2442   */\n      swap4\n      pop\n        /* \"#utility.yul\":2451:2516   */\n      tag_358\n        /* \"#utility.yul\":2509:2515   */\n      dup2\n        /* \"#utility.yul\":2504:2507   */\n      dup6\n        /* \"#utility.yul\":2497:2501   */\n      0x20\n        /* \"#utility.yul\":2490:2495   */\n      dup7\n        /* \"#utility.yul\":2486:2502   */\n      add\n        /* \"#utility.yul\":2451:2516   */\n      tag_296\n      jump\t// in\n    tag_358:\n        /* \"#utility.yul\":2541:2570   */\n      tag_359\n        /* \"#utility.yul\":2563:2569   */\n      dup2\n        /* \"#utility.yul\":2541:2570   */\n      tag_297\n      jump\t// in\n    tag_359:\n        /* \"#utility.yul\":2536:2539   */\n      dup5\n        /* \"#utility.yul\":2532:2571   */\n      add\n        /* \"#utility.yul\":2525:2571   */\n      swap2\n      pop\n        /* \"#utility.yul\":2292:2577   */\n      pop\n        /* \"#utility.yul\":2200:2577   */\n      swap3\n      swap2\n      pop\n      pop\n      jump\t// out\n        /* \"#utility.yul\":2583:2896   */\n    tag_29:\n        /* \"#utility.yul\":2696:2700   */\n      0x00\n        /* \"#utility.yul\":2734:2736   */\n      0x20\n        /* \"#utility.yul\":2723:2732   */\n      dup3\n        /* \"#utility.yul\":2719:2737   */\n      add\n        /* \"#utility.yul\":2711:2737   */\n      swap1\n      pop\n        /* \"#utility.yul\":2783:2792   */\n      dup2\n        /* \"#utility.yul\":2777:2781   */\n      dup2\n        /* \"#utility.yul\":2773:2793   */\n      sub\n        /* \"#utility.yul\":2769:2770   */\n      0x00\n        /* \"#utility.yul\":2758:2767   */\n      dup4\n        /* \"#utility.yul\":2754:2771   */\n      add\n        /* \"#utility.yul\":2747:2794   */\n      mstore\n        /* \"#utility.yul\":2811:2889   */\n      tag_361\n        /* \"#utility.yul\":2884:2888   */\n      dup2\n        /* \"#utility.yul\":2875:2881   */\n      dup5\n        /* \"#utility.yul\":2811:2889   */\n      tag_298\n      jump\t// in\n    tag_361:\n        /* \"#utility.yul\":2803:2889   */\n      swap1\n      pop\n        /* \"#utility.yul\":2583:2896   */\n      swap3\n      swap2\n      pop\n      pop\n      jump\t// out\n        /* \"#utility.yul\":2902:3028   */\n    tag_299:\n        /* \"#utility.yul\":2939:2946   */\n      0x00\n        /* \"#utility.yul\":2979:3021   */\n      0xffffffffffffffffffffffffffffffffffffffff\n        /* \"#utility.yul\":2972:2977   */\n      dup3\n        /* \"#utility.yul\":2968:3022   */\n      and\n        /* \"#utility.yul\":2957:3022   */\n      swap1\n      pop\n        /* \"#utility.yul\":2902:3028   */\n      swap2\n      swap1\n      pop\n      jump\t// out\n        /* \"#utility.yul\":3034:3130   */\n    tag_300:\n        /* \"#utility.yul\":3071:3078   */\n      0x00\n        /* \"#utility.yul\":3100:3124   */\n      tag_364\n        /* \"#utility.yul\":3118:3123   */\n      dup3\n        /* \"#utility.yul\":3100:3124   */\n      tag_299\n      jump\t// in\n    tag_364:\n        /* \"#utility.yul\":3089:3124   */\n      swap1\n      pop\n        /* \"#utility.yul\":3034:3130   */\n      swap2\n      swap1\n      pop\n      jump\t// out\n        /* \"#utility.yul\":3136:3258   */\n    tag_301:\n        /* \"#utility.yul\":3209:3233   */\n      tag_366\n        /* \"#utility.yul\":3227:3232   */\n      dup2\n        /* \"#utility.yul\":3209:3233   */\n      tag_300\n      jump\t// in\n    tag_366:\n        /* \"#utility.yul\":3202:3207   */\n      dup2\n        /* \"#utility.yul\":3199:3234   */\n      eq\n        /* \"#utility.yul\":3189:3252   */\n      tag_367\n      jumpi\n        /* \"#utility.yul\":3248:3249   */\n      0x00\n        /* \"#utility.yul\":3245:3246   */\n      0x00\n        /* \"#utility.yul\":3238:3250   */\n      revert\n        /* \"#utility.yul\":3189:3252   */\n    tag_367:\n        /* \"#utility.yul\":3136:3258   */\n      pop\n      jump\t// out\n        /* \"#utility.yul\":3264:3403   */\n    tag_302:\n        /* \"#utility.yul\":3310:3315   */\n      0x00\n        /* \"#utility.yul\":3348:3354   */\n      dup2\n        /* \"#utility.yul\":3335:3355   */\n      calldataload\n        /* \"#utility.yul\":3326:3355   */\n      swap1\n      pop\n        /* \"#utility.yul\":3364:3397   */\n      tag_369\n        /* \"#utility.yul\":3391:3396   */\n      dup2\n        /* \"#utility.yul\":3364:3397   */\n      tag_301\n      jump\t// in\n    tag_369:\n        /* \"#utility.yul\":3264:3403   */\n      swap3\n      swap2\n      pop\n      pop\n      jump\t// out\n        /* \"#utility.yul\":3409:3883   */\n    tag_32:\n        /* \"#utility.yul\":3477:3483   */\n      0x00\n        /* \"#utility.yul\":3485:3491   */\n      0x00\n        /* \"#utility.yul\":3534:3536   */\n      0x40\n        /* \"#utility.yul\":3522:3531   */\n      dup4\n        /* \"#utility.yul\":3513:3520   */\n      dup6\n        /* \"#utility.yul\":3509:3532   */\n      sub\n        /* \"#utility.yul\":3505:3537   */\n      slt\n        /* \"#utility.yul\":3502:3621   */\n      iszero\n      tag_371\n      jumpi\n        /* \"#utility.yul\":3540:3619   */\n      tag_372\n      tag_288\n      jump\t// in\n    tag_372:\n        /* \"#utility.yul\":3502:3621   */\n    tag_371:\n        /* \"#utility.yul\":3660:3661   */\n      0x00\n        /* \"#utility.yul\":3685:3738   */\n      tag_373\n        /* \"#utility.yul\":3730:3737   */\n      dup6\n        /* \"#utility.yul\":3721:3727   */\n      dup3\n        /* \"#utility.yul\":3710:3719   */\n      dup7\n        /* \"#utility.yul\":3706:3728   */\n      add\n        /* \"#utility.yul\":3685:3738   */\n      tag_302\n      jump\t// in\n    tag_373:\n        /* \"#utility.yul\":3675:3738   */\n      swap3\n      pop\n        /* \"#utility.yul\":3631:3748   */\n      pop\n        /* \"#utility.yul\":3787:3789   */\n      0x20\n        /* \"#utility.yul\":3813:3866   */\n      tag_374\n        /* \"#utility.yul\":3858:3865   */\n      dup6\n        /* \"#utility.yul\":3849:3855   */\n      dup3\n        /* \"#utility.yul\":3838:3847   */\n      dup7\n        /* \"#utility.yul\":3834:3856   */\n      add\n        /* \"#utility.yul\":3813:3866   */\n      tag_292\n      jump\t// in\n    tag_374:\n        /* \"#utility.yul\":3803:3866   */\n      swap2\n      pop\n        /* \"#utility.yul\":3758:3876   */\n      pop\n        /* \"#utility.yul\":3409:3883   */\n      swap3\n      pop\n      swap3\n      swap1\n      pop\n      jump\t// out\n        /* \"#utility.yul\":3889:3979   */\n    tag_303:\n        /* \"#utility.yul\":3923:3930   */\n      0x00\n        /* \"#utility.yul\":3966:3971   */\n      dup2\n        /* \"#utility.yul\":3959:3972   */\n      iszero\n        /* \"#utility.yul\":3952:3973   */\n      iszero\n        /* \"#utility.yul\":3941:3973   */\n      swap1\n      pop\n        /* \"#utility.yul\":3889:3979   */\n      swap2\n      swap1\n      pop\n      jump\t// out\n        /* \"#utility.yul\":3985:4094   */\n    tag_304:\n        /* \"#utility.yul\":4066:4087   */\n      tag_377\n        /* \"#utility.yul\":4081:4086   */\n      dup2\n        /* \"#utility.yul\":4066:4087   */\n      tag_303\n      jump\t// in\n    tag_377:\n        /* \"#utility.yul\":4061:4064   */\n      dup3\n        /* \"#utility.yul\":4054:4088   */\n      mstore\n        /* \"#utility.yul\":3985:4094   */\n      pop\n      pop\n      jump\t// out\n        /* \"#utility.yul\":4100:4310   */\n    tag_35:\n        /* \"#utility.yul\":4187:4191   */\n      0x00\n        /* \"#utility.yul\":4225:4227   */\n      0x20\n        /* \"#utility.yul\":4214:4223   */\n      dup3\n        /* \"#utility.yul\":4210:4228   */\n      add\n        /* \"#utility.yul\":4202:4228   */\n      swap1\n      pop\n        /* \"#utility.yul\":4238:4303   */\n      tag_379\n        /* \"#utility.yul\":4300:4301   */\n      0x00\n        /* \"#utility.yul\":4289:4298   */\n      dup4\n        /* \"#utility.yul\":4285:4302   */\n      add\n        /* \"#utility.yul\":4276:4282   */\n      dup5\n        /* \"#utility.yul\":4238:4303   */\n      tag_304\n      jump\t// in\n    tag_379:\n        /* \"#utility.yul\":4100:4310   */\n      swap3\n      swap2\n      pop\n      pop\n      jump\t// out\n        /* \"#utility.yul\":4316:4935   */\n    tag_41:\n        /* \"#utility.yul\":4393:4399   */\n      0x00\n        /* \"#utility.yul\":4401:4407   */\n      0x00\n        /* \"#utility.yul\":4409:4415   */\n      0x00\n        /* \"#utility.yul\":4458:4460   */\n      0x60\n        /* \"#utility.yul\":4446:4455   */\n      dup5\n        /* \"#utility.yul\":4437:4444   */\n      dup7\n        /* \"#utility.yul\":4433:4456   */\n      sub\n        /* \"#utility.yul\":4429:4461   */\n      slt\n        /* \"#utility.yul\":4426:4545   */\n      iszero\n      tag_381\n      jumpi\n        /* \"#utility.yul\":4464:4543   */\n      tag_382\n      tag_288\n      jump\t// in\n    tag_382:\n        /* \"#utility.yul\":4426:4545   */\n    tag_381:\n        /* \"#utility.yul\":4584:4585   */\n      0x00\n        /* \"#utility.yul\":4609:4662   */\n      tag_383\n        /* \"#utility.yul\":4654:4661   */\n      dup7\n        /* \"#utility.yul\":4645:4651   */\n      dup3\n        /* \"#utility.yul\":4634:4643   */\n      dup8\n        /* \"#utility.yul\":4630:4652   */\n      add\n        /* \"#utility.yul\":4609:4662   */\n      tag_302\n      jump\t// in\n    tag_383:\n        /* \"#utility.yul\":4599:4662   */\n      swap4\n      pop\n        /* \"#utility.yul\":4555:4672   */\n      pop\n        /* \"#utility.yul\":4711:4713   */\n      0x20\n        /* \"#utility.yul\":4737:4790   */\n      tag_384\n        /* \"#utility.yul\":4782:4789   */\n      dup7\n        /* \"#utility.yul\":4773:4779   */\n      dup3\n        /* \"#utility.yul\":4762:4771   */\n      dup8\n        /* \"#utility.yul\":4758:4780   */\n      add\n        /* \"#utility.yul\":4737:4790   */\n      tag_302\n      jump\t// in\n    tag_384:\n        /* \"#utility.yul\":4727:4790   */\n      swap3\n      pop\n        /* \"#utility.yul\":4682:4800   */\n      pop\n        /* \"#utility.yul\":4839:4841   */\n      0x40\n        /* \"#utility.yul\":4865:4918   */\n      tag_385\n        /* \"#utility.yul\":4910:4917   */\n      dup7\n        /* \"#utility.yul\":4901:4907   */\n      dup3\n        /* \"#utility.yul\":4890:4899   */\n      dup8\n        /* \"#utility.yul\":4886:4908   */\n      add\n        /* \"#utility.yul\":4865:4918   */\n      tag_292\n      jump\t// in\n    tag_385:\n        /* \"#utility.yul\":4855:4918   */\n      swap2\n      pop\n        /* \"#utility.yul\":4810:4928   */\n      pop\n        /* \"#utility.yul\":4316:4935   */\n      swap3\n      pop\n      swap3\n      pop\n      swap3\n      jump\t// out\n        /* \"#utility.yul\":4941:5027   */\n    tag_305:\n        /* \"#utility.yul\":4976:4983   */\n      0x00\n        /* \"#utility.yul\":5016:5020   */\n      0xff\n        /* \"#utility.yul\":5009:5014   */\n      dup3\n        /* \"#utility.yul\":5005:5021   */\n      and\n        /* \"#utility.yul\":4994:5021   */\n      swap1\n      pop\n        /* \"#utility.yul\":4941:5027   */\n      swap2\n      swap1\n      pop\n      jump\t// out\n        /* \"#utility.yul\":5033:5145   */\n    tag_306:\n        /* \"#utility.yul\":5116:5138   */\n      tag_388\n        /* \"#utility.yul\":5132:5137   */\n      dup2\n        /* \"#utility.yul\":5116:5138   */\n      tag_305\n      jump\t// in\n    tag_388:\n        /* \"#utility.yul\":5111:5114   */\n      dup3\n        /* \"#utility.yul\":5104:5139   */\n      mstore\n        /* \"#utility.yul\":5033:5145   */\n      pop\n      pop\n      jump\t// out\n        /* \"#utility.yul\":5151:5365   */\n    tag_47:\n        /* \"#utility.yul\":5240:5244   */\n      0x00\n        /* \"#utility.yul\":5278:5280   */\n      0x20\n        /* \"#utility.yul\":5267:5276   */\n      dup3\n        /* \"#utility.yul\":5263:5281   */\n      add\n        /* \"#utility.yul\":5255:5281   */\n      swap1\n      pop\n        /* \"#utility.yul\":5291:5358   */\n      tag_390\n        /* \"#utility.yul\":5355:5356   */\n      0x00\n        /* \"#utility.yul\":5344:5353   */\n      dup4\n        /* \"#utility.yul\":5340:5357   */\n      add\n        /* \"#utility.yul\":5331:5337   */\n      dup5\n        /* \"#utility.yul\":5291:5358   */\n      tag_306\n      jump\t// in\n    tag_390:\n        /* \"#utility.yul\":5151:5365   */\n      swap3\n      swap2\n      pop\n      pop\n      jump\t// out\n        /* \"#utility.yul\":5371:5488   */\n    tag_307:\n        /* \"#utility.yul\":5480:5481   */\n      0x00\n        /* \"#utility.yul\":5477:5478   */\n      0x00\n        /* \"#utility.yul\":5470:5482   */\n      revert\n        /* \"#utility.yul\":5494:5611   */\n    tag_308:\n        /* \"#utility.yul\":5603:5604   */\n      0x00\n        /* \"#utility.yul\":5600:5601   */\n      0x00\n        /* \"#utility.yul\":5593:5605   */\n      revert\n        /* \"#utility.yul\":5617:5734   */\n    tag_309:\n        /* \"#utility.yul\":5726:5727   */\n      0x00\n        /* \"#utility.yul\":5723:5724   */\n      0x00\n        /* \"#utility.yul\":5716:5728   */\n      revert\n        /* \"#utility.yul\":5757:6325   */\n    tag_310:\n        /* \"#utility.yul\":5830:5838   */\n      0x00\n        /* \"#utility.yul\":5840:5846   */\n      0x00\n        /* \"#utility.yul\":5890:5893   */\n      dup4\n        /* \"#utility.yul\":5883:5887   */\n      0x1f\n        /* \"#utility.yul\":5875:5881   */\n      dup5\n        /* \"#utility.yul\":5871:5888   */\n      add\n        /* \"#utility.yul\":5867:5894   */\n      slt\n        /* \"#utility.yul\":5857:5979   */\n      tag_395\n      jumpi\n        /* \"#utility.yul\":5898:5977   */\n      tag_396\n      tag_307\n      jump\t// in\n    tag_396:\n        /* \"#utility.yul\":5857:5979   */\n    tag_395:\n        /* \"#utility.yul\":6011:6017   */\n      dup3\n        /* \"#utility.yul\":5998:6018   */\n      calldataload\n        /* \"#utility.yul\":5988:6018   */\n      swap1\n      pop\n        /* \"#utility.yul\":6041:6059   */\n      0xffffffffffffffff\n        /* \"#utility.yul\":6033:6039   */\n      dup2\n        /* \"#utility.yul\":6030:6060   */\n      gt\n        /* \"#utility.yul\":6027:6144   */\n      iszero\n      tag_397\n      jumpi\n        /* \"#utility.yul\":6063:6142   */\n      tag_398\n      tag_308\n      jump\t// in\n    tag_398:\n        /* \"#utility.yul\":6027:6144   */\n    tag_397:\n        /* \"#utility.yul\":6177:6181   */\n      0x20\n        /* \"#utility.yul\":6169:6175   */\n      dup4\n        /* \"#utility.yul\":6165:6182   */\n      add\n        /* \"#utility.yul\":6153:6182   */\n      swap2\n      pop\n        /* \"#utility.yul\":6231:6234   */\n      dup4\n        /* \"#utility.yul\":6223:6227   */\n      0x20\n        /* \"#utility.yul\":6215:6221   */\n      dup3\n        /* \"#utility.yul\":6211:6228   */\n      mul\n        /* \"#utility.yul\":6201:6209   */\n      dup4\n        /* \"#utility.yul\":6197:6229   */\n      add\n        /* \"#utility.yul\":6194:6235   */\n      gt\n        /* \"#utility.yul\":6191:6319   */\n      iszero\n      tag_399\n      jumpi\n        /* \"#utility.yul\":6238:6317   */\n      tag_400\n      tag_309\n      jump\t// in\n    tag_400:\n        /* \"#utility.yul\":6191:6319   */\n    tag_399:\n        /* \"#utility.yul\":5757:6325   */\n      swap3\n      pop\n      swap3\n      swap1\n      pop\n      jump\t// out\n        /* \"#utility.yul\":6331:7472   */\n    tag_50:\n        /* \"#utility.yul\":6453:6459   */\n      0x00\n        /* \"#utility.yul\":6461:6467   */\n      0x00\n        /* \"#utility.yul\":6469:6475   */\n      0x00\n        /* \"#utility.yul\":6477:6483   */\n      0x00\n        /* \"#utility.yul\":6485:6491   */\n      0x00\n        /* \"#utility.yul\":6493:6499   */\n      0x00\n        /* \"#utility.yul\":6542:6545   */\n      0xa0\n        /* \"#utility.yul\":6530:6539   */\n      dup8\n        /* \"#utility.yul\":6521:6528   */\n      dup10\n        /* \"#utility.yul\":6517:6540   */\n      sub\n        /* \"#utility.yul\":6513:6546   */\n      slt\n        /* \"#utility.yul\":6510:6630   */\n      iszero\n      tag_402\n      jumpi\n        /* \"#utility.yul\":6549:6628   */\n      tag_403\n      tag_288\n      jump\t// in\n    tag_403:\n        /* \"#utility.yul\":6510:6630   */\n    tag_402:\n        /* \"#utility.yul\":6669:6670   */\n      0x00\n        /* \"#utility.yul\":6694:6747   */\n      tag_404\n        /* \"#utility.yul\":6739:6746   */\n      dup10\n        /* \"#utility.yul\":6730:6736   */\n      dup3\n        /* \"#utility.yul\":6719:6728   */\n      dup11\n        /* \"#utility.yul\":6715:6737   */\n      add\n        /* \"#utility.yul\":6694:6747   */\n      tag_292\n      jump\t// in\n    tag_404:\n        /* \"#utility.yul\":6684:6747   */\n      swap7\n      pop\n        /* \"#utility.yul\":6640:6757   */\n      pop\n        /* \"#utility.yul\":6796:6798   */\n      0x20\n        /* \"#utility.yul\":6822:6875   */\n      tag_405\n        /* \"#utility.yul\":6867:6874   */\n      dup10\n        /* \"#utility.yul\":6858:6864   */\n      dup3\n        /* \"#utility.yul\":6847:6856   */\n      dup11\n        /* \"#utility.yul\":6843:6865   */\n      add\n        /* \"#utility.yul\":6822:6875   */\n      tag_292\n      jump\t// in\n    tag_405:\n        /* \"#utility.yul\":6812:6875   */\n      swap6\n      pop\n        /* \"#utility.yul\":6767:6885   */\n      pop\n        /* \"#utility.yul\":6952:6954   */\n      0x40\n        /* \"#utility.yul\":6941:6950   */\n      dup8\n        /* \"#utility.yul\":6937:6955   */\n      add\n        /* \"#utility.yul\":6924:6956   */\n      calldataload\n        /* \"#utility.yul\":6983:7001   */\n      0xffffffffffffffff\n        /* \"#utility.yul\":6975:6981   */\n      dup2\n        /* \"#utility.yul\":6972:7002   */\n      gt\n        /* \"#utility.yul\":6969:7086   */\n      iszero\n      tag_406\n      jumpi\n        /* \"#utility.yul\":7005:7084   */\n      tag_407\n      tag_289\n      jump\t// in\n    tag_407:\n        /* \"#utility.yul\":6969:7086   */\n    tag_406:\n        /* \"#utility.yul\":7118:7198   */\n      tag_408\n        /* \"#utility.yul\":7190:7197   */\n      dup10\n        /* \"#utility.yul\":7181:7187   */\n      dup3\n        /* \"#utility.yul\":7170:7179   */\n      dup11\n        /* \"#utility.yul\":7166:7188   */\n      add\n        /* \"#utility.yul\":7118:7198   */\n      tag_310\n      jump\t// in\n    tag_408:\n        /* \"#utility.yul\":7100:7198   */\n      swap5\n      pop\n      swap5\n      pop\n        /* \"#utility.yul\":6895:7208   */\n      pop\n        /* \"#utility.yul\":7247:7249   */\n      0x60\n        /* \"#utility.yul\":7273:7326   */\n      tag_409\n        /* \"#utility.yul\":7318:7325   */\n      dup10\n        /* \"#utility.yul\":7309:7315   */\n      dup3\n        /* \"#utility.yul\":7298:7307   */\n      dup11\n        /* \"#utility.yul\":7294:7316   */\n      add\n        /* \"#utility.yul\":7273:7326   */\n      tag_302\n      jump\t// in\n    tag_409:\n        /* \"#utility.yul\":7263:7326   */\n      swap3\n      pop\n        /* \"#utility.yul\":7218:7336   */\n      pop\n        /* \"#utility.yul\":7375:7378   */\n      0x80\n        /* \"#utility.yul\":7402:7455   */\n      tag_410\n        /* \"#utility.yul\":7447:7454   */\n      dup10\n        /* \"#utility.yul\":7438:7444   */\n      dup3\n        /* \"#utility.yul\":7427:7436   */\n      dup11\n        /* \"#utility.yul\":7423:7445   */\n      add\n        /* \"#utility.yul\":7402:7455   */\n      tag_292\n      jump\t// in\n    tag_410:\n        /* \"#utility.yul\":7392:7455   */\n      swap2\n      pop\n        /* \"#utility.yul\":7346:7465   */\n      pop\n        /* \"#utility.yul\":6331:7472   */\n      swap3\n      swap6\n      pop\n      swap3\n      swap6\n      pop\n      swap3\n      swap6\n      jump\t// out\n        /* \"#utility.yul\":7478:7592   */\n    tag_311:\n        /* \"#utility.yul\":7545:7551   */\n      0x00\n        /* \"#utility.yul\":7579:7584   */\n      dup2\n        /* \"#utility.yul\":7573:7585   */\n      mload\n        /* \"#utility.yul\":7563:7585   */\n      swap1\n      pop\n        /* \"#utility.yul\":7478:7592   */\n      swap2\n      swap1\n      pop\n      jump\t// out\n        /* \"#utility.yul\":7598:7782   */\n    tag_312:\n        /* \"#utility.yul\":7697:7708   */\n      0x00\n        /* \"#utility.yul\":7731:7737   */\n      dup3\n        /* \"#utility.yul\":7726:7729   */\n      dup3\n        /* \"#utility.yul\":7719:7738   */\n      mstore\n        /* \"#utility.yul\":7771:7775   */\n      0x20\n        /* \"#utility.yul\":7766:7769   */\n      dup3\n        /* \"#utility.yul\":7762:7776   */\n      add\n        /* \"#utility.yul\":7747:7776   */\n      swap1\n      pop\n        /* \"#utility.yul\":7598:7782   */\n      swap3\n      swap2\n      pop\n      pop\n      jump\t// out\n        /* \"#utility.yul\":7788:7920   */\n    tag_313:\n        /* \"#utility.yul\":7855:7859   */\n      0x00\n        /* \"#utility.yul\":7878:7881   */\n      dup2\n        /* \"#utility.yul\":7870:7881   */\n      swap1\n      pop\n        /* \"#utility.yul\":7908:7912   */\n      0x20\n        /* \"#utility.yul\":7903:7906   */\n      dup3\n        /* \"#utility.yul\":7899:7913   */\n      add\n        /* \"#utility.yul\":7891:7913   */\n      swap1\n      pop\n        /* \"#utility.yul\":7788:7920   */\n      swap2\n      swap1\n      pop\n      jump\t// out\n        /* \"#utility.yul\":7926:8034   */\n    tag_314:\n        /* \"#utility.yul\":8003:8027   */\n      tag_415\n        /* \"#utility.yul\":8021:8026   */\n      dup2\n        /* \"#utility.yul\":8003:8027   */\n      tag_290\n      jump\t// in\n    tag_415:\n        /* \"#utility.yul\":7998:8001   */\n      dup3\n        /* \"#utility.yul\":7991:8028   */\n      mstore\n        /* \"#utility.yul\":7926:8034   */\n      pop\n      pop\n      jump\t// out\n        /* \"#utility.yul\":8040:8219   */\n    tag_315:\n        /* \"#utility.yul\":8109:8119   */\n      0x00\n        /* \"#utility.yul\":8130:8176   */\n      tag_417\n        /* \"#utility.yul\":8172:8175   */\n      dup4\n        /* \"#utility.yul\":8164:8170   */\n      dup4\n        /* \"#utility.yul\":8130:8176   */\n      tag_314\n      jump\t// in\n    tag_417:\n        /* \"#utility.yul\":8208:8212   */\n      0x20\n        /* \"#utility.yul\":8203:8206   */\n      dup4\n        /* \"#utility.yul\":8199:8213   */\n      add\n        /* \"#utility.yul\":8185:8213   */\n      swap1\n      pop\n        /* \"#utility.yul\":8040:8219   */\n      swap3\n      swap2\n      pop\n      pop\n      jump\t// out\n        /* \"#utility.yul\":8225:8338   */\n    tag_316:\n        /* \"#utility.yul\":8295:8299   */\n      0x00\n        /* \"#utility.yul\":8327:8331   */\n      0x20\n        /* \"#utility.yul\":8322:8325   */\n      dup3\n        /* \"#utility.yul\":8318:8332   */\n      add\n        /* \"#utility.yul\":8310:8332   */\n      swap1\n      pop\n        /* \"#utility.yul\":8225:8338   */\n      swap2\n      swap1\n      pop\n      jump\t// out\n        /* \"#utility.yul\":8374:9106   */\n    tag_317:\n        /* \"#utility.yul\":8493:8496   */\n      0x00\n        /* \"#utility.yul\":8522:8576   */\n      tag_420\n        /* \"#utility.yul\":8570:8575   */\n      dup3\n        /* \"#utility.yul\":8522:8576   */\n      tag_311\n      jump\t// in\n    tag_420:\n        /* \"#utility.yul\":8592:8678   */\n      tag_421\n        /* \"#utility.yul\":8671:8677   */\n      dup2\n        /* \"#utility.yul\":8666:8669   */\n      dup6\n        /* \"#utility.yul\":8592:8678   */\n      tag_312\n      jump\t// in\n    tag_421:\n        /* \"#utility.yul\":8585:8678   */\n      swap4\n      pop\n        /* \"#utility.yul\":8702:8758   */\n      tag_422\n        /* \"#utility.yul\":8752:8757   */\n      dup4\n        /* \"#utility.yul\":8702:8758   */\n      tag_313\n      jump\t// in\n    tag_422:\n        /* \"#utility.yul\":8781:8788   */\n      dup1\n        /* \"#utility.yul\":8812:8813   */\n      0x00\n        /* \"#utility.yul\":8797:9081   */\n    tag_423:\n        /* \"#utility.yul\":8822:8828   */\n      dup4\n        /* \"#utility.yul\":8819:8820   */\n      dup2\n        /* \"#utility.yul\":8816:8829   */\n      lt\n        /* \"#utility.yul\":8797:9081   */\n      iszero\n      tag_425\n      jumpi\n        /* \"#utility.yul\":8898:8904   */\n      dup2\n        /* \"#utility.yul\":8892:8905   */\n      mload\n        /* \"#utility.yul\":8925:8988   */\n      tag_426\n        /* \"#utility.yul\":8984:8987   */\n      dup9\n        /* \"#utility.yul\":8969:8982   */\n      dup3\n        /* \"#utility.yul\":8925:8988   */\n      tag_315\n      jump\t// in\n    tag_426:\n        /* \"#utility.yul\":8918:8988   */\n      swap8\n      pop\n        /* \"#utility.yul\":9011:9071   */\n      tag_427\n        /* \"#utility.yul\":9064:9070   */\n      dup4\n        /* \"#utility.yul\":9011:9071   */\n      tag_316\n      jump\t// in\n    tag_427:\n        /* \"#utility.yul\":9001:9071   */\n      swap3\n      pop\n        /* \"#utility.yul\":8857:9081   */\n      pop\n        /* \"#utility.yul\":8844:8845   */\n      0x01\n        /* \"#utility.yul\":8841:8842   */\n      dup2\n        /* \"#utility.yul\":8837:8846   */\n      add\n        /* \"#utility.yul\":8832:8846   */\n      swap1\n      pop\n        /* \"#utility.yul\":8797:9081   */\n      jump(tag_423)\n    tag_425:\n        /* \"#utility.yul\":8801:8815   */\n      pop\n        /* \"#utility.yul\":9097:9100   */\n      dup6\n        /* \"#utility.yul\":9090:9100   */\n      swap4\n      pop\n        /* \"#utility.yul\":8498:9106   */\n      pop\n      pop\n      pop\n        /* \"#utility.yul\":8374:9106   */\n      swap3\n      swap2\n      pop\n      pop\n      jump\t// out\n        /* \"#utility.yul\":9112:9485   */\n    tag_53:\n        /* \"#utility.yul\":9255:9259   */\n      0x00\n        /* \"#utility.yul\":9293:9295   */\n      0x20\n        /* \"#utility.yul\":9282:9291   */\n      dup3\n        /* \"#utility.yul\":9278:9296   */\n      add\n        /* \"#utility.yul\":9270:9296   */\n      swap1\n      pop\n        /* \"#utility.yul\":9342:9351   */\n      dup2\n        /* \"#utility.yul\":9336:9340   */\n      dup2\n        /* \"#utility.yul\":9332:9352   */\n      sub\n        /* \"#utility.yul\":9328:9329   */\n      0x00\n        /* \"#utility.yul\":9317:9326   */\n      dup4\n        /* \"#utility.yul\":9313:9330   */\n      add\n        /* \"#utility.yul\":9306:9353   */\n      mstore\n        /* \"#utility.yul\":9370:9478   */\n      tag_429\n        /* \"#utility.yul\":9473:9477   */\n      dup2\n        /* \"#utility.yul\":9464:9470   */\n      dup5\n        /* \"#utility.yul\":9370:9478   */\n      tag_317\n      jump\t// in\n    tag_429:\n        /* \"#utility.yul\":9362:9478   */\n      swap1\n      pop\n        /* \"#utility.yul\":9112:9485   */\n      swap3\n      swap2\n      pop\n      pop\n      jump\t// out\n        /* \"#utility.yul\":9491:9820   */\n    tag_56:\n        /* \"#utility.yul\":9550:9556   */\n      0x00\n        /* \"#utility.yul\":9599:9601   */\n      0x20\n        /* \"#utility.yul\":9587:9596   */\n      dup3\n        /* \"#utility.yul\":9578:9585   */\n      dup5\n        /* \"#utility.yul\":9574:9597   */\n      sub\n        /* \"#utility.yul\":9570:9602   */\n      slt\n        /* \"#utility.yul\":9567:9686   */\n      iszero\n      tag_431\n      jumpi\n        /* \"#utility.yul\":9605:9684   */\n      tag_432\n      tag_288\n      jump\t// in\n    tag_432:\n        /* \"#utility.yul\":9567:9686   */\n    tag_431:\n        /* \"#utility.yul\":9725:9726   */\n      0x00\n        /* \"#utility.yul\":9750:9803   */\n      tag_433\n        /* \"#utility.yul\":9795:9802   */\n      dup5\n        /* \"#utility.yul\":9786:9792   */\n      dup3\n        /* \"#utility.yul\":9775:9784   */\n      dup6\n        /* \"#utility.yul\":9771:9793   */\n      add\n        /* \"#utility.yul\":9750:9803   */\n      tag_302\n      jump\t// in\n    tag_433:\n        /* \"#utility.yul\":9740:9803   */\n      swap2\n      pop\n        /* \"#utility.yul\":9696:9813   */\n      pop\n        /* \"#utility.yul\":9491:9820   */\n      swap3\n      swap2\n      pop\n      pop\n      jump\t// out\n        /* \"#utility.yul\":9826:10300   */\n    tag_68:\n        /* \"#utility.yul\":9894:9900   */\n      0x00\n        /* \"#utility.yul\":9902:9908   */\n      0x00\n        /* \"#utility.yul\":9951:9953   */\n      0x40\n        /* \"#utility.yul\":9939:9948   */\n      dup4\n        /* \"#utility.yul\":9930:9937   */\n      dup6\n        /* \"#utility.yul\":9926:9949   */\n      sub\n        /* \"#utility.yul\":9922:9954   */\n      slt\n        /* \"#utility.yul\":9919:10038   */\n      iszero\n      tag_435\n      jumpi\n        /* \"#utility.yul\":9957:10036   */\n      tag_436\n      tag_288\n      jump\t// in\n    tag_436:\n        /* \"#utility.yul\":9919:10038   */\n    tag_435:\n        /* \"#utility.yul\":10077:10078   */\n      0x00\n        /* \"#utility.yul\":10102:10155   */\n      tag_437\n        /* \"#utility.yul\":10147:10154   */\n      dup6\n        /* \"#utility.yul\":10138:10144   */\n      dup3\n        /* \"#utility.yul\":10127:10136   */\n      dup7\n        /* \"#utility.yul\":10123:10145   */\n      add\n        /* \"#utility.yul\":10102:10155   */\n      tag_302\n      jump\t// in\n    tag_437:\n        /* \"#utility.yul\":10092:10155   */\n      swap3\n      pop\n        /* \"#utility.yul\":10048:10165   */\n      pop\n        /* \"#utility.yul\":10204:10206   */\n      0x20\n        /* \"#utility.yul\":10230:10283   */\n      tag_438\n        /* \"#utility.yul\":10275:10282   */\n      dup6\n        /* \"#utility.yul\":10266:10272   */\n      dup3\n        /* \"#utility.yul\":10255:10264   */\n      dup7\n        /* \"#utility.yul\":10251:10273   */\n      add\n        /* \"#utility.yul\":10230:10283   */\n      tag_302\n      jump\t// in\n    tag_438:\n        /* \"#utility.yul\":10220:10283   */\n      swap2\n      pop\n        /* \"#utility.yul\":10175:10293   */\n      pop\n        /* \"#utility.yul\":9826:10300   */\n      swap3\n      pop\n      swap3\n      swap1\n      pop\n      jump\t// out\n        /* \"#utility.yul\":10306:11509   */\n    tag_73:\n        /* \"#utility.yul\":10419:10425   */\n      0x00\n        /* \"#utility.yul\":10427:10433   */\n      0x00\n        /* \"#utility.yul\":10435:10441   */\n      0x00\n        /* \"#utility.yul\":10443:10449   */\n      0x00\n        /* \"#utility.yul\":10451:10457   */\n      0x00\n        /* \"#utility.yul\":10459:10465   */\n      0x00\n        /* \"#utility.yul\":10467:10473   */\n      0x00\n        /* \"#utility.yul\":10516:10519   */\n      0xe0\n        /* \"#utility.yul\":10504:10513   */\n      dup9\n        /* \"#utility.yul\":10495:10502   */\n      dup11\n        /* \"#utility.yul\":10491:10514   */\n      sub\n        /* \"#utility.yul\":10487:10520   */\n      slt\n        /* \"#utility.yul\":10484:10604   */\n      iszero\n      tag_440\n      jumpi\n        /* \"#utility.yul\":10523:10602   */\n      tag_441\n      tag_288\n      jump\t// in\n    tag_441:\n        /* \"#utility.yul\":10484:10604   */\n    tag_440:\n        /* \"#utility.yul\":10643:10644   */\n      0x00\n        /* \"#utility.yul\":10668:10721   */\n      tag_442\n        /* \"#utility.yul\":10713:10720   */\n      dup11\n        /* \"#utility.yul\":10704:10710   */\n      dup3\n        /* \"#utility.yul\":10693:10702   */\n      dup12\n        /* \"#utility.yul\":10689:10711   */\n      add\n        /* \"#utility.yul\":10668:10721   */\n      tag_302\n      jump\t// in\n    tag_442:\n        /* \"#utility.yul\":10658:10721   */\n      swap8\n      pop\n        /* \"#utility.yul\":10614:10731   */\n      pop\n        /* \"#utility.yul\":10770:10772   */\n      0x20\n        /* \"#utility.yul\":10796:10849   */\n      tag_443\n        /* \"#utility.yul\":10841:10848   */\n      dup11\n        /* \"#utility.yul\":10832:10838   */\n      dup3\n        /* \"#utility.yul\":10821:10830   */\n      dup12\n        /* \"#utility.yul\":10817:10839   */\n      add\n        /* \"#utility.yul\":10796:10849   */\n      tag_302\n      jump\t// in\n    tag_443:\n        /* \"#utility.yul\":10786:10849   */\n      swap7\n      pop\n        /* \"#utility.yul\":10741:10859   */\n      pop\n        /* \"#utility.yul\":10898:10900   */\n      0x40\n        /* \"#utility.yul\":10924:10977   */\n      tag_444\n        /* \"#utility.yul\":10969:10976   */\n      dup11\n        /* \"#utility.yul\":10960:10966   */\n      dup3\n        /* \"#utility.yul\":10949:10958   */\n      dup12\n        /* \"#utility.yul\":10945:10967   */\n      add\n        /* \"#utility.yul\":10924:10977   */\n      tag_292\n      jump\t// in\n    tag_444:\n        /* \"#utility.yul\":10914:10977   */\n      swap6\n      pop\n        /* \"#utility.yul\":10869:10987   */\n      pop\n        /* \"#utility.yul\":11026:11028   */\n      0x60\n        /* \"#utility.yul\":11052:11105   */\n      tag_445\n        /* \"#utility.yul\":11097:11104   */\n      dup11\n        /* \"#utility.yul\":11088:11094   */\n      dup3\n        /* \"#utility.yul\":11077:11086   */\n      dup12\n        /* \"#utility.yul\":11073:11095   */\n      add\n        /* \"#utility.yul\":11052:11105   */\n      tag_292\n      jump\t// in\n    tag_445:\n        /* \"#utility.yul\":11042:11105   */\n      swap5\n      pop\n        /* \"#utility.yul\":10997:11115   */\n      pop\n        /* \"#utility.yul\":11154:11157   */\n      0x80\n        /* \"#utility.yul\":11181:11234   */\n      tag_446\n        /* \"#utility.yul\":11226:11233   */\n      dup11\n        /* \"#utility.yul\":11217:11223   */\n      dup3\n        /* \"#utility.yul\":11206:11215   */\n      dup12\n        /* \"#utility.yul\":11202:11224   */\n      add\n        /* \"#utility.yul\":11181:11234   */\n      tag_292\n      jump\t// in\n    tag_446:\n        /* \"#utility.yul\":11171:11234   */\n      swap4\n      pop\n        /* \"#utility.yul\":11125:11244   */\n      pop\n        /* \"#utility.yul\":11283:11286   */\n      0xa0\n        /* \"#utility.yul\":11310:11363   */\n      tag_447\n        /* \"#utility.yul\":11355:11362   */\n      dup11\n        /* \"#utility.yul\":11346:11352   */\n      dup3\n        /* \"#utility.yul\":11335:11344   */\n      dup12\n        /* \"#utility.yul\":11331:11353   */\n      add\n        /* \"#utility.yul\":11310:11363   */\n      tag_302\n      jump\t// in\n    tag_447:\n        /* \"#utility.yul\":11300:11363   */\n      swap3\n      pop\n        /* \"#utility.yul\":11254:11373   */\n      pop\n        /* \"#utility.yul\":11412:11415   */\n      0xc0\n        /* \"#utility.yul\":11439:11492   */\n      tag_448\n        /* \"#utility.yul\":11484:11491   */\n      dup11\n        /* \"#utility.yul\":11475:11481   */\n      dup3\n        /* \"#utility.yul\":11464:11473   */\n      dup12\n        /* \"#utility.yul\":11460:11482   */\n      add\n        /* \"#utility.yul\":11439:11492   */\n      tag_292\n      jump\t// in\n    tag_448:\n        /* \"#utility.yul\":11429:11492   */\n      swap2\n      pop\n        /* \"#utility.yul\":11383:11502   */\n      pop\n        /* \"#utility.yul\":10306:11509   */\n      swap3\n      swap6\n      swap9\n      swap2\n      swap5\n      swap8\n      pop\n      swap3\n      swap6\n      pop\n      jump\t// out\n        /* \"#utility.yul\":11515:11847   */\n    tag_76:\n        /* \"#utility.yul\":11636:11640   */\n      0x00\n        /* \"#utility.yul\":11674:11676   */\n      0x40\n        /* \"#utility.yul\":11663:11672   */\n      dup3\n        /* \"#utility.yul\":11659:11677   */\n      add\n        /* \"#utility.yul\":11651:11677   */\n      swap1\n      pop\n        /* \"#utility.yul\":11687:11758   */\n      tag_450\n        /* \"#utility.yul\":11755:11756   */\n      0x00\n        /* \"#utility.yul\":11744:11753   */\n      dup4\n        /* \"#utility.yul\":11740:11757   */\n      add\n        /* \"#utility.yul\":11731:11737   */\n      dup6\n        /* \"#utility.yul\":11687:11758   */\n      tag_293\n      jump\t// in\n    tag_450:\n        /* \"#utility.yul\":11768:11840   */\n      tag_451\n        /* \"#utility.yul\":11836:11838   */\n      0x20\n        /* \"#utility.yul\":11825:11834   */\n      dup4\n        /* \"#utility.yul\":11821:11839   */\n      add\n        /* \"#utility.yul\":11812:11818   */\n      dup5\n        /* \"#utility.yul\":11768:11840   */\n      tag_293\n      jump\t// in\n    tag_451:\n        /* \"#utility.yul\":11515:11847   */\n      swap4\n      swap3\n      pop\n      pop\n      pop\n      jump\t// out\n        /* \"#utility.yul\":11853:13202   */\n    tag_83:\n        /* \"#utility.yul\":11975:11981   */\n      0x00\n        /* \"#utility.yul\":11983:11989   */\n      0x00\n        /* \"#utility.yul\":11991:11997   */\n      0x00\n        /* \"#utility.yul\":11999:12005   */\n      0x00\n        /* \"#utility.yul\":12007:12013   */\n      0x00\n        /* \"#utility.yul\":12015:12021   */\n      0x00\n        /* \"#utility.yul\":12023:12029   */\n      0x00\n        /* \"#utility.yul\":12031:12037   */\n      0x00\n        /* \"#utility.yul\":12080:12083   */\n      0x0100\n        /* \"#utility.yul\":12068:12077   */\n      dup10\n        /* \"#utility.yul\":12059:12066   */\n      dup12\n        /* \"#utility.yul\":12055:12078   */\n      sub\n        /* \"#utility.yul\":12051:12084   */\n      slt\n        /* \"#utility.yul\":12048:12168   */\n      iszero\n      tag_453\n      jumpi\n        /* \"#utility.yul\":12087:12166   */\n      tag_454\n      tag_288\n      jump\t// in\n    tag_454:\n        /* \"#utility.yul\":12048:12168   */\n    tag_453:\n        /* \"#utility.yul\":12207:12208   */\n      0x00\n        /* \"#utility.yul\":12232:12285   */\n      tag_455\n        /* \"#utility.yul\":12277:12284   */\n      dup12\n        /* \"#utility.yul\":12268:12274   */\n      dup3\n        /* \"#utility.yul\":12257:12266   */\n      dup13\n        /* \"#utility.yul\":12253:12275   */\n      add\n        /* \"#utility.yul\":12232:12285   */\n      tag_302\n      jump\t// in\n    tag_455:\n        /* \"#utility.yul\":12222:12285   */\n      swap9\n      pop\n        /* \"#utility.yul\":12178:12295   */\n      pop\n        /* \"#utility.yul\":12334:12336   */\n      0x20\n        /* \"#utility.yul\":12360:12413   */\n      tag_456\n        /* \"#utility.yul\":12405:12412   */\n      dup12\n        /* \"#utility.yul\":12396:12402   */\n      dup3\n        /* \"#utility.yul\":12385:12394   */\n      dup13\n        /* \"#utility.yul\":12381:12403   */\n      add\n        /* \"#utility.yul\":12360:12413   */\n      tag_302\n      jump\t// in\n    tag_456:\n        /* \"#utility.yul\":12350:12413   */\n      swap8\n      pop\n        /* \"#utility.yul\":12305:12423   */\n      pop\n        /* \"#utility.yul\":12462:12464   */\n      0x40\n        /* \"#utility.yul\":12488:12541   */\n      tag_457\n        /* \"#utility.yul\":12533:12540   */\n      dup12\n        /* \"#utility.yul\":12524:12530   */\n      dup3\n        /* \"#utility.yul\":12513:12522   */\n      dup13\n        /* \"#utility.yul\":12509:12531   */\n      add\n        /* \"#utility.yul\":12488:12541   */\n      tag_292\n      jump\t// in\n    tag_457:\n        /* \"#utility.yul\":12478:12541   */\n      swap7\n      pop\n        /* \"#utility.yul\":12433:12551   */\n      pop\n        /* \"#utility.yul\":12590:12592   */\n      0x60\n        /* \"#utility.yul\":12616:12669   */\n      tag_458\n        /* \"#utility.yul\":12661:12668   */\n      dup12\n        /* \"#utility.yul\":12652:12658   */\n      dup3\n        /* \"#utility.yul\":12641:12650   */\n      dup13\n        /* \"#utility.yul\":12637:12659   */\n      add\n        /* \"#utility.yul\":12616:12669   */\n      tag_292\n      jump\t// in\n    tag_458:\n        /* \"#utility.yul\":12606:12669   */\n      swap6\n      pop\n        /* \"#utility.yul\":12561:12679   */\n      pop\n        /* \"#utility.yul\":12718:12721   */\n      0x80\n        /* \"#utility.yul\":12745:12798   */\n      tag_459\n        /* \"#utility.yul\":12790:12797   */\n      dup12\n        /* \"#utility.yul\":12781:12787   */\n      dup3\n        /* \"#utility.yul\":12770:12779   */\n      dup13\n        /* \"#utility.yul\":12766:12788   */\n      add\n        /* \"#utility.yul\":12745:12798   */\n      tag_292\n      jump\t// in\n    tag_459:\n        /* \"#utility.yul\":12735:12798   */\n      swap5\n      pop\n        /* \"#utility.yul\":12689:12808   */\n      pop\n        /* \"#utility.yul\":12847:12850   */\n      0xa0\n        /* \"#utility.yul\":12874:12927   */\n      tag_460\n        /* \"#utility.yul\":12919:12926   */\n      dup12\n        /* \"#utility.yul\":12910:12916   */\n      dup3\n        /* \"#utility.yul\":12899:12908   */\n      dup13\n        /* \"#utility.yul\":12895:12917   */\n      add\n        /* \"#utility.yul\":12874:12927   */\n      tag_292\n      jump\t// in\n    tag_460:\n        /* \"#utility.yul\":12864:12927   */\n      swap4\n      pop\n        /* \"#utility.yul\":12818:12937   */\n      pop\n        /* \"#utility.yul\":12976:12979   */\n      0xc0\n        /* \"#utility.yul\":13003:13056   */\n      tag_461\n        /* \"#utility.yul\":13048:13055   */\n      dup12\n        /* \"#utility.yul\":13039:13045   */\n      dup3\n        /* \"#utility.yul\":13028:13037   */\n      dup13\n        /* \"#utility.yul\":13024:13046   */\n      add\n        /* \"#utility.yul\":13003:13056   */\n      tag_302\n      jump\t// in\n    tag_461:\n        /* \"#utility.yul\":12993:13056   */\n      swap3\n      pop\n        /* \"#utility.yul\":12947:13066   */\n      pop\n        /* \"#utility.yul\":13105:13108   */\n      0xe0\n        /* \"#utility.yul\":13132:13185   */\n      tag_462\n        /* \"#utility.yul\":13177:13184   */\n      dup12\n        /* \"#utility.yul\":13168:13174   */\n      dup3\n        /* \"#utility.yul\":13157:13166   */\n      dup13\n        /* \"#utility.yul\":13153:13175   */\n      add\n        /* \"#utility.yul\":13132:13185   */\n      tag_292\n      jump\t// in\n    tag_462:\n        /* \"#utility.yul\":13122:13185   */\n      swap2\n      pop\n        /* \"#utility.yul\":13076:13195   */\n      pop\n        /* \"#utility.yul\":11853:13202   */\n      swap3\n      swap6\n      swap9\n      pop\n      swap3\n      swap6\n      swap9\n      swap1\n      swap4\n      swap7\n      pop\n      jump\t// out\n        /* \"#utility.yul\":13208:13650   */\n    tag_86:\n        /* \"#utility.yul\":13357:13361   */\n      0x00\n        /* \"#utility.yul\":13395:13397   */\n      0x60\n        /* \"#utility.yul\":13384:13393   */\n      dup3\n        /* \"#utility.yul\":13380:13398   */\n      add\n        /* \"#utility.yul\":13372:13398   */\n      swap1\n      pop\n        /* \"#utility.yul\":13408:13479   */\n      tag_464\n        /* \"#utility.yul\":13476:13477   */\n      0x00\n        /* \"#utility.yul\":13465:13474   */\n      dup4\n        /* \"#utility.yul\":13461:13478   */\n      add\n        /* \"#utility.yul\":13452:13458   */\n      dup7\n        /* \"#utility.yul\":13408:13479   */\n      tag_293\n      jump\t// in\n    tag_464:\n        /* \"#utility.yul\":13489:13561   */\n      tag_465\n        /* \"#utility.yul\":13557:13559   */\n      0x20\n        /* \"#utility.yul\":13546:13555   */\n      dup4\n        /* \"#utility.yul\":13542:13560   */\n      add\n        /* \"#utility.yul\":13533:13539   */\n      dup6\n        /* \"#utility.yul\":13489:13561   */\n      tag_293\n      jump\t// in\n    tag_465:\n        /* \"#utility.yul\":13571:13643   */\n      tag_466\n        /* \"#utility.yul\":13639:13641   */\n      0x40\n        /* \"#utility.yul\":13628:13637   */\n      dup4\n        /* \"#utility.yul\":13624:13642   */\n      add\n        /* \"#utility.yul\":13615:13621   */\n      dup5\n        /* \"#utility.yul\":13571:13643   */\n      tag_293\n      jump\t// in\n    tag_466:\n        /* \"#utility.yul\":13208:13650   */\n      swap5\n      swap4\n      pop\n      pop\n      pop\n      pop\n      jump\t// out\n        /* \"#utility.yul\":13656:13836   */\n    tag_318:\n        /* \"#utility.yul\":13704:13781   */\n      0x4e487b7100000000000000000000000000000000000000000000000000000000\n        /* \"#utility.yul\":13701:13702   */\n      0x00\n        /* \"#utility.yul\":13694:13782   */\n      mstore\n        /* \"#utility.yul\":13801:13805   */\n      0x11\n        /* \"#utility.yul\":13798:13799   */\n      0x04\n        /* \"#utility.yul\":13791:13806   */\n      mstore\n        /* \"#utility.yul\":13825:13829   */\n      0x24\n        /* \"#utility.yul\":13822:13823   */\n      0x00\n        /* \"#utility.yul\":13815:13830   */\n      revert\n        /* \"#utility.yul\":13842:14033   */\n    tag_89:\n        /* \"#utility.yul\":13882:13885   */\n      0x00\n        /* \"#utility.yul\":13901:13921   */\n      tag_469\n        /* \"#utility.yul\":13919:13920   */\n      dup3\n        /* \"#utility.yul\":13901:13921   */\n      tag_290\n      jump\t// in\n    tag_469:\n        /* \"#utility.yul\":13896:13921   */\n      swap2\n      pop\n        /* \"#utility.yul\":13935:13955   */\n      tag_470\n        /* \"#utility.yul\":13953:13954   */\n      dup4\n        /* \"#utility.yul\":13935:13955   */\n      tag_290\n      jump\t// in\n    tag_470:\n        /* \"#utility.yul\":13930:13955   */\n      swap3\n      pop\n        /* \"#utility.yul\":13978:13979   */\n      dup3\n        /* \"#utility.yul\":13975:13976   */\n      dup3\n        /* \"#utility.yul\":13971:13980   */\n      add\n        /* \"#utility.yul\":13964:13980   */\n      swap1\n      pop\n        /* \"#utility.yul\":13999:14002   */\n      dup1\n        /* \"#utility.yul\":13996:13997   */\n      dup3\n        /* \"#utility.yul\":13993:14003   */\n      gt\n        /* \"#utility.yul\":13990:14026   */\n      iszero\n      tag_471\n      jumpi\n        /* \"#utility.yul\":14006:14024   */\n      tag_472\n      tag_318\n      jump\t// in\n    tag_472:\n        /* \"#utility.yul\":13990:14026   */\n    tag_471:\n        /* \"#utility.yul\":13842:14033   */\n      swap3\n      swap2\n      pop\n      pop\n      jump\t// out\n        /* \"#utility.yul\":14039:14449   */\n    tag_91:\n        /* \"#utility.yul\":14079:14086   */\n      0x00\n        /* \"#utility.yul\":14102:14122   */\n      tag_474\n        /* \"#utility.yul\":14120:14121   */\n      dup3\n        /* \"#utility.yul\":14102:14122   */\n      tag_290\n      jump\t// in\n    tag_474:\n        /* \"#utility.yul\":14097:14122   */\n      swap2\n      pop\n        /* \"#utility.yul\":14136:14156   */\n      tag_475\n        /* \"#utility.yul\":14154:14155   */\n      dup4\n        /* \"#utility.yul\":14136:14156   */\n      tag_290\n      jump\t// in\n    tag_475:\n        /* \"#utility.yul\":14131:14156   */\n      swap3\n      pop\n        /* \"#utility.yul\":14191:14192   */\n      dup3\n        /* \"#utility.yul\":14188:14189   */\n      dup3\n        /* \"#utility.yul\":14184:14193   */\n      mul\n        /* \"#utility.yul\":14213:14243   */\n      tag_476\n        /* \"#utility.yul\":14231:14242   */\n      dup2\n        /* \"#utility.yul\":14213:14243   */\n      tag_290\n      jump\t// in\n    tag_476:\n        /* \"#utility.yul\":14202:14243   */\n      swap2\n      pop\n        /* \"#utility.yul\":14392:14393   */\n      dup3\n        /* \"#utility.yul\":14383:14390   */\n      dup3\n        /* \"#utility.yul\":14379:14394   */\n      div\n        /* \"#utility.yul\":14376:14377   */\n      dup5\n        /* \"#utility.yul\":14373:14395   */\n      eq\n        /* \"#utility.yul\":14353:14354   */\n      dup4\n        /* \"#utility.yul\":14346:14355   */\n      iszero\n        /* \"#utility.yul\":14326:14409   */\n      or\n        /* \"#utility.yul\":14303:14442   */\n      tag_477\n      jumpi\n        /* \"#utility.yul\":14422:14440   */\n      tag_478\n      tag_318\n      jump\t// in\n    tag_478:\n        /* \"#utility.yul\":14303:14442   */\n    tag_477:\n        /* \"#utility.yul\":14087:14449   */\n      pop\n        /* \"#utility.yul\":14039:14449   */\n      swap3\n      swap2\n      pop\n      pop\n      jump\t// out\n        /* \"#utility.yul\":14455:14635   */\n    tag_319:\n        /* \"#utility.yul\":14503:14580   */\n      0x4e487b7100000000000000000000000000000000000000000000000000000000\n        /* \"#utility.yul\":14500:14501   */\n      0x00\n        /* \"#utility.yul\":14493:14581   */\n      mstore\n        /* \"#utility.yul\":14600:14604   */\n      0x12\n        /* \"#utility.yul\":14597:14598   */\n      0x04\n        /* \"#utility.yul\":14590:14605   */\n      mstore\n        /* \"#utility.yul\":14624:14628   */\n      0x24\n        /* \"#utility.yul\":14621:14622   */\n      0x00\n        /* \"#utility.yul\":14614:14629   */\n      revert\n        /* \"#utility.yul\":14641:14826   */\n    tag_93:\n        /* \"#utility.yul\":14681:14682   */\n      0x00\n        /* \"#utility.yul\":14698:14718   */\n      tag_481\n        /* \"#utility.yul\":14716:14717   */\n      dup3\n        /* \"#utility.yul\":14698:14718   */\n      tag_290\n      jump\t// in\n    tag_481:\n        /* \"#utility.yul\":14693:14718   */\n      swap2\n      pop\n        /* \"#utility.yul\":14732:14752   */\n      tag_482\n        /* \"#utility.yul\":14750:14751   */\n      dup4\n        /* \"#utility.yul\":14732:14752   */\n      tag_290\n      jump\t// in\n    tag_482:\n        /* \"#utility.yul\":14727:14752   */\n      swap3\n      pop\n        /* \"#utility.yul\":14771:14772   */\n      dup3\n        /* \"#utility.yul\":14761:14796   */\n      tag_483\n      jumpi\n        /* \"#utility.yul\":14776:14794   */\n      tag_484\n      tag_319\n      jump\t// in\n    tag_484:\n        /* \"#utility.yul\":14761:14796   */\n    tag_483:\n        /* \"#utility.yul\":14818:14819   */\n      dup3\n        /* \"#utility.yul\":14815:14816   */\n      dup3\n        /* \"#utility.yul\":14811:14820   */\n      div\n        /* \"#utility.yul\":14806:14820   */\n      swap1\n      pop\n        /* \"#utility.yul\":14641:14826   */\n      swap3\n      swap2\n      pop\n      pop\n      jump\t// out\n        /* \"#utility.yul\":14832:15012   */\n    tag_320:\n        /* \"#utility.yul\":14880:14957   */\n      0x4e487b7100000000000000000000000000000000000000000000000000000000\n        /* \"#utility.yul\":14877:14878   */\n      0x00\n        /* \"#utility.yul\":14870:14958   */\n      mstore\n        /* \"#utility.yul\":14977:14981   */\n      0x22\n        /* \"#utility.yul\":14974:14975   */\n      0x04\n        /* \"#utility.yul\":14967:14982   */\n      mstore\n        /* \"#utility.yul\":15001:15005   */\n      0x24\n        /* \"#utility.yul\":14998:14999   */\n      0x00\n        /* \"#utility.yul\":14991:15006   */\n      revert\n        /* \"#utility.yul\":15018:15338   */\n    tag_96:\n        /* \"#utility.yul\":15062:15068   */\n      0x00\n        /* \"#utility.yul\":15099:15100   */\n      0x02\n        /* \"#utility.yul\":15093:15097   */\n      dup3\n        /* \"#utility.yul\":15089:15101   */\n      div\n        /* \"#utility.yul\":15079:15101   */\n      swap1\n      pop\n        /* \"#utility.yul\":15146:15147   */\n      0x01\n        /* \"#utility.yul\":15140:15144   */\n      dup3\n        /* \"#utility.yul\":15136:15148   */\n      and\n        /* \"#utility.yul\":15167:15185   */\n      dup1\n        /* \"#utility.yul\":15157:15238   */\n      tag_487\n      jumpi\n        /* \"#utility.yul\":15223:15227   */\n      0x7f\n        /* \"#utility.yul\":15215:15221   */\n      dup3\n        /* \"#utility.yul\":15211:15228   */\n      and\n        /* \"#utility.yul\":15201:15228   */\n      swap2\n      pop\n        /* \"#utility.yul\":15157:15238   */\n    tag_487:\n        /* \"#utility.yul\":15285:15287   */\n      0x20\n        /* \"#utility.yul\":15277:15283   */\n      dup3\n        /* \"#utility.yul\":15274:15288   */\n      lt\n        /* \"#utility.yul\":15254:15272   */\n      dup2\n        /* \"#utility.yul\":15251:15289   */\n      sub\n        /* \"#utility.yul\":15248:15332   */\n      tag_488\n      jumpi\n        /* \"#utility.yul\":15304:15322   */\n      tag_489\n      tag_320\n      jump\t// in\n    tag_489:\n        /* \"#utility.yul\":15248:15332   */\n    tag_488:\n        /* \"#utility.yul\":15069:15338   */\n      pop\n        /* \"#utility.yul\":15018:15338   */\n      swap2\n      swap1\n      pop\n      jump\t// out\n        /* \"#utility.yul\":15344:15509   */\n    tag_321:\n        /* \"#utility.yul\":15484:15501   */\n      0x646561646c696e65526561636865640000000000000000000000000000000000\n        /* \"#utility.yul\":15480:15481   */\n      0x00\n        /* \"#utility.yul\":15472:15478   */\n      dup3\n        /* \"#utility.yul\":15468:15482   */\n      add\n        /* \"#utility.yul\":15461:15502   */\n      mstore\n        /* \"#utility.yul\":15344:15509   */\n      pop\n      jump\t// out\n        /* \"#utility.yul\":15515:15881   */\n    tag_322:\n        /* \"#utility.yul\":15657:15660   */\n      0x00\n        /* \"#utility.yul\":15678:15745   */\n      tag_492\n        /* \"#utility.yul\":15742:15744   */\n      0x0f\n        /* \"#utility.yul\":15737:15740   */\n      dup4\n        /* \"#utility.yul\":15678:15745   */\n      tag_295\n      jump\t// in\n    tag_492:\n        /* \"#utility.yul\":15671:15745   */\n      swap2\n      pop\n        /* \"#utility.yul\":15754:15847   */\n      tag_493\n        /* \"#utility.yul\":15843:15846   */\n      dup3\n        /* \"#utility.yul\":15754:15847   */\n      tag_321\n      jump\t// in\n    tag_493:\n        /* \"#utility.yul\":15872:15874   */\n      0x20\n        /* \"#utility.yul\":15867:15870   */\n      dup3\n        /* \"#utility.yul\":15863:15875   */\n      add\n        /* \"#utility.yul\":15856:15875   */\n      swap1\n      pop\n        /* \"#utility.yul\":15515:15881   */\n      swap2\n      swap1\n      pop\n      jump\t// out\n        /* \"#utility.yul\":15887:16306   */\n    tag_117:\n        /* \"#utility.yul\":16053:16057   */\n      0x00\n        /* \"#utility.yul\":16091:16093   */\n      0x20\n        /* \"#utility.yul\":16080:16089   */\n      dup3\n        /* \"#utility.yul\":16076:16094   */\n      add\n        /* \"#utility.yul\":16068:16094   */\n      swap1\n      pop\n        /* \"#utility.yul\":16140:16149   */\n      dup2\n        /* \"#utility.yul\":16134:16138   */\n      dup2\n        /* \"#utility.yul\":16130:16150   */\n      sub\n        /* \"#utility.yul\":16126:16127   */\n      0x00\n        /* \"#utility.yul\":16115:16124   */\n      dup4\n        /* \"#utility.yul\":16111:16128   */\n      add\n        /* \"#utility.yul\":16104:16151   */\n      mstore\n        /* \"#utility.yul\":16168:16299   */\n      tag_495\n        /* \"#utility.yul\":16294:16298   */\n      dup2\n        /* \"#utility.yul\":16168:16299   */\n      tag_322\n      jump\t// in\n    tag_495:\n        /* \"#utility.yul\":16160:16299   */\n      swap1\n      pop\n        /* \"#utility.yul\":15887:16306   */\n      swap2\n      swap1\n      pop\n      jump\t// out\n        /* \"#utility.yul\":16312:16492   */\n    tag_120:\n        /* \"#utility.yul\":16360:16437   */\n      0x4e487b7100000000000000000000000000000000000000000000000000000000\n        /* \"#utility.yul\":16357:16358   */\n      0x00\n        /* \"#utility.yul\":16350:16438   */\n      mstore\n        /* \"#utility.yul\":16457:16461   */\n      0x32\n        /* \"#utility.yul\":16454:16455   */\n      0x04\n        /* \"#utility.yul\":16447:16462   */\n      mstore\n        /* \"#utility.yul\":16481:16485   */\n      0x24\n        /* \"#utility.yul\":16478:16479   */\n      0x00\n        /* \"#utility.yul\":16471:16486   */\n      revert\n        /* \"#utility.yul\":16498:16616   */\n    tag_323:\n        /* \"#utility.yul\":16585:16609   */\n      tag_498\n        /* \"#utility.yul\":16603:16608   */\n      dup2\n        /* \"#utility.yul\":16585:16609   */\n      tag_300\n      jump\t// in\n    tag_498:\n        /* \"#utility.yul\":16580:16583   */\n      dup3\n        /* \"#utility.yul\":16573:16610   */\n      mstore\n        /* \"#utility.yul\":16498:16616   */\n      pop\n      pop\n      jump\t// out\n        /* \"#utility.yul\":16622:16844   */\n    tag_126:\n        /* \"#utility.yul\":16715:16719   */\n      0x00\n        /* \"#utility.yul\":16753:16755   */\n      0x20\n        /* \"#utility.yul\":16742:16751   */\n      dup3\n        /* \"#utility.yul\":16738:16756   */\n      add\n        /* \"#utility.yul\":16730:16756   */\n      swap1\n      pop\n        /* \"#utility.yul\":16766:16837   */\n      tag_500\n        /* \"#utility.yul\":16834:16835   */\n      0x00\n        /* \"#utility.yul\":16823:16832   */\n      dup4\n        /* \"#utility.yul\":16819:16836   */\n      add\n        /* \"#utility.yul\":16810:16816   */\n      dup5\n        /* \"#utility.yul\":16766:16837   */\n      tag_323\n      jump\t// in\n    tag_500:\n        /* \"#utility.yul\":16622:16844   */\n      swap3\n      swap2\n      pop\n      pop\n      jump\t// out\n        /* \"#utility.yul\":16850:16993   */\n    tag_324:\n        /* \"#utility.yul\":16907:16912   */\n      0x00\n        /* \"#utility.yul\":16938:16944   */\n      dup2\n        /* \"#utility.yul\":16932:16945   */\n      mload\n        /* \"#utility.yul\":16923:16945   */\n      swap1\n      pop\n        /* \"#utility.yul\":16954:16987   */\n      tag_502\n        /* \"#utility.yul\":16981:16986   */\n      dup2\n        /* \"#utility.yul\":16954:16987   */\n      tag_291\n      jump\t// in\n    tag_502:\n        /* \"#utility.yul\":16850:16993   */\n      swap3\n      swap2\n      pop\n      pop\n      jump\t// out\n        /* \"#utility.yul\":16999:17350   */\n    tag_130:\n        /* \"#utility.yul\":17069:17075   */\n      0x00\n        /* \"#utility.yul\":17118:17120   */\n      0x20\n        /* \"#utility.yul\":17106:17115   */\n      dup3\n        /* \"#utility.yul\":17097:17104   */\n      dup5\n        /* \"#utility.yul\":17093:17116   */\n      sub\n        /* \"#utility.yul\":17089:17121   */\n      slt\n        /* \"#utility.yul\":17086:17205   */\n      iszero\n      tag_504\n      jumpi\n        /* \"#utility.yul\":17124:17203   */\n      tag_505\n      tag_288\n      jump\t// in\n    tag_505:\n        /* \"#utility.yul\":17086:17205   */\n    tag_504:\n        /* \"#utility.yul\":17244:17245   */\n      0x00\n        /* \"#utility.yul\":17269:17333   */\n      tag_506\n        /* \"#utility.yul\":17325:17332   */\n      dup5\n        /* \"#utility.yul\":17316:17322   */\n      dup3\n        /* \"#utility.yul\":17305:17314   */\n      dup6\n        /* \"#utility.yul\":17301:17323   */\n      add\n        /* \"#utility.yul\":17269:17333   */\n      tag_324\n      jump\t// in\n    tag_506:\n        /* \"#utility.yul\":17259:17333   */\n      swap2\n      pop\n        /* \"#utility.yul\":17215:17343   */\n      pop\n        /* \"#utility.yul\":16999:17350   */\n      swap3\n      swap2\n      pop\n      pop\n      jump\t// out\n        /* \"#utility.yul\":17356:17441   */\n    tag_325:\n        /* \"#utility.yul\":17401:17408   */\n      0x00\n        /* \"#utility.yul\":17430:17435   */\n      dup2\n        /* \"#utility.yul\":17419:17435   */\n      swap1\n      pop\n        /* \"#utility.yul\":17356:17441   */\n      swap2\n      swap1\n      pop\n      jump\t// out\n        /* \"#utility.yul\":17447:17507   */\n    tag_326:\n        /* \"#utility.yul\":17475:17478   */\n      0x00\n        /* \"#utility.yul\":17496:17501   */\n      dup2\n        /* \"#utility.yul\":17489:17501   */\n      swap1\n      pop\n        /* \"#utility.yul\":17447:17507   */\n      swap2\n      swap1\n      pop\n      jump\t// out\n        /* \"#utility.yul\":17513:17671   */\n    tag_327:\n        /* \"#utility.yul\":17571:17580   */\n      0x00\n        /* \"#utility.yul\":17604:17665   */\n      tag_510\n        /* \"#utility.yul\":17622:17664   */\n      tag_511\n        /* \"#utility.yul\":17631:17663   */\n      tag_512\n        /* \"#utility.yul\":17657:17662   */\n      dup5\n        /* \"#utility.yul\":17631:17663   */\n      tag_325\n      jump\t// in\n    tag_512:\n        /* \"#utility.yul\":17622:17664   */\n      tag_326\n      jump\t// in\n    tag_511:\n        /* \"#utility.yul\":17604:17665   */\n      tag_290\n      jump\t// in\n    tag_510:\n        /* \"#utility.yul\":17591:17665   */\n      swap1\n      pop\n        /* \"#utility.yul\":17513:17671   */\n      swap2\n      swap1\n      pop\n      jump\t// out\n        /* \"#utility.yul\":17677:17824   */\n    tag_328:\n        /* \"#utility.yul\":17772:17817   */\n      tag_514\n        /* \"#utility.yul\":17811:17816   */\n      dup2\n        /* \"#utility.yul\":17772:17817   */\n      tag_327\n      jump\t// in\n    tag_514:\n        /* \"#utility.yul\":17767:17770   */\n      dup3\n        /* \"#utility.yul\":17760:17818   */\n      mstore\n        /* \"#utility.yul\":17677:17824   */\n      pop\n      pop\n      jump\t// out\n        /* \"#utility.yul\":17830:18288   */\n    tag_140:\n        /* \"#utility.yul\":17987:17991   */\n      0x00\n        /* \"#utility.yul\":18025:18027   */\n      0x60\n        /* \"#utility.yul\":18014:18023   */\n      dup3\n        /* \"#utility.yul\":18010:18028   */\n      add\n        /* \"#utility.yul\":18002:18028   */\n      swap1\n      pop\n        /* \"#utility.yul\":18038:18109   */\n      tag_516\n        /* \"#utility.yul\":18106:18107   */\n      0x00\n        /* \"#utility.yul\":18095:18104   */\n      dup4\n        /* \"#utility.yul\":18091:18108   */\n      add\n        /* \"#utility.yul\":18082:18088   */\n      dup7\n        /* \"#utility.yul\":18038:18109   */\n      tag_323\n      jump\t// in\n    tag_516:\n        /* \"#utility.yul\":18119:18191   */\n      tag_517\n        /* \"#utility.yul\":18187:18189   */\n      0x20\n        /* \"#utility.yul\":18176:18185   */\n      dup4\n        /* \"#utility.yul\":18172:18190   */\n      add\n        /* \"#utility.yul\":18163:18169   */\n      dup6\n        /* \"#utility.yul\":18119:18191   */\n      tag_323\n      jump\t// in\n    tag_517:\n        /* \"#utility.yul\":18201:18281   */\n      tag_518\n        /* \"#utility.yul\":18277:18279   */\n      0x40\n        /* \"#utility.yul\":18266:18275   */\n      dup4\n        /* \"#utility.yul\":18262:18280   */\n      add\n        /* \"#utility.yul\":18253:18259   */\n      dup5\n        /* \"#utility.yul\":18201:18281   */\n      tag_328\n      jump\t// in\n    tag_518:\n        /* \"#utility.yul\":17830:18288   */\n      swap5\n      swap4\n      pop\n      pop\n      pop\n      pop\n      jump\t// out\n        /* \"#utility.yul\":18294:18410   */\n    tag_329:\n        /* \"#utility.yul\":18364:18385   */\n      tag_520\n        /* \"#utility.yul\":18379:18384   */\n      dup2\n        /* \"#utility.yul\":18364:18385   */\n      tag_303\n      jump\t// in\n    tag_520:\n        /* \"#utility.yul\":18357:18362   */\n      dup2\n        /* \"#utility.yul\":18354:18386   */\n      eq\n        /* \"#utility.yul\":18344:18404   */\n      tag_521\n      jumpi\n        /* \"#utility.yul\":18400:18401   */\n      0x00\n        /* \"#utility.yul\":18397:18398   */\n      0x00\n        /* \"#utility.yul\":18390:18402   */\n      revert\n        /* \"#utility.yul\":18344:18404   */\n    tag_521:\n        /* \"#utility.yul\":18294:18410   */\n      pop\n      jump\t// out\n        /* \"#utility.yul\":18416:18553   */\n    tag_330:\n        /* \"#utility.yul\":18470:18475   */\n      0x00\n        /* \"#utility.yul\":18501:18507   */\n      dup2\n        /* \"#utility.yul\":18495:18508   */\n      mload\n        /* \"#utility.yul\":18486:18508   */\n      swap1\n      pop\n        /* \"#utility.yul\":18517:18547   */\n      tag_523\n        /* \"#utility.yul\":18541:18546   */\n      dup2\n        /* \"#utility.yul\":18517:18547   */\n      tag_329\n      jump\t// in\n    tag_523:\n        /* \"#utility.yul\":18416:18553   */\n      swap3\n      swap2\n      pop\n      pop\n      jump\t// out\n        /* \"#utility.yul\":18559:18904   */\n    tag_144:\n        /* \"#utility.yul\":18626:18632   */\n      0x00\n        /* \"#utility.yul\":18675:18677   */\n      0x20\n        /* \"#utility.yul\":18663:18672   */\n      dup3\n        /* \"#utility.yul\":18654:18661   */\n      dup5\n        /* \"#utility.yul\":18650:18673   */\n      sub\n        /* \"#utility.yul\":18646:18678   */\n      slt\n        /* \"#utility.yul\":18643:18762   */\n      iszero\n      tag_525\n      jumpi\n        /* \"#utility.yul\":18681:18760   */\n      tag_526\n      tag_288\n      jump\t// in\n    tag_526:\n        /* \"#utility.yul\":18643:18762   */\n    tag_525:\n        /* \"#utility.yul\":18801:18802   */\n      0x00\n        /* \"#utility.yul\":18826:18887   */\n      tag_527\n        /* \"#utility.yul\":18879:18886   */\n      dup5\n        /* \"#utility.yul\":18870:18876   */\n      dup3\n        /* \"#utility.yul\":18859:18868   */\n      dup6\n        /* \"#utility.yul\":18855:18877   */\n      add\n        /* \"#utility.yul\":18826:18887   */\n      tag_330\n      jump\t// in\n    tag_527:\n        /* \"#utility.yul\":18816:18887   */\n      swap2\n      pop\n        /* \"#utility.yul\":18772:18897   */\n      pop\n        /* \"#utility.yul\":18559:18904   */\n      swap3\n      swap2\n      pop\n      pop\n      jump\t// out\n        /* \"#utility.yul\":18910:19242   */\n    tag_146:\n        /* \"#utility.yul\":19031:19035   */\n      0x00\n        /* \"#utility.yul\":19069:19071   */\n      0x40\n        /* \"#utility.yul\":19058:19067   */\n      dup3\n        /* \"#utility.yul\":19054:19072   */\n      add\n        /* \"#utility.yul\":19046:19072   */\n      swap1\n      pop\n        /* \"#utility.yul\":19082:19153   */\n      tag_529\n        /* \"#utility.yul\":19150:19151   */\n      0x00\n        /* \"#utility.yul\":19139:19148   */\n      dup4\n        /* \"#utility.yul\":19135:19152   */\n      add\n        /* \"#utility.yul\":19126:19132   */\n      dup6\n        /* \"#utility.yul\":19082:19153   */\n      tag_323\n      jump\t// in\n    tag_529:\n        /* \"#utility.yul\":19163:19235   */\n      tag_530\n        /* \"#utility.yul\":19231:19233   */\n      0x20\n        /* \"#utility.yul\":19220:19229   */\n      dup4\n        /* \"#utility.yul\":19216:19234   */\n      add\n        /* \"#utility.yul\":19207:19213   */\n      dup5\n        /* \"#utility.yul\":19163:19235   */\n      tag_293\n      jump\t// in\n    tag_530:\n        /* \"#utility.yul\":18910:19242   */\n      swap4\n      swap3\n      pop\n      pop\n      pop\n      jump\t// out\n        /* \"#utility.yul\":19248:19428   */\n    tag_152:\n        /* \"#utility.yul\":19296:19373   */\n      0x4e487b7100000000000000000000000000000000000000000000000000000000\n        /* \"#utility.yul\":19293:19294   */\n      0x00\n        /* \"#utility.yul\":19286:19374   */\n      mstore\n        /* \"#utility.yul\":19393:19397   */\n      0x41\n        /* \"#utility.yul\":19390:19391   */\n      0x04\n        /* \"#utility.yul\":19383:19398   */\n      mstore\n        /* \"#utility.yul\":19417:19421   */\n      0x24\n        /* \"#utility.yul\":19414:19415   */\n      0x00\n        /* \"#utility.yul\":19407:19422   */\n      revert\n        /* \"#utility.yul\":19434:19876   */\n    tag_235:\n        /* \"#utility.yul\":19583:19587   */\n      0x00\n        /* \"#utility.yul\":19621:19623   */\n      0x60\n        /* \"#utility.yul\":19610:19619   */\n      dup3\n        /* \"#utility.yul\":19606:19624   */\n      add\n        /* \"#utility.yul\":19598:19624   */\n      swap1\n      pop\n        /* \"#utility.yul\":19634:19705   */\n      tag_533\n        /* \"#utility.yul\":19702:19703   */\n      0x00\n        /* \"#utility.yul\":19691:19700   */\n      dup4\n        /* \"#utility.yul\":19687:19704   */\n      add\n        /* \"#utility.yul\":19678:19684   */\n      dup7\n        /* \"#utility.yul\":19634:19705   */\n      tag_323\n      jump\t// in\n    tag_533:\n        /* \"#utility.yul\":19715:19787   */\n      tag_534\n        /* \"#utility.yul\":19783:19785   */\n      0x20\n        /* \"#utility.yul\":19772:19781   */\n      dup4\n        /* \"#utility.yul\":19768:19786   */\n      add\n        /* \"#utility.yul\":19759:19765   */\n      dup6\n        /* \"#utility.yul\":19715:19787   */\n      tag_323\n      jump\t// in\n    tag_534:\n        /* \"#utility.yul\":19797:19869   */\n      tag_535\n        /* \"#utility.yul\":19865:19867   */\n      0x40\n        /* \"#utility.yul\":19854:19863   */\n      dup4\n        /* \"#utility.yul\":19850:19868   */\n      add\n        /* \"#utility.yul\":19841:19847   */\n      dup5\n        /* \"#utility.yul\":19797:19869   */\n      tag_293\n      jump\t// in\n    tag_535:\n        /* \"#utility.yul\":19434:19876   */\n      swap5\n      swap4\n      pop\n      pop\n      pop\n      pop\n      jump\t// out\n        /* \"#utility.yul\":19882:20324   */\n    tag_254:\n        /* \"#utility.yul\":20031:20035   */\n      0x00\n        /* \"#utility.yul\":20069:20071   */\n      0x60\n        /* \"#utility.yul\":20058:20067   */\n      dup3\n        /* \"#utility.yul\":20054:20072   */\n      add\n        /* \"#utility.yul\":20046:20072   */\n      swap1\n      pop\n        /* \"#utility.yul\":20082:20153   */\n      tag_537\n        /* \"#utility.yul\":20150:20151   */\n      0x00\n        /* \"#utility.yul\":20139:20148   */\n      dup4\n        /* \"#utility.yul\":20135:20152   */\n      add\n        /* \"#utility.yul\":20126:20132   */\n      dup7\n        /* \"#utility.yul\":20082:20153   */\n      tag_323\n      jump\t// in\n    tag_537:\n        /* \"#utility.yul\":20163:20235   */\n      tag_538\n        /* \"#utility.yul\":20231:20233   */\n      0x20\n        /* \"#utility.yul\":20220:20229   */\n      dup4\n        /* \"#utility.yul\":20216:20234   */\n      add\n        /* \"#utility.yul\":20207:20213   */\n      dup6\n        /* \"#utility.yul\":20163:20235   */\n      tag_293\n      jump\t// in\n    tag_538:\n        /* \"#utility.yul\":20245:20317   */\n      tag_539\n        /* \"#utility.yul\":20313:20315   */\n      0x40\n        /* \"#utility.yul\":20302:20311   */\n      dup4\n        /* \"#utility.yul\":20298:20316   */\n      add\n        /* \"#utility.yul\":20289:20295   */\n      dup5\n        /* \"#utility.yul\":20245:20317   */\n      tag_293\n      jump\t// in\n    tag_539:\n        /* \"#utility.yul\":19882:20324   */\n      swap5\n      swap4\n      pop\n      pop\n      pop\n      pop\n      jump\t// out\n\n    auxdata: 0xa26469706673582212208ef35f15affddc6ac1cf19d55897dc830fa61f28c83cd7b7c9e53be6ae401af264736f6c634300081e0033\n}\n",
				"bytecode": {
					"linkReferences": {},
					"object": "608060405234801561000f575f5ffd5b506040518060400160405280600281526020017f6c690000000000000000000000000000000000000000000000000000000000008152506040518060400160405280600181526020017f6c00000000000000000000000000000000000000000000000000000000000000815250816003908161008b91906102e0565b50806004908161009b91906102e0565b5050506103af565b5f81519050919050565b7f4e487b71000000000000000000000000000000000000000000000000000000005f52604160045260245ffd5b7f4e487b71000000000000000000000000000000000000000000000000000000005f52602260045260245ffd5b5f600282049050600182168061011e57607f821691505b602082108103610131576101306100da565b5b50919050565b5f819050815f5260205f209050919050565b5f6020601f8301049050919050565b5f82821b905092915050565b5f600883026101937fffffffffffffffffffffffffffffffffffffffffffffffffffffffffffffffff82610158565b61019d8683610158565b95508019841693508086168417925050509392505050565b5f819050919050565b5f819050919050565b5f6101e16101dc6101d7846101b5565b6101be565b6101b5565b9050919050565b5f819050919050565b6101fa836101c7565b61020e610206826101e8565b848454610164565b825550505050565b5f5f905090565b610225610216565b6102308184846101f1565b505050565b5b81811015610253576102485f8261021d565b600181019050610236565b5050565b601f8211156102985761026981610137565b61027284610149565b81016020851015610281578190505b61029561028d85610149565b830182610235565b50505b505050565b5f82821c905092915050565b5f6102b85f198460080261029d565b1980831691505092915050565b5f6102d083836102a9565b9150826002028217905092915050565b6102e9826100a3565b67ffffffffffffffff811115610302576103016100ad565b5b61030c8254610107565b610317828285610257565b5f60209050601f831160018114610348575f8415610336578287015190505b61034085826102c5565b8655506103a7565b601f19841661035686610137565b5f5b8281101561037d57848901518255600182019150602085019450602081019050610358565b8683101561039a5784890151610396601f8916826102a9565b8355505b6001600288020188555050505b505050505050565b6120e8806103bc5f395ff3fe608060405234801561000f575f5ffd5b50600436106100e8575f3560e01c806370a082311161008a578063ac41865a11610064578063ac41865a14610284578063baa2abde146102b4578063dd62ed3e146102e5578063e8e3370014610315576100e8565b806370a082311461020657806395d89b4114610236578063a9059cbb14610254576100e8565b806318160ddd116100c657806318160ddd1461016a57806323b872dd14610188578063313ce567146101b857806338ed1739146101d6576100e8565b8063054d50d4146100ec57806306fdde031461011c578063095ea7b31461013a575b5f5ffd5b61010660048036038101906101019190611699565b610347565b60405161011391906116f8565b60405180910390f35b610124610373565b6040516101319190611781565b60405180910390f35b610154600480360381019061014f91906117fb565b610403565b6040516101619190611853565b60405180910390f35b610172610425565b60405161017f91906116f8565b60405180910390f35b6101a2600480360381019061019d919061186c565b61042e565b6040516101af9190611853565b60405180910390f35b6101c061045c565b6040516101cd91906118d7565b60405180910390f35b6101f060048036038101906101eb9190611951565b610464565b6040516101fd9190611a9e565b60405180910390f35b610220600480360381019061021b9190611abe565b6107b3565b60405161022d91906116f8565b60405180910390f35b61023e6107f8565b60405161024b9190611781565b60405180910390f35b61026e600480360381019061026991906117fb565b610888565b60405161027b9190611853565b60405180910390f35b61029e60048036038101906102999190611ae9565b6108aa565b6040516102ab91906116f8565b60405180910390f35b6102ce60048036038101906102c99190611b27565b6109ca565b6040516102dc929190611bc4565b60405180910390f35b6102ff60048036038101906102fa9190611ae9565b610c61565b60405161030c91906116f8565b60405180910390f35b61032f600480360381019061032a9190611beb565b610ce3565b60405161033e93929190611c9c565b60405180910390f35b5f82846103549190611cfe565b82856103609190611d31565b61036a9190611d9f565b90509392505050565b60606003805461038290611dfc565b80601f01602080910402602001604051908101604052809291908181526020018280546103ae90611dfc565b80156103f95780601f106103d0576101008083540402835291602001916103f9565b820191905f5260205f20905b8154815290600101906020018083116103dc57829003601f168201915b5050505050905090565b5f5f61040d610fdc565b905061041a818585610fe3565b600191505092915050565b5f600254905090565b5f5f610438610fdc565b9050610445858285610ff5565b610450858585611088565b60019150509392505050565b5f6012905090565b6060428210156104a9576040517f08c379a00000000000000000000000000000000000000000000000000000000081526004016104a090611e76565b60405180910390fd5b5f85855f8181106104bd576104bc611e94565b5b90506020020160208101906104d29190611abe565b90505f868660018181106104e9576104e8611e94565b5b90506020020160208101906104fe9190611abe565b90505f8273ffffffffffffffffffffffffffffffffffffffff166370a08231306040518263ffffffff1660e01b815260040161053a9190611ed0565b602060405180830381865afa158015610555573d5f5f3e3d5ffd5b505050506040513d601f19601f820116820180604052508101906105799190611efd565b8a6105849190611cfe565b8273ffffffffffffffffffffffffffffffffffffffff166370a08231306040518263ffffffff1660e01b81526004016105bd9190611ed0565b602060405180830381865afa1580156105d8573d5f5f3e3d5ffd5b505050506040513d601f19601f820116820180604052508101906105fc9190611efd565b8b6106079190611d31565b6106119190611d9f565b90508881101561061f575f5ffd5b8273ffffffffffffffffffffffffffffffffffffffff166323b872dd33305f6040518463ffffffff1660e01b815260040161065c93929190611f6a565b6020604051808303815f875af1158015610678573d5f5f3e3d5ffd5b505050506040513d601f19601f8201168201806040525081019061069c9190611fc9565b508173ffffffffffffffffffffffffffffffffffffffff1663a9059cbb87836040518363ffffffff1660e01b81526004016106d8929190611ff4565b6020604051808303815f875af11580156106f4573d5f5f3e3d5ffd5b505050506040513d601f19601f820116820180604052508101906107189190611fc9565b50600267ffffffffffffffff8111156107345761073361201b565b5b6040519080825280602002602001820160405280156107625781602001602082028036833780820191505090505b50935089845f8151811061077957610778611e94565b5b602002602001018181525050808460018151811061079a57610799611e94565b5b6020026020010181815250505050509695505050505050565b5f5f5f8373ffffffffffffffffffffffffffffffffffffffff1673ffffffffffffffffffffffffffffffffffffffff1681526020019081526020015f20549050919050565b60606004805461080790611dfc565b80601f016020809104026020016040519081016040528092919081815260200182805461083390611dfc565b801561087e5780601f106108555761010080835404028352916020019161087e565b820191905f5260205f20905b81548152906001019060200180831161086157829003601f168201915b5050505050905090565b5f5f610892610fdc565b905061089f818585611088565b600191505092915050565b5f5f8373ffffffffffffffffffffffffffffffffffffffff166370a08231306040518263ffffffff1660e01b81526004016108e59190611ed0565b602060405180830381865afa158015610900573d5f5f3e3d5ffd5b505050506040513d601f19601f820116820180604052508101906109249190611efd565b90505f8373ffffffffffffffffffffffffffffffffffffffff166370a08231306040518263ffffffff1660e01b81526004016109609190611ed0565b602060405180830381865afa15801561097b573d5f5f3e3d5ffd5b505050506040513d601f19601f8201168201806040525081019061099f9190611efd565b905081670de0b6b3a7640000826109b69190611d31565b6109c09190611d9f565b9250505092915050565b5f5f42831015610a0f576040517f08c379a0000000000000000000000000000000000000000000000000000000008152600401610a0690611e76565b60405180910390fd5b5f610a18610425565b9050808a73ffffffffffffffffffffffffffffffffffffffff166370a08231306040518263ffffffff1660e01b8152600401610a549190611ed0565b602060405180830381865afa158015610a6f573d5f5f3e3d5ffd5b505050506040513d601f19601f82011682018060405250810190610a939190611efd565b89610a9e9190611d31565b610aa89190611d9f565b9250808973ffffffffffffffffffffffffffffffffffffffff166370a08231306040518263ffffffff1660e01b8152600401610ae49190611ed0565b602060405180830381865afa158015610aff573d5f5f3e3d5ffd5b505050506040513d601f19601f82011682018060405250810190610b239190611efd565b89610b2e9190611d31565b610b389190611d9f565b915082871115610b46575f5ffd5b81861115610b52575f5ffd5b610b5c3389611178565b8973ffffffffffffffffffffffffffffffffffffffff1663a9059cbb86856040518363ffffffff1660e01b8152600401610b97929190611ff4565b6020604051808303815f875af1158015610bb3573d5f5f3e3d5ffd5b505050506040513d601f19601f82011682018060405250810190610bd79190611fc9565b508873ffffffffffffffffffffffffffffffffffffffff1663a9059cbb86846040518363ffffffff1660e01b8152600401610c13929190611ff4565b6020604051808303815f875af1158015610c2f573d5f5f3e3d5ffd5b505050506040513d601f19601f82011682018060405250810190610c539190611fc9565b505097509795505050505050565b5f60015f8473ffffffffffffffffffffffffffffffffffffffff1673ffffffffffffffffffffffffffffffffffffffff1681526020019081526020015f205f8373ffffffffffffffffffffffffffffffffffffffff1673ffffffffffffffffffffffffffffffffffffffff1681526020019081526020015f2054905092915050565b5f5f5f42841015610d29576040517f08c379a0000000000000000000000000000000000000000000000000000000008152600401610d2090611e76565b60405180910390fd5b610d31610425565b90505f811115610ea6575f8b73ffffffffffffffffffffffffffffffffffffffff166370a08231306040518263ffffffff1660e01b8152600401610d759190611ed0565b602060405180830381865afa158015610d90573d5f5f3e3d5ffd5b505050506040513d601f19601f82011682018060405250810190610db49190611efd565b828b610dc09190611d31565b610dca9190611d9f565b90505f8b73ffffffffffffffffffffffffffffffffffffffff166370a08231306040518263ffffffff1660e01b8152600401610e069190611ed0565b602060405180830381865afa158015610e21573d5f5f3e3d5ffd5b505050506040513d601f19601f82011682018060405250810190610e459190611efd565b838b610e519190611d31565b610e5b9190611d9f565b905080821015610e84578a945084610e738e8e6108aa565b610e7d9190611d31565b9350610e9f565b89935083610e928d8f6108aa565b610e9c9190611d31565b94505b5050610eb0565b8890508892508791505b82871115610ebc575f5ffd5b81861115610ec8575f5ffd5b8a73ffffffffffffffffffffffffffffffffffffffff166323b872dd3330866040518463ffffffff1660e01b8152600401610f0593929190612048565b6020604051808303815f875af1158015610f21573d5f5f3e3d5ffd5b505050506040513d601f19601f82011682018060405250810190610f459190611fc9565b508973ffffffffffffffffffffffffffffffffffffffff166323b872dd3330856040518463ffffffff1660e01b8152600401610f8393929190612048565b6020604051808303815f875af1158015610f9f573d5f5f3e3d5ffd5b505050506040513d601f19601f82011682018060405250810190610fc39190611fc9565b50610fce85826111f7565b985098509895505050505050565b5f33905090565b610ff08383836001611276565b505050565b5f6110008484610c61565b90507fffffffffffffffffffffffffffffffffffffffffffffffffffffffffffffffff8110156110825781811015611073578281836040517ffb8f41b200000000000000000000000000000000000000000000000000000000815260040161106a9392919061207d565b60405180910390fd5b61108184848484035f611276565b5b50505050565b5f73ffffffffffffffffffffffffffffffffffffffff168373ffffffffffffffffffffffffffffffffffffffff16036110f8575f6040517f96c6fd1e0000000000000000000000000000000000000000000000000000000081526004016110ef9190611ed0565b60405180910390fd5b5f73ffffffffffffffffffffffffffffffffffffffff168273ffffffffffffffffffffffffffffffffffffffff1603611168575f6040517fec442f0500000000000000000000000000000000000000000000000000000000815260040161115f9190611ed0565b60405180910390fd5b611173838383611445565b505050565b5f73ffffffffffffffffffffffffffffffffffffffff168273ffffffffffffffffffffffffffffffffffffffff16036111e8575f6040517f96c6fd1e0000000000000000000000000000000000000000000000000000000081526004016111df9190611ed0565b60405180910390fd5b6111f3825f83611445565b5050565b5f73ffffffffffffffffffffffffffffffffffffffff168273ffffffffffffffffffffffffffffffffffffffff1603611267575f6040517fec442f0500000000000000000000000000000000000000000000000000000000815260040161125e9190611ed0565b60405180910390fd5b6112725f8383611445565b5050565b5f73ffffffffffffffffffffffffffffffffffffffff168473ffffffffffffffffffffffffffffffffffffffff16036112e6575f6040517fe602df050000000000000000000000000000000000000000000000000000000081526004016112dd9190611ed0565b60405180910390fd5b5f73ffffffffffffffffffffffffffffffffffffffff168373ffffffffffffffffffffffffffffffffffffffff1603611356575f6040517f94280d6200000000000000000000000000000000000000000000000000000000815260040161134d9190611ed0565b60405180910390fd5b8160015f8673ffffffffffffffffffffffffffffffffffffffff1673ffffffffffffffffffffffffffffffffffffffff1681526020019081526020015f205f8573ffffffffffffffffffffffffffffffffffffffff1673ffffffffffffffffffffffffffffffffffffffff1681526020019081526020015f2081905550801561143f578273ffffffffffffffffffffffffffffffffffffffff168473ffffffffffffffffffffffffffffffffffffffff167f8c5be1e5ebec7d5bd14f71427d1e84f3dd0314c0f7b2291e5b200ac8c7c3b9258460405161143691906116f8565b60405180910390a35b50505050565b5f73ffffffffffffffffffffffffffffffffffffffff168373ffffffffffffffffffffffffffffffffffffffff1603611495578060025f8282546114899190611cfe565b92505081905550611563565b5f5f5f8573ffffffffffffffffffffffffffffffffffffffff1673ffffffffffffffffffffffffffffffffffffffff1681526020019081526020015f205490508181101561151e578381836040517fe450d38c0000000000000000000000000000000000000000000000000000000081526004016115159392919061207d565b60405180910390fd5b8181035f5f8673ffffffffffffffffffffffffffffffffffffffff1673ffffffffffffffffffffffffffffffffffffffff1681526020019081526020015f2081905550505b5f73ffffffffffffffffffffffffffffffffffffffff168273ffffffffffffffffffffffffffffffffffffffff16036115aa578060025f82825403925050819055506115f4565b805f5f8473ffffffffffffffffffffffffffffffffffffffff1673ffffffffffffffffffffffffffffffffffffffff1681526020019081526020015f205f82825401925050819055505b8173ffffffffffffffffffffffffffffffffffffffff168373ffffffffffffffffffffffffffffffffffffffff167fddf252ad1be2c89b69c2b068fc378daa952ba7f163c4a11628f55a4df523b3ef8360405161165191906116f8565b60405180910390a3505050565b5f5ffd5b5f5ffd5b5f819050919050565b61167881611666565b8114611682575f5ffd5b50565b5f813590506116938161166f565b92915050565b5f5f5f606084860312156116b0576116af61165e565b5b5f6116bd86828701611685565b93505060206116ce86828701611685565b92505060406116df86828701611685565b9150509250925092565b6116f281611666565b82525050565b5f60208201905061170b5f8301846116e9565b92915050565b5f81519050919050565b5f82825260208201905092915050565b8281835e5f83830152505050565b5f601f19601f8301169050919050565b5f61175382611711565b61175d818561171b565b935061176d81856020860161172b565b61177681611739565b840191505092915050565b5f6020820190508181035f8301526117998184611749565b905092915050565b5f73ffffffffffffffffffffffffffffffffffffffff82169050919050565b5f6117ca826117a1565b9050919050565b6117da816117c0565b81146117e4575f5ffd5b50565b5f813590506117f5816117d1565b92915050565b5f5f604083850312156118115761181061165e565b5b5f61181e858286016117e7565b925050602061182f85828601611685565b9150509250929050565b5f8115159050919050565b61184d81611839565b82525050565b5f6020820190506118665f830184611844565b92915050565b5f5f5f606084860312156118835761188261165e565b5b5f611890868287016117e7565b93505060206118a1868287016117e7565b92505060406118b286828701611685565b9150509250925092565b5f60ff82169050919050565b6118d1816118bc565b82525050565b5f6020820190506118ea5f8301846118c8565b92915050565b5f5ffd5b5f5ffd5b5f5ffd5b5f5f83601f840112611911576119106118f0565b5b8235905067ffffffffffffffff81111561192e5761192d6118f4565b5b60208301915083602082028301111561194a576119496118f8565b5b9250929050565b5f5f5f5f5f5f60a0878903121561196b5761196a61165e565b5b5f61197889828a01611685565b965050602061198989828a01611685565b955050604087013567ffffffffffffffff8111156119aa576119a9611662565b5b6119b689828a016118fc565b945094505060606119c989828a016117e7565b92505060806119da89828a01611685565b9150509295509295509295565b5f81519050919050565b5f82825260208201905092915050565b5f819050602082019050919050565b611a1981611666565b82525050565b5f611a2a8383611a10565b60208301905092915050565b5f602082019050919050565b5f611a4c826119e7565b611a5681856119f1565b9350611a6183611a01565b805f5b83811015611a91578151611a788882611a1f565b9750611a8383611a36565b925050600181019050611a64565b5085935050505092915050565b5f6020820190508181035f830152611ab68184611a42565b905092915050565b5f60208284031215611ad357611ad261165e565b5b5f611ae0848285016117e7565b91505092915050565b5f5f60408385031215611aff57611afe61165e565b5b5f611b0c858286016117e7565b9250506020611b1d858286016117e7565b9150509250929050565b5f5f5f5f5f5f5f60e0888a031215611b4257611b4161165e565b5b5f611b4f8a828b016117e7565b9750506020611b608a828b016117e7565b9650506040611b718a828b01611685565b9550506060611b828a828b01611685565b9450506080611b938a828b01611685565b93505060a0611ba48a828b016117e7565b92505060c0611bb58a828b01611685565b91505092959891949750929550565b5f604082019050611bd75f8301856116e9565b611be460208301846116e9565b9392505050565b5f5f5f5f5f5f5f5f610100898b031215611c0857611c0761165e565b5b5f611c158b828c016117e7565b9850506020611c268b828c016117e7565b9750506040611c378b828c01611685565b9650506060611c488b828c01611685565b9550506080611c598b828c01611685565b94505060a0611c6a8b828c01611685565b93505060c0611c7b8b828c016117e7565b92505060e0611c8c8b828c01611685565b9150509295985092959890939650565b5f606082019050611caf5f8301866116e9565b611cbc60208301856116e9565b611cc960408301846116e9565b949350505050565b7f4e487b71000000000000000000000000000000000000000000000000000000005f52601160045260245ffd5b5f611d0882611666565b9150611d1383611666565b9250828201905080821115611d2b57611d2a611cd1565b5b92915050565b5f611d3b82611666565b9150611d4683611666565b9250828202611d5481611666565b91508282048414831517611d6b57611d6a611cd1565b5b5092915050565b7f4e487b71000000000000000000000000000000000000000000000000000000005f52601260045260245ffd5b5f611da982611666565b9150611db483611666565b925082611dc457611dc3611d72565b5b828204905092915050565b7f4e487b71000000000000000000000000000000000000000000000000000000005f52602260045260245ffd5b5f6002820490506001821680611e1357607f821691505b602082108103611e2657611e25611dcf565b5b50919050565b7f646561646c696e655265616368656400000000000000000000000000000000005f82015250565b5f611e60600f8361171b565b9150611e6b82611e2c565b602082019050919050565b5f6020820190508181035f830152611e8d81611e54565b9050919050565b7f4e487b71000000000000000000000000000000000000000000000000000000005f52603260045260245ffd5b611eca816117c0565b82525050565b5f602082019050611ee35f830184611ec1565b92915050565b5f81519050611ef78161166f565b92915050565b5f60208284031215611f1257611f1161165e565b5b5f611f1f84828501611ee9565b91505092915050565b5f819050919050565b5f819050919050565b5f611f54611f4f611f4a84611f28565b611f31565b611666565b9050919050565b611f6481611f3a565b82525050565b5f606082019050611f7d5f830186611ec1565b611f8a6020830185611ec1565b611f976040830184611f5b565b949350505050565b611fa881611839565b8114611fb2575f5ffd5b50565b5f81519050611fc381611f9f565b92915050565b5f60208284031215611fde57611fdd61165e565b5b5f611feb84828501611fb5565b91505092915050565b5f6040820190506120075f830185611ec1565b61201460208301846116e9565b9392505050565b7f4e487b71000000000000000000000000000000000000000000000000000000005f52604160045260245ffd5b5f60608201905061205b5f830186611ec1565b6120686020830185611ec1565b61207560408301846116e9565b949350505050565b5f6060820190506120905f830186611ec1565b61209d60208301856116e9565b6120aa60408301846116e9565b94935050505056fea26469706673582212208ef35f15affddc6ac1cf19d55897dc830fa61f28c83cd7b7c9e53be6ae401af264736f6c634300081e0033",
					"opcodes": "PUSH1 0x80 PUSH1 0x40 MSTORE CALLVALUE DUP1 ISZERO PUSH2 0xF JUMPI PUSH0 PUSH0 REVERT JUMPDEST POP PUSH1 0x40 MLOAD DUP1 PUSH1 0x40 ADD PUSH1 0x40 MSTORE DUP1 PUSH1 0x2 DUP2 MSTORE PUSH1 0x20 ADD PUSH32 0x6C69000000000000000000000000000000000000000000000000000000000000 DUP2 MSTORE POP PUSH1 0x40 MLOAD DUP1 PUSH1 0x40 ADD PUSH1 0x40 MSTORE DUP1 PUSH1 0x1 DUP2 MSTORE PUSH1 0x20 ADD PUSH32 0x6C00000000000000000000000000000000000000000000000000000000000000 DUP2 MSTORE POP DUP2 PUSH1 0x3 SWAP1 DUP2 PUSH2 0x8B SWAP2 SWAP1 PUSH2 0x2E0 JUMP JUMPDEST POP DUP1 PUSH1 0x4 SWAP1 DUP2 PUSH2 0x9B SWAP2 SWAP1 PUSH2 0x2E0 JUMP JUMPDEST POP POP POP PUSH2 0x3AF JUMP JUMPDEST PUSH0 DUP2 MLOAD SWAP1 POP SWAP2 SWAP1 POP JUMP JUMPDEST PUSH32 0x4E487B7100000000000000000000000000000000000000000000000000000000 PUSH0 MSTORE PUSH1 0x41 PUSH1 0x4 MSTORE PUSH1 0x24 PUSH0 REVERT JUMPDEST PUSH32 0x4E487B7100000000000000000000000000000000000000000000000000000000 PUSH0 MSTORE PUSH1 0x22 PUSH1 0x4 MSTORE PUSH1 0x24 PUSH0 REVERT JUMPDEST PUSH0 PUSH1 0x2 DUP3 DIV SWAP1 POP PUSH1 0x1 DUP3 AND DUP1 PUSH2 0x11E JUMPI PUSH1 0x7F DUP3 AND SWAP2 POP JUMPDEST PUSH1 0x20 DUP3 LT DUP2 SUB PUSH2 0x131 JUMPI PUSH2 0x130 PUSH2 0xDA JUMP JUMPDEST JUMPDEST POP SWAP2 SWAP1 POP JUMP JUMPDEST PUSH0 DUP2 SWAP1 POP DUP2 PUSH0 MSTORE PUSH1 0x20 PUSH0 KECCAK256 SWAP1 POP SWAP2 SWAP1 POP JUMP JUMPDEST PUSH0 PUSH1 0x20 PUSH1 0x1F DUP4 ADD DIV SWAP1 POP SWAP2 SWAP1 POP JUMP JUMPDEST PUSH0 DUP3 DUP3 SHL SWAP1 POP SWAP3 SWAP2 POP POP JUMP JUMPDEST PUSH0 PUSH1 0x8 DUP4 MUL PUSH2 0x193 PUSH32 0xFFFFFFFFFFFFFFFFFFFFFFFFFFFFFFFFFFFFFFFFFFFFFFFFFFFFFFFFFFFFFFFF DUP3 PUSH2 0x158 JUMP JUMPDEST PUSH2 0x19D DUP7 DUP4 PUSH2 0x158 JUMP JUMPDEST SWAP6 POP DUP1 NOT DUP5 AND SWAP4 POP DUP1 DUP7 AND DUP5 OR SWAP3 POP POP POP SWAP4 SWAP3 POP POP POP JUMP JUMPDEST PUSH0 DUP2 SWAP1 POP SWAP2 SWAP1 POP JUMP JUMPDEST PUSH0 DUP2 SWAP1 POP SWAP2 SWAP1 POP JUMP JUMPDEST PUSH0 PUSH2 0x1E1 PUSH2 0x1DC PUSH2 0x1D7 DUP5 PUSH2 0x1B5 JUMP JUMPDEST PUSH2 0x1BE JUMP JUMPDEST PUSH2 0x1B5 JUMP JUMPDEST SWAP1 POP SWAP2 SWAP1 POP JUMP JUMPDEST PUSH0 DUP2 SWAP1 POP SWAP2 SWAP1 POP JUMP JUMPDEST PUSH2 0x1FA DUP4 PUSH2 0x1C7 JUMP JUMPDEST PUSH2 0x20E PUSH2 0x206 DUP3 PUSH2 0x1E8 JUMP JUMPDEST DUP5 DUP5 SLOAD PUSH2 0x164 JUMP JUMPDEST DUP3 SSTORE POP POP POP POP JUMP JUMPDEST PUSH0 PUSH0 SWAP1 POP SWAP1 JUMP JUMPDEST PUSH2 0x225 PUSH2 0x216 JUMP JUMPDEST PUSH2 0x230 DUP2 DUP5 DUP5 PUSH2 0x1F1 JUMP JUMPDEST POP POP POP JUMP JUMPDEST JUMPDEST DUP2 DUP2 LT ISZERO PUSH2 0x253 JUMPI PUSH2 0x248 PUSH0 DUP3 PUSH2 0x21D JUMP JUMPDEST PUSH1 0x1 DUP2 ADD SWAP1 POP PUSH2 0x236 JUMP JUMPDEST POP POP JUMP JUMPDEST PUSH1 0x1F DUP3 GT ISZERO PUSH2 0x298 JUMPI PUSH2 0x269 DUP2 PUSH2 0x137 JUMP JUMPDEST PUSH2 0x272 DUP5 PUSH2 0x149 JUMP JUMPDEST DUP2 ADD PUSH1 0x20 DUP6 LT ISZERO PUSH2 0x281 JUMPI DUP2 SWAP1 POP JUMPDEST PUSH2 0x295 PUSH2 0x28D DUP6 PUSH2 0x149 JUMP JUMPDEST DUP4 ADD DUP3 PUSH2 0x235 JUMP JUMPDEST POP POP JUMPDEST POP POP POP JUMP JUMPDEST PUSH0 DUP3 DUP3 SHR SWAP1 POP SWAP3 SWAP2 POP POP JUMP JUMPDEST PUSH0 PUSH2 0x2B8 PUSH0 NOT DUP5 PUSH1 0x8 MUL PUSH2 0x29D JUMP JUMPDEST NOT DUP1 DUP4 AND SWAP2 POP POP SWAP3 SWAP2 POP POP JUMP JUMPDEST PUSH0 PUSH2 0x2D0 DUP4 DUP4 PUSH2 0x2A9 JUMP JUMPDEST SWAP2 POP DUP3 PUSH1 0x2 MUL DUP3 OR SWAP1 POP SWAP3 SWAP2 POP POP JUMP JUMPDEST PUSH2 0x2E9 DUP3 PUSH2 0xA3 JUMP JUMPDEST PUSH8 0xFFFFFFFFFFFFFFFF DUP2 GT ISZERO PUSH2 0x302 JUMPI PUSH2 0x301 PUSH2 0xAD JUMP JUMPDEST JUMPDEST PUSH2 0x30C DUP3 SLOAD PUSH2 0x107 JUMP JUMPDEST PUSH2 0x317 DUP3 DUP3 DUP6 PUSH2 0x257 JUMP JUMPDEST PUSH0 PUSH1 0x20 SWAP1 POP PUSH1 0x1F DUP4 GT PUSH1 0x1 DUP2 EQ PUSH2 0x348 JUMPI PUSH0 DUP5 ISZERO PUSH2 0x336 JUMPI DUP3 DUP8 ADD MLOAD SWAP1 POP JUMPDEST PUSH2 0x340 DUP6 DUP3 PUSH2 0x2C5 JUMP JUMPDEST DUP7 SSTORE POP PUSH2 0x3A7 JUMP JUMPDEST PUSH1 0x1F NOT DUP5 AND PUSH2 0x356 DUP7 PUSH2 0x137 JUMP JUMPDEST PUSH0 JUMPDEST DUP3 DUP2 LT ISZERO PUSH2 0x37D JUMPI DUP5 DUP10 ADD MLOAD DUP3 SSTORE PUSH1 0x1 DUP3 ADD SWAP2 POP PUSH1 0x20 DUP6 ADD SWAP5 POP PUSH1 0x20 DUP2 ADD SWAP1 POP PUSH2 0x358 JUMP JUMPDEST DUP7 DUP4 LT ISZERO PUSH2 0x39A JUMPI DUP5 DUP10 ADD MLOAD PUSH2 0x396 PUSH1 0x1F DUP10 AND DUP3 PUSH2 0x2A9 JUMP JUMPDEST DUP4 SSTORE POP JUMPDEST PUSH1 0x1 PUSH1 0x2 DUP9 MUL ADD DUP9 SSTORE POP POP POP JUMPDEST POP POP POP POP POP POP JUMP JUMPDEST PUSH2 0x20E8 DUP1 PUSH2 0x3BC PUSH0 CODECOPY PUSH0 RETURN INVALID PUSH1 0x80 PUSH1 0x40 MSTORE CALLVALUE DUP1 ISZERO PUSH2 0xF JUMPI PUSH0 PUSH0 REVERT JUMPDEST POP PUSH1 0x4 CALLDATASIZE LT PUSH2 0xE8 JUMPI PUSH0 CALLDATALOAD PUSH1 0xE0 SHR DUP1 PUSH4 0x70A08231 GT PUSH2 0x8A JUMPI DUP1 PUSH4 0xAC41865A GT PUSH2 0x64 JUMPI DUP1 PUSH4 0xAC41865A EQ PUSH2 0x284 JUMPI DUP1 PUSH4 0xBAA2ABDE EQ PUSH2 0x2B4 JUMPI DUP1 PUSH4 0xDD62ED3E EQ PUSH2 0x2E5 JUMPI DUP1 PUSH4 0xE8E33700 EQ PUSH2 0x315 JUMPI PUSH2 0xE8 JUMP JUMPDEST DUP1 PUSH4 0x70A08231 EQ PUSH2 0x206 JUMPI DUP1 PUSH4 0x95D89B41 EQ PUSH2 0x236 JUMPI DUP1 PUSH4 0xA9059CBB EQ PUSH2 0x254 JUMPI PUSH2 0xE8 JUMP JUMPDEST DUP1 PUSH4 0x18160DDD GT PUSH2 0xC6 JUMPI DUP1 PUSH4 0x18160DDD EQ PUSH2 0x16A JUMPI DUP1 PUSH4 0x23B872DD EQ PUSH2 0x188 JUMPI DUP1 PUSH4 0x313CE567 EQ PUSH2 0x1B8 JUMPI DUP1 PUSH4 0x38ED1739 EQ PUSH2 0x1D6 JUMPI PUSH2 0xE8 JUMP JUMPDEST DUP1 PUSH4 0x54D50D4 EQ PUSH2 0xEC JUMPI DUP1 PUSH4 0x6FDDE03 EQ PUSH2 0x11C JUMPI DUP1 PUSH4 0x95EA7B3 EQ PUSH2 0x13A JUMPI JUMPDEST PUSH0 PUSH0 REVERT JUMPDEST PUSH2 0x106 PUSH1 0x4 DUP1 CALLDATASIZE SUB DUP2 ADD SWAP1 PUSH2 0x101 SWAP2 SWAP1 PUSH2 0x1699 JUMP JUMPDEST PUSH2 0x347 JUMP JUMPDEST PUSH1 0x40 MLOAD PUSH2 0x113 SWAP2 SWAP1 PUSH2 0x16F8 JUMP JUMPDEST PUSH1 0x40 MLOAD DUP1 SWAP2 SUB SWAP1 RETURN JUMPDEST PUSH2 0x124 PUSH2 0x373 JUMP JUMPDEST PUSH1 0x40 MLOAD PUSH2 0x131 SWAP2 SWAP1 PUSH2 0x1781 JUMP JUMPDEST PUSH1 0x40 MLOAD DUP1 SWAP2 SUB SWAP1 RETURN JUMPDEST PUSH2 0x154 PUSH1 0x4 DUP1 CALLDATASIZE SUB DUP2 ADD SWAP1 PUSH2 0x14F SWAP2 SWAP1 PUSH2 0x17FB JUMP JUMPDEST PUSH2 0x403 JUMP JUMPDEST PUSH1 0x40 MLOAD PUSH2 0x161 SWAP2 SWAP1 PUSH2 0x1853 JUMP JUMPDEST PUSH1 0x40 MLOAD DUP1 SWAP2 SUB SWAP1 RETURN JUMPDEST PUSH2 0x172 PUSH2 0x425 JUMP JUMPDEST PUSH1 0x40 MLOAD PUSH2 0x17F SWAP2 SWAP1 PUSH2 0x16F8 JUMP JUMPDEST PUSH1 0x40 MLOAD DUP1 SWAP2 SUB SWAP1 RETURN JUMPDEST PUSH2 0x1A2 PUSH1 0x4 DUP1 CALLDATASIZE SUB DUP2 ADD SWAP1 PUSH2 0x19D SWAP2 SWAP1 PUSH2 0x186C JUMP JUMPDEST PUSH2 0x42E JUMP JUMPDEST PUSH1 0x40 MLOAD PUSH2 0x1AF SWAP2 SWAP1 PUSH2 0x1853 JUMP JUMPDEST PUSH1 0x40 MLOAD DUP1 SWAP2 SUB SWAP1 RETURN JUMPDEST PUSH2 0x1C0 PUSH2 0x45C JUMP JUMPDEST PUSH1 0x40 MLOAD PUSH2 0x1CD SWAP2 SWAP1 PUSH2 0x18D7 JUMP JUMPDEST PUSH1 0x40 MLOAD DUP1 SWAP2 SUB SWAP1 RETURN JUMPDEST PUSH2 0x1F0 PUSH1 0x4 DUP1 CALLDATASIZE SUB DUP2 ADD SWAP1 PUSH2 0x1EB SWAP2 SWAP1 PUSH2 0x1951 JUMP JUMPDEST PUSH2 0x464 JUMP JUMPDEST PUSH1 0x40 MLOAD PUSH2 0x1FD SWAP2 SWAP1 PUSH2 0x1A9E JUMP JUMPDEST PUSH1 0x40 MLOAD DUP1 SWAP2 SUB SWAP1 RETURN JUMPDEST PUSH2 0x220 PUSH1 0x4 DUP1 CALLDATASIZE SUB DUP2 ADD SWAP1 PUSH2 0x21B SWAP2 SWAP1 PUSH2 0x1ABE JUMP JUMPDEST PUSH2 0x7B3 JUMP JUMPDEST PUSH1 0x40 MLOAD PUSH2 0x22D SWAP2 SWAP1 PUSH2 0x16F8 JUMP JUMPDEST PUSH1 0x40 MLOAD DUP1 SWAP2 SUB SWAP1 RETURN JUMPDEST PUSH2 0x23E PUSH2 0x7F8 JUMP JUMPDEST PUSH1 0x40 MLOAD PUSH2 0x24B SWAP2 SWAP1 PUSH2 0x1781 JUMP JUMPDEST PUSH1 0x40 MLOAD DUP1 SWAP2 SUB SWAP1 RETURN JUMPDEST PUSH2 0x26E PUSH1 0x4 DUP1 CALLDATASIZE SUB DUP2 ADD SWAP1 PUSH2 0x269 SWAP2 SWAP1 PUSH2 0x17FB JUMP JUMPDEST PUSH2 0x888 JUMP JUMPDEST PUSH1 0x40 MLOAD PUSH2 0x27B SWAP2 SWAP1 PUSH2 0x1853 JUMP JUMPDEST PUSH1 0x40 MLOAD DUP1 SWAP2 SUB SWAP1 RETURN JUMPDEST PUSH2 0x29E PUSH1 0x4 DUP1 CALLDATASIZE SUB DUP2 ADD SWAP1 PUSH2 0x299 SWAP2 SWAP1 PUSH2 0x1AE9 JUMP JUMPDEST PUSH2 0x8AA JUMP JUMPDEST PUSH1 0x40 MLOAD PUSH2 0x2AB SWAP2 SWAP1 PUSH2 0x16F8 JUMP JUMPDEST PUSH1 0x40 MLOAD DUP1 SWAP2 SUB SWAP1 RETURN JUMPDEST PUSH2 0x2CE PUSH1 0x4 DUP1 CALLDATASIZE SUB DUP2 ADD SWAP1 PUSH2 0x2C9 SWAP2 SWAP1 PUSH2 0x1B27 JUMP JUMPDEST PUSH2 0x9CA JUMP JUMPDEST PUSH1 0x40 MLOAD PUSH2 0x2DC SWAP3 SWAP2 SWAP1 PUSH2 0x1BC4 JUMP JUMPDEST PUSH1 0x40 MLOAD DUP1 SWAP2 SUB SWAP1 RETURN JUMPDEST PUSH2 0x2FF PUSH1 0x4 DUP1 CALLDATASIZE SUB DUP2 ADD SWAP1 PUSH2 0x2FA SWAP2 SWAP1 PUSH2 0x1AE9 JUMP JUMPDEST PUSH2 0xC61 JUMP JUMPDEST PUSH1 0x40 MLOAD PUSH2 0x30C SWAP2 SWAP1 PUSH2 0x16F8 JUMP JUMPDEST PUSH1 0x40 MLOAD DUP1 SWAP2 SUB SWAP1 RETURN JUMPDEST PUSH2 0x32F PUSH1 0x4 DUP1 CALLDATASIZE SUB DUP2 ADD SWAP1 PUSH2 0x32A SWAP2 SWAP1 PUSH2 0x1BEB JUMP JUMPDEST PUSH2 0xCE3 JUMP JUMPDEST PUSH1 0x40 MLOAD PUSH2 0x33E SWAP4 SWAP3 SWAP2 SWAP1 PUSH2 0x1C9C JUMP JUMPDEST PUSH1 0x40 MLOAD DUP1 SWAP2 SUB SWAP1 RETURN JUMPDEST PUSH0 DUP3 DUP5 PUSH2 0x354 SWAP2 SWAP1 PUSH2 0x1CFE JUMP JUMPDEST DUP3 DUP6 PUSH2 0x360 SWAP2 SWAP1 PUSH2 0x1D31 JUMP JUMPDEST PUSH2 0x36A SWAP2 SWAP1 PUSH2 0x1D9F JUMP JUMPDEST SWAP1 POP SWAP4 SWAP3 POP POP POP JUMP JUMPDEST PUSH1 0x60 PUSH1 0x3 DUP1 SLOAD PUSH2 0x382 SWAP1 PUSH2 0x1DFC JUMP JUMPDEST DUP1 PUSH1 0x1F ADD PUSH1 0x20 DUP1 SWAP2 DIV MUL PUSH1 0x20 ADD PUSH1 0x40 MLOAD SWAP1 DUP2 ADD PUSH1 0x40 MSTORE DUP1 SWAP3 SWAP2 SWAP1 DUP2 DUP2 MSTORE PUSH1 0x20 ADD DUP3 DUP1 SLOAD PUSH2 0x3AE SWAP1 PUSH2 0x1DFC JUMP JUMPDEST DUP1 ISZERO PUSH2 0x3F9 JUMPI DUP1 PUSH1 0x1F LT PUSH2 0x3D0 JUMPI PUSH2 0x100 DUP1 DUP4 SLOAD DIV MUL DUP4 MSTORE SWAP2 PUSH1 0x20 ADD SWAP2 PUSH2 0x3F9 JUMP JUMPDEST DUP3 ADD SWAP2 SWAP1 PUSH0 MSTORE PUSH1 0x20 PUSH0 KECCAK256 SWAP1 JUMPDEST DUP2 SLOAD DUP2 MSTORE SWAP1 PUSH1 0x1 ADD SWAP1 PUSH1 0x20 ADD DUP1 DUP4 GT PUSH2 0x3DC JUMPI DUP3 SWAP1 SUB PUSH1 0x1F AND DUP3 ADD SWAP2 JUMPDEST POP POP POP POP POP SWAP1 POP SWAP1 JUMP JUMPDEST PUSH0 PUSH0 PUSH2 0x40D PUSH2 0xFDC JUMP JUMPDEST SWAP1 POP PUSH2 0x41A DUP2 DUP6 DUP6 PUSH2 0xFE3 JUMP JUMPDEST PUSH1 0x1 SWAP2 POP POP SWAP3 SWAP2 POP POP JUMP JUMPDEST PUSH0 PUSH1 0x2 SLOAD SWAP1 POP SWAP1 JUMP JUMPDEST PUSH0 PUSH0 PUSH2 0x438 PUSH2 0xFDC JUMP JUMPDEST SWAP1 POP PUSH2 0x445 DUP6 DUP3 DUP6 PUSH2 0xFF5 JUMP JUMPDEST PUSH2 0x450 DUP6 DUP6 DUP6 PUSH2 0x1088 JUMP JUMPDEST PUSH1 0x1 SWAP2 POP POP SWAP4 SWAP3 POP POP POP JUMP JUMPDEST PUSH0 PUSH1 0x12 SWAP1 POP SWAP1 JUMP JUMPDEST PUSH1 0x60 TIMESTAMP DUP3 LT ISZERO PUSH2 0x4A9 JUMPI PUSH1 0x40 MLOAD PUSH32 0x8C379A000000000000000000000000000000000000000000000000000000000 DUP2 MSTORE PUSH1 0x4 ADD PUSH2 0x4A0 SWAP1 PUSH2 0x1E76 JUMP JUMPDEST PUSH1 0x40 MLOAD DUP1 SWAP2 SUB SWAP1 REVERT JUMPDEST PUSH0 DUP6 DUP6 PUSH0 DUP2 DUP2 LT PUSH2 0x4BD JUMPI PUSH2 0x4BC PUSH2 0x1E94 JUMP JUMPDEST JUMPDEST SWAP1 POP PUSH1 0x20 MUL ADD PUSH1 0x20 DUP2 ADD SWAP1 PUSH2 0x4D2 SWAP2 SWAP1 PUSH2 0x1ABE JUMP JUMPDEST SWAP1 POP PUSH0 DUP7 DUP7 PUSH1 0x1 DUP2 DUP2 LT PUSH2 0x4E9 JUMPI PUSH2 0x4E8 PUSH2 0x1E94 JUMP JUMPDEST JUMPDEST SWAP1 POP PUSH1 0x20 MUL ADD PUSH1 0x20 DUP2 ADD SWAP1 PUSH2 0x4FE SWAP2 SWAP1 PUSH2 0x1ABE JUMP JUMPDEST SWAP1 POP PUSH0 DUP3 PUSH20 0xFFFFFFFFFFFFFFFFFFFFFFFFFFFFFFFFFFFFFFFF AND PUSH4 0x70A08231 ADDRESS PUSH1 0x40 MLOAD DUP3 PUSH4 0xFFFFFFFF AND PUSH1 0xE0 SHL DUP2 MSTORE PUSH1 0x4 ADD PUSH2 0x53A SWAP2 SWAP1 PUSH2 0x1ED0 JUMP JUMPDEST PUSH1 0x20 PUSH1 0x40 MLOAD DUP1 DUP4 SUB DUP2 DUP7 GAS STATICCALL ISZERO DUP1 ISZERO PUSH2 0x555 JUMPI RETURNDATASIZE PUSH0 PUSH0 RETURNDATACOPY RETURNDATASIZE PUSH0 REVERT JUMPDEST POP POP POP POP PUSH1 0x40 MLOAD RETURNDATASIZE PUSH1 0x1F NOT PUSH1 0x1F DUP3 ADD AND DUP3 ADD DUP1 PUSH1 0x40 MSTORE POP DUP2 ADD SWAP1 PUSH2 0x579 SWAP2 SWAP1 PUSH2 0x1EFD JUMP JUMPDEST DUP11 PUSH2 0x584 SWAP2 SWAP1 PUSH2 0x1CFE JUMP JUMPDEST DUP3 PUSH20 0xFFFFFFFFFFFFFFFFFFFFFFFFFFFFFFFFFFFFFFFF AND PUSH4 0x70A08231 ADDRESS PUSH1 0x40 MLOAD DUP3 PUSH4 0xFFFFFFFF AND PUSH1 0xE0 SHL DUP2 MSTORE PUSH1 0x4 ADD PUSH2 0x5BD SWAP2 SWAP1 PUSH2 0x1ED0 JUMP JUMPDEST PUSH1 0x20 PUSH1 0x40 MLOAD DUP1 DUP4 SUB DUP2 DUP7 GAS STATICCALL ISZERO DUP1 ISZERO PUSH2 0x5D8 JUMPI RETURNDATASIZE PUSH0 PUSH0 RETURNDATACOPY RETURNDATASIZE PUSH0 REVERT JUMPDEST POP POP POP POP PUSH1 0x40 MLOAD RETURNDATASIZE PUSH1 0x1F NOT PUSH1 0x1F DUP3 ADD AND DUP3 ADD DUP1 PUSH1 0x40 MSTORE POP DUP2 ADD SWAP1 PUSH2 0x5FC SWAP2 SWAP1 PUSH2 0x1EFD JUMP JUMPDEST DUP12 PUSH2 0x607 SWAP2 SWAP1 PUSH2 0x1D31 JUMP JUMPDEST PUSH2 0x611 SWAP2 SWAP1 PUSH2 0x1D9F JUMP JUMPDEST SWAP1 POP DUP9 DUP2 LT ISZERO PUSH2 0x61F JUMPI PUSH0 PUSH0 REVERT JUMPDEST DUP3 PUSH20 0xFFFFFFFFFFFFFFFFFFFFFFFFFFFFFFFFFFFFFFFF AND PUSH4 0x23B872DD CALLER ADDRESS PUSH0 PUSH1 0x40 MLOAD DUP5 PUSH4 0xFFFFFFFF AND PUSH1 0xE0 SHL DUP2 MSTORE PUSH1 0x4 ADD PUSH2 0x65C SWAP4 SWAP3 SWAP2 SWAP1 PUSH2 0x1F6A JUMP JUMPDEST PUSH1 0x20 PUSH1 0x40 MLOAD DUP1 DUP4 SUB DUP2 PUSH0 DUP8 GAS CALL ISZERO DUP1 ISZERO PUSH2 0x678 JUMPI RETURNDATASIZE PUSH0 PUSH0 RETURNDATACOPY RETURNDATASIZE PUSH0 REVERT JUMPDEST POP POP POP POP PUSH1 0x40 MLOAD RETURNDATASIZE PUSH1 0x1F NOT PUSH1 0x1F DUP3 ADD AND DUP3 ADD DUP1 PUSH1 0x40 MSTORE POP DUP2 ADD SWAP1 PUSH2 0x69C SWAP2 SWAP1 PUSH2 0x1FC9 JUMP JUMPDEST POP DUP2 PUSH20 0xFFFFFFFFFFFFFFFFFFFFFFFFFFFFFFFFFFFFFFFF AND PUSH4 0xA9059CBB DUP8 DUP4 PUSH1 0x40 MLOAD DUP4 PUSH4 0xFFFFFFFF AND PUSH1 0xE0 SHL DUP2 MSTORE PUSH1 0x4 ADD PUSH2 0x6D8 SWAP3 SWAP2 SWAP1 PUSH2 0x1FF4 JUMP JUMPDEST PUSH1 0x20 PUSH1 0x40 MLOAD DUP1 DUP4 SUB DUP2 PUSH0 DUP8 GAS CALL ISZERO DUP1 ISZERO PUSH2 0x6F4 JUMPI RETURNDATASIZE PUSH0 PUSH0 RETURNDATACOPY RETURNDATASIZE PUSH0 REVERT JUMPDEST POP POP POP POP PUSH1 0x40 MLOAD RETURNDATASIZE PUSH1 0x1F NOT PUSH1 0x1F DUP3 ADD AND DUP3 ADD DUP1 PUSH1 0x40 MSTORE POP DUP2 ADD SWAP1 PUSH2 0x718 SWAP2 SWAP1 PUSH2 0x1FC9 JUMP JUMPDEST POP PUSH1 0x2 PUSH8 0xFFFFFFFFFFFFFFFF DUP2 GT ISZERO PUSH2 0x734 JUMPI PUSH2 0x733 PUSH2 0x201B JUMP JUMPDEST JUMPDEST PUSH1 0x40 MLOAD SWAP1 DUP1 DUP3 MSTORE DUP1 PUSH1 0x20 MUL PUSH1 0x20 ADD DUP3 ADD PUSH1 0x40 MSTORE DUP1 ISZERO PUSH2 0x762 JUMPI DUP2 PUSH1 0x20 ADD PUSH1 0x20 DUP3 MUL DUP1 CALLDATASIZE DUP4 CALLDATACOPY DUP1 DUP3 ADD SWAP2 POP POP SWAP1 POP JUMPDEST POP SWAP4 POP DUP10 DUP5 PUSH0 DUP2 MLOAD DUP2 LT PUSH2 0x779 JUMPI PUSH2 0x778 PUSH2 0x1E94 JUMP JUMPDEST JUMPDEST PUSH1 0x20 MUL PUSH1 0x20 ADD ADD DUP2 DUP2 MSTORE POP POP DUP1 DUP5 PUSH1 0x1 DUP2 MLOAD DUP2 LT PUSH2 0x79A JUMPI PUSH2 0x799 PUSH2 0x1E94 JUMP JUMPDEST JUMPDEST PUSH1 0x20 MUL PUSH1 0x20 ADD ADD DUP2 DUP2 MSTORE POP POP POP POP POP SWAP7 SWAP6 POP POP POP POP POP POP JUMP JUMPDEST PUSH0 PUSH0 PUSH0 DUP4 PUSH20 0xFFFFFFFFFFFFFFFFFFFFFFFFFFFFFFFFFFFFFFFF AND PUSH20 0xFFFFFFFFFFFFFFFFFFFFFFFFFFFFFFFFFFFFFFFF AND DUP2 MSTORE PUSH1 0x20 ADD SWAP1 DUP2 MSTORE PUSH1 0x20 ADD PUSH0 KECCAK256 SLOAD SWAP1 POP SWAP2 SWAP1 POP JUMP JUMPDEST PUSH1 0x60 PUSH1 0x4 DUP1 SLOAD PUSH2 0x807 SWAP1 PUSH2 0x1DFC JUMP JUMPDEST DUP1 PUSH1 0x1F ADD PUSH1 0x20 DUP1 SWAP2 DIV MUL PUSH1 0x20 ADD PUSH1 0x40 MLOAD SWAP1 DUP2 ADD PUSH1 0x40 MSTORE DUP1 SWAP3 SWAP2 SWAP1 DUP2 DUP2 MSTORE PUSH1 0x20 ADD DUP3 DUP1 SLOAD PUSH2 0x833 SWAP1 PUSH2 0x1DFC JUMP JUMPDEST DUP1 ISZERO PUSH2 0x87E JUMPI DUP1 PUSH1 0x1F LT PUSH2 0x855 JUMPI PUSH2 0x100 DUP1 DUP4 SLOAD DIV MUL DUP4 MSTORE SWAP2 PUSH1 0x20 ADD SWAP2 PUSH2 0x87E JUMP JUMPDEST DUP3 ADD SWAP2 SWAP1 PUSH0 MSTORE PUSH1 0x20 PUSH0 KECCAK256 SWAP1 JUMPDEST DUP2 SLOAD DUP2 MSTORE SWAP1 PUSH1 0x1 ADD SWAP1 PUSH1 0x20 ADD DUP1 DUP4 GT PUSH2 0x861 JUMPI DUP3 SWAP1 SUB PUSH1 0x1F AND DUP3 ADD SWAP2 JUMPDEST POP POP POP POP POP SWAP1 POP SWAP1 JUMP JUMPDEST PUSH0 PUSH0 PUSH2 0x892 PUSH2 0xFDC JUMP JUMPDEST SWAP1 POP PUSH2 0x89F DUP2 DUP6 DUP6 PUSH2 0x1088 JUMP JUMPDEST PUSH1 0x1 SWAP2 POP POP SWAP3 SWAP2 POP POP JUMP JUMPDEST PUSH0 PUSH0 DUP4 PUSH20 0xFFFFFFFFFFFFFFFFFFFFFFFFFFFFFFFFFFFFFFFF AND PUSH4 0x70A08231 ADDRESS PUSH1 0x40 MLOAD DUP3 PUSH4 0xFFFFFFFF AND PUSH1 0xE0 SHL DUP2 MSTORE PUSH1 0x4 ADD PUSH2 0x8E5 SWAP2 SWAP1 PUSH2 0x1ED0 JUMP JUMPDEST PUSH1 0x20 PUSH1 0x40 MLOAD DUP1 DUP4 SUB DUP2 DUP7 GAS STATICCALL ISZERO DUP1 ISZERO PUSH2 0x900 JUMPI RETURNDATASIZE PUSH0 PUSH0 RETURNDATACOPY RETURNDATASIZE PUSH0 REVERT JUMPDEST POP POP POP POP PUSH1 0x40 MLOAD RETURNDATASIZE PUSH1 0x1F NOT PUSH1 0x1F DUP3 ADD AND DUP3 ADD DUP1 PUSH1 0x40 MSTORE POP DUP2 ADD SWAP1 PUSH2 0x924 SWAP2 SWAP1 PUSH2 0x1EFD JUMP JUMPDEST SWAP1 POP PUSH0 DUP4 PUSH20 0xFFFFFFFFFFFFFFFFFFFFFFFFFFFFFFFFFFFFFFFF AND PUSH4 0x70A08231 ADDRESS PUSH1 0x40 MLOAD DUP3 PUSH4 0xFFFFFFFF AND PUSH1 0xE0 SHL DUP2 MSTORE PUSH1 0x4 ADD PUSH2 0x960 SWAP2 SWAP1 PUSH2 0x1ED0 JUMP JUMPDEST PUSH1 0x20 PUSH1 0x40 MLOAD DUP1 DUP4 SUB DUP2 DUP7 GAS STATICCALL ISZERO DUP1 ISZERO PUSH2 0x97B JUMPI RETURNDATASIZE PUSH0 PUSH0 RETURNDATACOPY RETURNDATASIZE PUSH0 REVERT JUMPDEST POP POP POP POP PUSH1 0x40 MLOAD RETURNDATASIZE PUSH1 0x1F NOT PUSH1 0x1F DUP3 ADD AND DUP3 ADD DUP1 PUSH1 0x40 MSTORE POP DUP2 ADD SWAP1 PUSH2 0x99F SWAP2 SWAP1 PUSH2 0x1EFD JUMP JUMPDEST SWAP1 POP DUP2 PUSH8 0xDE0B6B3A7640000 DUP3 PUSH2 0x9B6 SWAP2 SWAP1 PUSH2 0x1D31 JUMP JUMPDEST PUSH2 0x9C0 SWAP2 SWAP1 PUSH2 0x1D9F JUMP JUMPDEST SWAP3 POP POP POP SWAP3 SWAP2 POP POP JUMP JUMPDEST PUSH0 PUSH0 TIMESTAMP DUP4 LT ISZERO PUSH2 0xA0F JUMPI PUSH1 0x40 MLOAD PUSH32 0x8C379A000000000000000000000000000000000000000000000000000000000 DUP2 MSTORE PUSH1 0x4 ADD PUSH2 0xA06 SWAP1 PUSH2 0x1E76 JUMP JUMPDEST PUSH1 0x40 MLOAD DUP1 SWAP2 SUB SWAP1 REVERT JUMPDEST PUSH0 PUSH2 0xA18 PUSH2 0x425 JUMP JUMPDEST SWAP1 POP DUP1 DUP11 PUSH20 0xFFFFFFFFFFFFFFFFFFFFFFFFFFFFFFFFFFFFFFFF AND PUSH4 0x70A08231 ADDRESS PUSH1 0x40 MLOAD DUP3 PUSH4 0xFFFFFFFF AND PUSH1 0xE0 SHL DUP2 MSTORE PUSH1 0x4 ADD PUSH2 0xA54 SWAP2 SWAP1 PUSH2 0x1ED0 JUMP JUMPDEST PUSH1 0x20 PUSH1 0x40 MLOAD DUP1 DUP4 SUB DUP2 DUP7 GAS STATICCALL ISZERO DUP1 ISZERO PUSH2 0xA6F JUMPI RETURNDATASIZE PUSH0 PUSH0 RETURNDATACOPY RETURNDATASIZE PUSH0 REVERT JUMPDEST POP POP POP POP PUSH1 0x40 MLOAD RETURNDATASIZE PUSH1 0x1F NOT PUSH1 0x1F DUP3 ADD AND DUP3 ADD DUP1 PUSH1 0x40 MSTORE POP DUP2 ADD SWAP1 PUSH2 0xA93 SWAP2 SWAP1 PUSH2 0x1EFD JUMP JUMPDEST DUP10 PUSH2 0xA9E SWAP2 SWAP1 PUSH2 0x1D31 JUMP JUMPDEST PUSH2 0xAA8 SWAP2 SWAP1 PUSH2 0x1D9F JUMP JUMPDEST SWAP3 POP DUP1 DUP10 PUSH20 0xFFFFFFFFFFFFFFFFFFFFFFFFFFFFFFFFFFFFFFFF AND PUSH4 0x70A08231 ADDRESS PUSH1 0x40 MLOAD DUP3 PUSH4 0xFFFFFFFF AND PUSH1 0xE0 SHL DUP2 MSTORE PUSH1 0x4 ADD PUSH2 0xAE4 SWAP2 SWAP1 PUSH2 0x1ED0 JUMP JUMPDEST PUSH1 0x20 PUSH1 0x40 MLOAD DUP1 DUP4 SUB DUP2 DUP7 GAS STATICCALL ISZERO DUP1 ISZERO PUSH2 0xAFF JUMPI RETURNDATASIZE PUSH0 PUSH0 RETURNDATACOPY RETURNDATASIZE PUSH0 REVERT JUMPDEST POP POP POP POP PUSH1 0x40 MLOAD RETURNDATASIZE PUSH1 0x1F NOT PUSH1 0x1F DUP3 ADD AND DUP3 ADD DUP1 PUSH1 0x40 MSTORE POP DUP2 ADD SWAP1 PUSH2 0xB23 SWAP2 SWAP1 PUSH2 0x1EFD JUMP JUMPDEST DUP10 PUSH2 0xB2E SWAP2 SWAP1 PUSH2 0x1D31 JUMP JUMPDEST PUSH2 0xB38 SWAP2 SWAP1 PUSH2 0x1D9F JUMP JUMPDEST SWAP2 POP DUP3 DUP8 GT ISZERO PUSH2 0xB46 JUMPI PUSH0 PUSH0 REVERT JUMPDEST DUP2 DUP7 GT ISZERO PUSH2 0xB52 JUMPI PUSH0 PUSH0 REVERT JUMPDEST PUSH2 0xB5C CALLER DUP10 PUSH2 0x1178 JUMP JUMPDEST DUP10 PUSH20 0xFFFFFFFFFFFFFFFFFFFFFFFFFFFFFFFFFFFFFFFF AND PUSH4 0xA9059CBB DUP7 DUP6 PUSH1 0x40 MLOAD DUP4 PUSH4 0xFFFFFFFF AND PUSH1 0xE0 SHL DUP2 MSTORE PUSH1 0x4 ADD PUSH2 0xB97 SWAP3 SWAP2 SWAP1 PUSH2 0x1FF4 JUMP JUMPDEST PUSH1 0x20 PUSH1 0x40 MLOAD DUP1 DUP4 SUB DUP2 PUSH0 DUP8 GAS CALL ISZERO DUP1 ISZERO PUSH2 0xBB3 JUMPI RETURNDATASIZE PUSH0 PUSH0 RETURNDATACOPY RETURNDATASIZE PUSH0 REVERT JUMPDEST POP POP POP POP PUSH1 0x40 MLOAD RETURNDATASIZE PUSH1 0x1F NOT PUSH1 0x1F DUP3 ADD AND DUP3 ADD DUP1 PUSH1 0x40 MSTORE POP DUP2 ADD SWAP1 PUSH2 0xBD7 SWAP2 SWAP1 PUSH2 0x1FC9 JUMP JUMPDEST POP DUP9 PUSH20 0xFFFFFFFFFFFFFFFFFFFFFFFFFFFFFFFFFFFFFFFF AND PUSH4 0xA9059CBB DUP7 DUP5 PUSH1 0x40 MLOAD DUP4 PUSH4 0xFFFFFFFF AND PUSH1 0xE0 SHL DUP2 MSTORE PUSH1 0x4 ADD PUSH2 0xC13 SWAP3 SWAP2 SWAP1 PUSH2 0x1FF4 JUMP JUMPDEST PUSH1 0x20 PUSH1 0x40 MLOAD DUP1 DUP4 SUB DUP2 PUSH0 DUP8 GAS CALL ISZERO DUP1 ISZERO PUSH2 0xC2F JUMPI RETURNDATASIZE PUSH0 PUSH0 RETURNDATACOPY RETURNDATASIZE PUSH0 REVERT JUMPDEST POP POP POP POP PUSH1 0x40 MLOAD RETURNDATASIZE PUSH1 0x1F NOT PUSH1 0x1F DUP3 ADD AND DUP3 ADD DUP1 PUSH1 0x40 MSTORE POP DUP2 ADD SWAP1 PUSH2 0xC53 SWAP2 SWAP1 PUSH2 0x1FC9 JUMP JUMPDEST POP POP SWAP8 POP SWAP8 SWAP6 POP POP POP POP POP POP JUMP JUMPDEST PUSH0 PUSH1 0x1 PUSH0 DUP5 PUSH20 0xFFFFFFFFFFFFFFFFFFFFFFFFFFFFFFFFFFFFFFFF AND PUSH20 0xFFFFFFFFFFFFFFFFFFFFFFFFFFFFFFFFFFFFFFFF AND DUP2 MSTORE PUSH1 0x20 ADD SWAP1 DUP2 MSTORE PUSH1 0x20 ADD PUSH0 KECCAK256 PUSH0 DUP4 PUSH20 0xFFFFFFFFFFFFFFFFFFFFFFFFFFFFFFFFFFFFFFFF AND PUSH20 0xFFFFFFFFFFFFFFFFFFFFFFFFFFFFFFFFFFFFFFFF AND DUP2 MSTORE PUSH1 0x20 ADD SWAP1 DUP2 MSTORE PUSH1 0x20 ADD PUSH0 KECCAK256 SLOAD SWAP1 POP SWAP3 SWAP2 POP POP JUMP JUMPDEST PUSH0 PUSH0 PUSH0 TIMESTAMP DUP5 LT ISZERO PUSH2 0xD29 JUMPI PUSH1 0x40 MLOAD PUSH32 0x8C379A000000000000000000000000000000000000000000000000000000000 DUP2 MSTORE PUSH1 0x4 ADD PUSH2 0xD20 SWAP1 PUSH2 0x1E76 JUMP JUMPDEST PUSH1 0x40 MLOAD DUP1 SWAP2 SUB SWAP1 REVERT JUMPDEST PUSH2 0xD31 PUSH2 0x425 JUMP JUMPDEST SWAP1 POP PUSH0 DUP2 GT ISZERO PUSH2 0xEA6 JUMPI PUSH0 DUP12 PUSH20 0xFFFFFFFFFFFFFFFFFFFFFFFFFFFFFFFFFFFFFFFF AND PUSH4 0x70A08231 ADDRESS PUSH1 0x40 MLOAD DUP3 PUSH4 0xFFFFFFFF AND PUSH1 0xE0 SHL DUP2 MSTORE PUSH1 0x4 ADD PUSH2 0xD75 SWAP2 SWAP1 PUSH2 0x1ED0 JUMP JUMPDEST PUSH1 0x20 PUSH1 0x40 MLOAD DUP1 DUP4 SUB DUP2 DUP7 GAS STATICCALL ISZERO DUP1 ISZERO PUSH2 0xD90 JUMPI RETURNDATASIZE PUSH0 PUSH0 RETURNDATACOPY RETURNDATASIZE PUSH0 REVERT JUMPDEST POP POP POP POP PUSH1 0x40 MLOAD RETURNDATASIZE PUSH1 0x1F NOT PUSH1 0x1F DUP3 ADD AND DUP3 ADD DUP1 PUSH1 0x40 MSTORE POP DUP2 ADD SWAP1 PUSH2 0xDB4 SWAP2 SWAP1 PUSH2 0x1EFD JUMP JUMPDEST DUP3 DUP12 PUSH2 0xDC0 SWAP2 SWAP1 PUSH2 0x1D31 JUMP JUMPDEST PUSH2 0xDCA SWAP2 SWAP1 PUSH2 0x1D9F JUMP JUMPDEST SWAP1 POP PUSH0 DUP12 PUSH20 0xFFFFFFFFFFFFFFFFFFFFFFFFFFFFFFFFFFFFFFFF AND PUSH4 0x70A08231 ADDRESS PUSH1 0x40 MLOAD DUP3 PUSH4 0xFFFFFFFF AND PUSH1 0xE0 SHL DUP2 MSTORE PUSH1 0x4 ADD PUSH2 0xE06 SWAP2 SWAP1 PUSH2 0x1ED0 JUMP JUMPDEST PUSH1 0x20 PUSH1 0x40 MLOAD DUP1 DUP4 SUB DUP2 DUP7 GAS STATICCALL ISZERO DUP1 ISZERO PUSH2 0xE21 JUMPI RETURNDATASIZE PUSH0 PUSH0 RETURNDATACOPY RETURNDATASIZE PUSH0 REVERT JUMPDEST POP POP POP POP PUSH1 0x40 MLOAD RETURNDATASIZE PUSH1 0x1F NOT PUSH1 0x1F DUP3 ADD AND DUP3 ADD DUP1 PUSH1 0x40 MSTORE POP DUP2 ADD SWAP1 PUSH2 0xE45 SWAP2 SWAP1 PUSH2 0x1EFD JUMP JUMPDEST DUP4 DUP12 PUSH2 0xE51 SWAP2 SWAP1 PUSH2 0x1D31 JUMP JUMPDEST PUSH2 0xE5B SWAP2 SWAP1 PUSH2 0x1D9F JUMP JUMPDEST SWAP1 POP DUP1 DUP3 LT ISZERO PUSH2 0xE84 JUMPI DUP11 SWAP5 POP DUP5 PUSH2 0xE73 DUP15 DUP15 PUSH2 0x8AA JUMP JUMPDEST PUSH2 0xE7D SWAP2 SWAP1 PUSH2 0x1D31 JUMP JUMPDEST SWAP4 POP PUSH2 0xE9F JUMP JUMPDEST DUP10 SWAP4 POP DUP4 PUSH2 0xE92 DUP14 DUP16 PUSH2 0x8AA JUMP JUMPDEST PUSH2 0xE9C SWAP2 SWAP1 PUSH2 0x1D31 JUMP JUMPDEST SWAP5 POP JUMPDEST POP POP PUSH2 0xEB0 JUMP JUMPDEST DUP9 SWAP1 POP DUP9 SWAP3 POP DUP8 SWAP2 POP JUMPDEST DUP3 DUP8 GT ISZERO PUSH2 0xEBC JUMPI PUSH0 PUSH0 REVERT JUMPDEST DUP2 DUP7 GT ISZERO PUSH2 0xEC8 JUMPI PUSH0 PUSH0 REVERT JUMPDEST DUP11 PUSH20 0xFFFFFFFFFFFFFFFFFFFFFFFFFFFFFFFFFFFFFFFF AND PUSH4 0x23B872DD CALLER ADDRESS DUP7 PUSH1 0x40 MLOAD DUP5 PUSH4 0xFFFFFFFF AND PUSH1 0xE0 SHL DUP2 MSTORE PUSH1 0x4 ADD PUSH2 0xF05 SWAP4 SWAP3 SWAP2 SWAP1 PUSH2 0x2048 JUMP JUMPDEST PUSH1 0x20 PUSH1 0x40 MLOAD DUP1 DUP4 SUB DUP2 PUSH0 DUP8 GAS CALL ISZERO DUP1 ISZERO PUSH2 0xF21 JUMPI RETURNDATASIZE PUSH0 PUSH0 RETURNDATACOPY RETURNDATASIZE PUSH0 REVERT JUMPDEST POP POP POP POP PUSH1 0x40 MLOAD RETURNDATASIZE PUSH1 0x1F NOT PUSH1 0x1F DUP3 ADD AND DUP3 ADD DUP1 PUSH1 0x40 MSTORE POP DUP2 ADD SWAP1 PUSH2 0xF45 SWAP2 SWAP1 PUSH2 0x1FC9 JUMP JUMPDEST POP DUP10 PUSH20 0xFFFFFFFFFFFFFFFFFFFFFFFFFFFFFFFFFFFFFFFF AND PUSH4 0x23B872DD CALLER ADDRESS DUP6 PUSH1 0x40 MLOAD DUP5 PUSH4 0xFFFFFFFF AND PUSH1 0xE0 SHL DUP2 MSTORE PUSH1 0x4 ADD PUSH2 0xF83 SWAP4 SWAP3 SWAP2 SWAP1 PUSH2 0x2048 JUMP JUMPDEST PUSH1 0x20 PUSH1 0x40 MLOAD DUP1 DUP4 SUB DUP2 PUSH0 DUP8 GAS CALL ISZERO DUP1 ISZERO PUSH2 0xF9F JUMPI RETURNDATASIZE PUSH0 PUSH0 RETURNDATACOPY RETURNDATASIZE PUSH0 REVERT JUMPDEST POP POP POP POP PUSH1 0x40 MLOAD RETURNDATASIZE PUSH1 0x1F NOT PUSH1 0x1F DUP3 ADD AND DUP3 ADD DUP1 PUSH1 0x40 MSTORE POP DUP2 ADD SWAP1 PUSH2 0xFC3 SWAP2 SWAP1 PUSH2 0x1FC9 JUMP JUMPDEST POP PUSH2 0xFCE DUP6 DUP3 PUSH2 0x11F7 JUMP JUMPDEST SWAP9 POP SWAP9 POP SWAP9 SWAP6 POP POP POP POP POP POP JUMP JUMPDEST PUSH0 CALLER SWAP1 POP SWAP1 JUMP JUMPDEST PUSH2 0xFF0 DUP4 DUP4 DUP4 PUSH1 0x1 PUSH2 0x1276 JUMP JUMPDEST POP POP POP JUMP JUMPDEST PUSH0 PUSH2 0x1000 DUP5 DUP5 PUSH2 0xC61 JUMP JUMPDEST SWAP1 POP PUSH32 0xFFFFFFFFFFFFFFFFFFFFFFFFFFFFFFFFFFFFFFFFFFFFFFFFFFFFFFFFFFFFFFFF DUP2 LT ISZERO PUSH2 0x1082 JUMPI DUP2 DUP2 LT ISZERO PUSH2 0x1073 JUMPI DUP3 DUP2 DUP4 PUSH1 0x40 MLOAD PUSH32 0xFB8F41B200000000000000000000000000000000000000000000000000000000 DUP2 MSTORE PUSH1 0x4 ADD PUSH2 0x106A SWAP4 SWAP3 SWAP2 SWAP1 PUSH2 0x207D JUMP JUMPDEST PUSH1 0x40 MLOAD DUP1 SWAP2 SUB SWAP1 REVERT JUMPDEST PUSH2 0x1081 DUP5 DUP5 DUP5 DUP5 SUB PUSH0 PUSH2 0x1276 JUMP JUMPDEST JUMPDEST POP POP POP POP JUMP JUMPDEST PUSH0 PUSH20 0xFFFFFFFFFFFFFFFFFFFFFFFFFFFFFFFFFFFFFFFF AND DUP4 PUSH20 0xFFFFFFFFFFFFFFFFFFFFFFFFFFFFFFFFFFFFFFFF AND SUB PUSH2 0x10F8 JUMPI PUSH0 PUSH1 0x40 MLOAD PUSH32 0x96C6FD1E00000000000000000000000000000000000000000000000000000000 DUP2 MSTORE PUSH1 0x4 ADD PUSH2 0x10EF SWAP2 SWAP1 PUSH2 0x1ED0 JUMP JUMPDEST PUSH1 0x40 MLOAD DUP1 SWAP2 SUB SWAP1 REVERT JUMPDEST PUSH0 PUSH20 0xFFFFFFFFFFFFFFFFFFFFFFFFFFFFFFFFFFFFFFFF AND DUP3 PUSH20 0xFFFFFFFFFFFFFFFFFFFFFFFFFFFFFFFFFFFFFFFF AND SUB PUSH2 0x1168 JUMPI PUSH0 PUSH1 0x40 MLOAD PUSH32 0xEC442F0500000000000000000000000000000000000000000000000000000000 DUP2 MSTORE PUSH1 0x4 ADD PUSH2 0x115F SWAP2 SWAP1 PUSH2 0x1ED0 JUMP JUMPDEST PUSH1 0x40 MLOAD DUP1 SWAP2 SUB SWAP1 REVERT JUMPDEST PUSH2 0x1173 DUP4 DUP4 DUP4 PUSH2 0x1445 JUMP JUMPDEST POP POP POP JUMP JUMPDEST PUSH0 PUSH20 0xFFFFFFFFFFFFFFFFFFFFFFFFFFFFFFFFFFFFFFFF AND DUP3 PUSH20 0xFFFFFFFFFFFFFFFFFFFFFFFFFFFFFFFFFFFFFFFF AND SUB PUSH2 0x11E8 JUMPI PUSH0 PUSH1 0x40 MLOAD PUSH32 0x96C6FD1E00000000000000000000000000000000000000000000000000000000 DUP2 MSTORE PUSH1 0x4 ADD PUSH2 0x11DF SWAP2 SWAP1 PUSH2 0x1ED0 JUMP JUMPDEST PUSH1 0x40 MLOAD DUP1 SWAP2 SUB SWAP1 REVERT JUMPDEST PUSH2 0x11F3 DUP3 PUSH0 DUP4 PUSH2 0x1445 JUMP JUMPDEST POP POP JUMP JUMPDEST PUSH0 PUSH20 0xFFFFFFFFFFFFFFFFFFFFFFFFFFFFFFFFFFFFFFFF AND DUP3 PUSH20 0xFFFFFFFFFFFFFFFFFFFFFFFFFFFFFFFFFFFFFFFF AND SUB PUSH2 0x1267 JUMPI PUSH0 PUSH1 0x40 MLOAD PUSH32 0xEC442F0500000000000000000000000000000000000000000000000000000000 DUP2 MSTORE PUSH1 0x4 ADD PUSH2 0x125E SWAP2 SWAP1 PUSH2 0x1ED0 JUMP JUMPDEST PUSH1 0x40 MLOAD DUP1 SWAP2 SUB SWAP1 REVERT JUMPDEST PUSH2 0x1272 PUSH0 DUP4 DUP4 PUSH2 0x1445 JUMP JUMPDEST POP POP JUMP JUMPDEST PUSH0 PUSH20 0xFFFFFFFFFFFFFFFFFFFFFFFFFFFFFFFFFFFFFFFF AND DUP5 PUSH20 0xFFFFFFFFFFFFFFFFFFFFFFFFFFFFFFFFFFFFFFFF AND SUB PUSH2 0x12E6 JUMPI PUSH0 PUSH1 0x40 MLOAD PUSH32 0xE602DF0500000000000000000000000000000000000000000000000000000000 DUP2 MSTORE PUSH1 0x4 ADD PUSH2 0x12DD SWAP2 SWAP1 PUSH2 0x1ED0 JUMP JUMPDEST PUSH1 0x40 MLOAD DUP1 SWAP2 SUB SWAP1 REVERT JUMPDEST PUSH0 PUSH20 0xFFFFFFFFFFFFFFFFFFFFFFFFFFFFFFFFFFFFFFFF AND DUP4 PUSH20 0xFFFFFFFFFFFFFFFFFFFFFFFFFFFFFFFFFFFFFFFF AND SUB PUSH2 0x1356 JUMPI PUSH0 PUSH1 0x40 MLOAD PUSH32 0x94280D6200000000000000000000000000000000000000000000000000000000 DUP2 MSTORE PUSH1 0x4 ADD PUSH2 0x134D SWAP2 SWAP1 PUSH2 0x1ED0 JUMP JUMPDEST PUSH1 0x40 MLOAD DUP1 SWAP2 SUB SWAP1 REVERT JUMPDEST DUP2 PUSH1 0x1 PUSH0 DUP7 PUSH20 0xFFFFFFFFFFFFFFFFFFFFFFFFFFFFFFFFFFFFFFFF AND PUSH20 0xFFFFFFFFFFFFFFFFFFFFFFFFFFFFFFFFFFFFFFFF AND DUP2 MSTORE PUSH1 0x20 ADD SWAP1 DUP2 MSTORE PUSH1 0x20 ADD PUSH0 KECCAK256 PUSH0 DUP6 PUSH20 0xFFFFFFFFFFFFFFFFFFFFFFFFFFFFFFFFFFFFFFFF AND PUSH20 0xFFFFFFFFFFFFFFFFFFFFFFFFFFFFFFFFFFFFFFFF AND DUP2 MSTORE PUSH1 0x20 ADD SWAP1 DUP2 MSTORE PUSH1 0x20 ADD PUSH0 KECCAK256 DUP2 SWAP1 SSTORE POP DUP1 ISZERO PUSH2 0x143F JUMPI DUP3 PUSH20 0xFFFFFFFFFFFFFFFFFFFFFFFFFFFFFFFFFFFFFFFF AND DUP5 PUSH20 0xFFFFFFFFFFFFFFFFFFFFFFFFFFFFFFFFFFFFFFFF AND PUSH32 0x8C5BE1E5EBEC7D5BD14F71427D1E84F3DD0314C0F7B2291E5B200AC8C7C3B925 DUP5 PUSH1 0x40 MLOAD PUSH2 0x1436 SWAP2 SWAP1 PUSH2 0x16F8 JUMP JUMPDEST PUSH1 0x40 MLOAD DUP1 SWAP2 SUB SWAP1 LOG3 JUMPDEST POP POP POP POP JUMP JUMPDEST PUSH0 PUSH20 0xFFFFFFFFFFFFFFFFFFFFFFFFFFFFFFFFFFFFFFFF AND DUP4 PUSH20 0xFFFFFFFFFFFFFFFFFFFFFFFFFFFFFFFFFFFFFFFF AND SUB PUSH2 0x1495 JUMPI DUP1 PUSH1 0x2 PUSH0 DUP3 DUP3 SLOAD PUSH2 0x1489 SWAP2 SWAP1 PUSH2 0x1CFE JUMP JUMPDEST SWAP3 POP POP DUP2 SWAP1 SSTORE POP PUSH2 0x1563 JUMP JUMPDEST PUSH0 PUSH0 PUSH0 DUP6 PUSH20 0xFFFFFFFFFFFFFFFFFFFFFFFFFFFFFFFFFFFFFFFF AND PUSH20 0xFFFFFFFFFFFFFFFFFFFFFFFFFFFFFFFFFFFFFFFF AND DUP2 MSTORE PUSH1 0x20 ADD SWAP1 DUP2 MSTORE PUSH1 0x20 ADD PUSH0 KECCAK256 SLOAD SWAP1 POP DUP2 DUP2 LT ISZERO PUSH2 0x151E JUMPI DUP4 DUP2 DUP4 PUSH1 0x40 MLOAD PUSH32 0xE450D38C00000000000000000000000000000000000000000000000000000000 DUP2 MSTORE PUSH1 0x4 ADD PUSH2 0x1515 SWAP4 SWAP3 SWAP2 SWAP1 PUSH2 0x207D JUMP JUMPDEST PUSH1 0x40 MLOAD DUP1 SWAP2 SUB SWAP1 REVERT JUMPDEST DUP2 DUP2 SUB PUSH0 PUSH0 DUP7 PUSH20 0xFFFFFFFFFFFFFFFFFFFFFFFFFFFFFFFFFFFFFFFF AND PUSH20 0xFFFFFFFFFFFFFFFFFFFFFFFFFFFFFFFFFFFFFFFF AND DUP2 MSTORE PUSH1 0x20 ADD SWAP1 DUP2 MSTORE PUSH1 0x20 ADD PUSH0 KECCAK256 DUP2 SWAP1 SSTORE POP POP JUMPDEST PUSH0 PUSH20 0xFFFFFFFFFFFFFFFFFFFFFFFFFFFFFFFFFFFFFFFF AND DUP3 PUSH20 0xFFFFFFFFFFFFFFFFFFFFFFFFFFFFFFFFFFFFFFFF AND SUB PUSH2 0x15AA JUMPI DUP1 PUSH1 0x2 PUSH0 DUP3 DUP3 SLOAD SUB SWAP3 POP POP DUP2 SWAP1 SSTORE POP PUSH2 0x15F4 JUMP JUMPDEST DUP1 PUSH0 PUSH0 DUP5 PUSH20 0xFFFFFFFFFFFFFFFFFFFFFFFFFFFFFFFFFFFFFFFF AND PUSH20 0xFFFFFFFFFFFFFFFFFFFFFFFFFFFFFFFFFFFFFFFF AND DUP2 MSTORE PUSH1 0x20 ADD SWAP1 DUP2 MSTORE PUSH1 0x20 ADD PUSH0 KECCAK256 PUSH0 DUP3 DUP3 SLOAD ADD SWAP3 POP POP DUP2 SWAP1 SSTORE POP JUMPDEST DUP2 PUSH20 0xFFFFFFFFFFFFFFFFFFFFFFFFFFFFFFFFFFFFFFFF AND DUP4 PUSH20 0xFFFFFFFFFFFFFFFFFFFFFFFFFFFFFFFFFFFFFFFF AND PUSH32 0xDDF252AD1BE2C89B69C2B068FC378DAA952BA7F163C4A11628F55A4DF523B3EF DUP4 PUSH1 0x40 MLOAD PUSH2 0x1651 SWAP2 SWAP1 PUSH2 0x16F8 JUMP JUMPDEST PUSH1 0x40 MLOAD DUP1 SWAP2 SUB SWAP1 LOG3 POP POP POP JUMP JUMPDEST PUSH0 PUSH0 REVERT JUMPDEST PUSH0 PUSH0 REVERT JUMPDEST PUSH0 DUP2 SWAP1 POP SWAP2 SWAP1 POP JUMP JUMPDEST PUSH2 0x1678 DUP2 PUSH2 0x1666 JUMP JUMPDEST DUP2 EQ PUSH2 0x1682 JUMPI PUSH0 PUSH0 REVERT JUMPDEST POP JUMP JUMPDEST PUSH0 DUP2 CALLDATALOAD SWAP1 POP PUSH2 0x1693 DUP2 PUSH2 0x166F JUMP JUMPDEST SWAP3 SWAP2 POP POP JUMP JUMPDEST PUSH0 PUSH0 PUSH0 PUSH1 0x60 DUP5 DUP7 SUB SLT ISZERO PUSH2 0x16B0 JUMPI PUSH2 0x16AF PUSH2 0x165E JUMP JUMPDEST JUMPDEST PUSH0 PUSH2 0x16BD DUP7 DUP3 DUP8 ADD PUSH2 0x1685 JUMP JUMPDEST SWAP4 POP POP PUSH1 0x20 PUSH2 0x16CE DUP7 DUP3 DUP8 ADD PUSH2 0x1685 JUMP JUMPDEST SWAP3 POP POP PUSH1 0x40 PUSH2 0x16DF DUP7 DUP3 DUP8 ADD PUSH2 0x1685 JUMP JUMPDEST SWAP2 POP POP SWAP3 POP SWAP3 POP SWAP3 JUMP JUMPDEST PUSH2 0x16F2 DUP2 PUSH2 0x1666 JUMP JUMPDEST DUP3 MSTORE POP POP JUMP JUMPDEST PUSH0 PUSH1 0x20 DUP3 ADD SWAP1 POP PUSH2 0x170B PUSH0 DUP4 ADD DUP5 PUSH2 0x16E9 JUMP JUMPDEST SWAP3 SWAP2 POP POP JUMP JUMPDEST PUSH0 DUP2 MLOAD SWAP1 POP SWAP2 SWAP1 POP JUMP JUMPDEST PUSH0 DUP3 DUP3 MSTORE PUSH1 0x20 DUP3 ADD SWAP1 POP SWAP3 SWAP2 POP POP JUMP JUMPDEST DUP3 DUP2 DUP4 MCOPY PUSH0 DUP4 DUP4 ADD MSTORE POP POP POP JUMP JUMPDEST PUSH0 PUSH1 0x1F NOT PUSH1 0x1F DUP4 ADD AND SWAP1 POP SWAP2 SWAP1 POP JUMP JUMPDEST PUSH0 PUSH2 0x1753 DUP3 PUSH2 0x1711 JUMP JUMPDEST PUSH2 0x175D DUP2 DUP6 PUSH2 0x171B JUMP JUMPDEST SWAP4 POP PUSH2 0x176D DUP2 DUP6 PUSH1 0x20 DUP7 ADD PUSH2 0x172B JUMP JUMPDEST PUSH2 0x1776 DUP2 PUSH2 0x1739 JUMP JUMPDEST DUP5 ADD SWAP2 POP POP SWAP3 SWAP2 POP POP JUMP JUMPDEST PUSH0 PUSH1 0x20 DUP3 ADD SWAP1 POP DUP2 DUP2 SUB PUSH0 DUP4 ADD MSTORE PUSH2 0x1799 DUP2 DUP5 PUSH2 0x1749 JUMP JUMPDEST SWAP1 POP SWAP3 SWAP2 POP POP JUMP JUMPDEST PUSH0 PUSH20 0xFFFFFFFFFFFFFFFFFFFFFFFFFFFFFFFFFFFFFFFF DUP3 AND SWAP1 POP SWAP2 SWAP1 POP JUMP JUMPDEST PUSH0 PUSH2 0x17CA DUP3 PUSH2 0x17A1 JUMP JUMPDEST SWAP1 POP SWAP2 SWAP1 POP JUMP JUMPDEST PUSH2 0x17DA DUP2 PUSH2 0x17C0 JUMP JUMPDEST DUP2 EQ PUSH2 0x17E4 JUMPI PUSH0 PUSH0 REVERT JUMPDEST POP JUMP JUMPDEST PUSH0 DUP2 CALLDATALOAD SWAP1 POP PUSH2 0x17F5 DUP2 PUSH2 0x17D1 JUMP JUMPDEST SWAP3 SWAP2 POP POP JUMP JUMPDEST PUSH0 PUSH0 PUSH1 0x40 DUP4 DUP6 SUB SLT ISZERO PUSH2 0x1811 JUMPI PUSH2 0x1810 PUSH2 0x165E JUMP JUMPDEST JUMPDEST PUSH0 PUSH2 0x181E DUP6 DUP3 DUP7 ADD PUSH2 0x17E7 JUMP JUMPDEST SWAP3 POP POP PUSH1 0x20 PUSH2 0x182F DUP6 DUP3 DUP7 ADD PUSH2 0x1685 JUMP JUMPDEST SWAP2 POP POP SWAP3 POP SWAP3 SWAP1 POP JUMP JUMPDEST PUSH0 DUP2 ISZERO ISZERO SWAP1 POP SWAP2 SWAP1 POP JUMP JUMPDEST PUSH2 0x184D DUP2 PUSH2 0x1839 JUMP JUMPDEST DUP3 MSTORE POP POP JUMP JUMPDEST PUSH0 PUSH1 0x20 DUP3 ADD SWAP1 POP PUSH2 0x1866 PUSH0 DUP4 ADD DUP5 PUSH2 0x1844 JUMP JUMPDEST SWAP3 SWAP2 POP POP JUMP JUMPDEST PUSH0 PUSH0 PUSH0 PUSH1 0x60 DUP5 DUP7 SUB SLT ISZERO PUSH2 0x1883 JUMPI PUSH2 0x1882 PUSH2 0x165E JUMP JUMPDEST JUMPDEST PUSH0 PUSH2 0x1890 DUP7 DUP3 DUP8 ADD PUSH2 0x17E7 JUMP JUMPDEST SWAP4 POP POP PUSH1 0x20 PUSH2 0x18A1 DUP7 DUP3 DUP8 ADD PUSH2 0x17E7 JUMP JUMPDEST SWAP3 POP POP PUSH1 0x40 PUSH2 0x18B2 DUP7 DUP3 DUP8 ADD PUSH2 0x1685 JUMP JUMPDEST SWAP2 POP POP SWAP3 POP SWAP3 POP SWAP3 JUMP JUMPDEST PUSH0 PUSH1 0xFF DUP3 AND SWAP1 POP SWAP2 SWAP1 POP JUMP JUMPDEST PUSH2 0x18D1 DUP2 PUSH2 0x18BC JUMP JUMPDEST DUP3 MSTORE POP POP JUMP JUMPDEST PUSH0 PUSH1 0x20 DUP3 ADD SWAP1 POP PUSH2 0x18EA PUSH0 DUP4 ADD DUP5 PUSH2 0x18C8 JUMP JUMPDEST SWAP3 SWAP2 POP POP JUMP JUMPDEST PUSH0 PUSH0 REVERT JUMPDEST PUSH0 PUSH0 REVERT JUMPDEST PUSH0 PUSH0 REVERT JUMPDEST PUSH0 PUSH0 DUP4 PUSH1 0x1F DUP5 ADD SLT PUSH2 0x1911 JUMPI PUSH2 0x1910 PUSH2 0x18F0 JUMP JUMPDEST JUMPDEST DUP3 CALLDATALOAD SWAP1 POP PUSH8 0xFFFFFFFFFFFFFFFF DUP2 GT ISZERO PUSH2 0x192E JUMPI PUSH2 0x192D PUSH2 0x18F4 JUMP JUMPDEST JUMPDEST PUSH1 0x20 DUP4 ADD SWAP2 POP DUP4 PUSH1 0x20 DUP3 MUL DUP4 ADD GT ISZERO PUSH2 0x194A JUMPI PUSH2 0x1949 PUSH2 0x18F8 JUMP JUMPDEST JUMPDEST SWAP3 POP SWAP3 SWAP1 POP JUMP JUMPDEST PUSH0 PUSH0 PUSH0 PUSH0 PUSH0 PUSH0 PUSH1 0xA0 DUP8 DUP10 SUB SLT ISZERO PUSH2 0x196B JUMPI PUSH2 0x196A PUSH2 0x165E JUMP JUMPDEST JUMPDEST PUSH0 PUSH2 0x1978 DUP10 DUP3 DUP11 ADD PUSH2 0x1685 JUMP JUMPDEST SWAP7 POP POP PUSH1 0x20 PUSH2 0x1989 DUP10 DUP3 DUP11 ADD PUSH2 0x1685 JUMP JUMPDEST SWAP6 POP POP PUSH1 0x40 DUP8 ADD CALLDATALOAD PUSH8 0xFFFFFFFFFFFFFFFF DUP2 GT ISZERO PUSH2 0x19AA JUMPI PUSH2 0x19A9 PUSH2 0x1662 JUMP JUMPDEST JUMPDEST PUSH2 0x19B6 DUP10 DUP3 DUP11 ADD PUSH2 0x18FC JUMP JUMPDEST SWAP5 POP SWAP5 POP POP PUSH1 0x60 PUSH2 0x19C9 DUP10 DUP3 DUP11 ADD PUSH2 0x17E7 JUMP JUMPDEST SWAP3 POP POP PUSH1 0x80 PUSH2 0x19DA DUP10 DUP3 DUP11 ADD PUSH2 0x1685 JUMP JUMPDEST SWAP2 POP POP SWAP3 SWAP6 POP SWAP3 SWAP6 POP SWAP3 SWAP6 JUMP JUMPDEST PUSH0 DUP2 MLOAD SWAP1 POP SWAP2 SWAP1 POP JUMP JUMPDEST PUSH0 DUP3 DUP3 MSTORE PUSH1 0x20 DUP3 ADD SWAP1 POP SWAP3 SWAP2 POP POP JUMP JUMPDEST PUSH0 DUP2 SWAP1 POP PUSH1 0x20 DUP3 ADD SWAP1 POP SWAP2 SWAP1 POP JUMP JUMPDEST PUSH2 0x1A19 DUP2 PUSH2 0x1666 JUMP JUMPDEST DUP3 MSTORE POP POP JUMP JUMPDEST PUSH0 PUSH2 0x1A2A DUP4 DUP4 PUSH2 0x1A10 JUMP JUMPDEST PUSH1 0x20 DUP4 ADD SWAP1 POP SWAP3 SWAP2 POP POP JUMP JUMPDEST PUSH0 PUSH1 0x20 DUP3 ADD SWAP1 POP SWAP2 SWAP1 POP JUMP JUMPDEST PUSH0 PUSH2 0x1A4C DUP3 PUSH2 0x19E7 JUMP JUMPDEST PUSH2 0x1A56 DUP2 DUP6 PUSH2 0x19F1 JUMP JUMPDEST SWAP4 POP PUSH2 0x1A61 DUP4 PUSH2 0x1A01 JUMP JUMPDEST DUP1 PUSH0 JUMPDEST DUP4 DUP2 LT ISZERO PUSH2 0x1A91 JUMPI DUP2 MLOAD PUSH2 0x1A78 DUP9 DUP3 PUSH2 0x1A1F JUMP JUMPDEST SWAP8 POP PUSH2 0x1A83 DUP4 PUSH2 0x1A36 JUMP JUMPDEST SWAP3 POP POP PUSH1 0x1 DUP2 ADD SWAP1 POP PUSH2 0x1A64 JUMP JUMPDEST POP DUP6 SWAP4 POP POP POP POP SWAP3 SWAP2 POP POP JUMP JUMPDEST PUSH0 PUSH1 0x20 DUP3 ADD SWAP1 POP DUP2 DUP2 SUB PUSH0 DUP4 ADD MSTORE PUSH2 0x1AB6 DUP2 DUP5 PUSH2 0x1A42 JUMP JUMPDEST SWAP1 POP SWAP3 SWAP2 POP POP JUMP JUMPDEST PUSH0 PUSH1 0x20 DUP3 DUP5 SUB SLT ISZERO PUSH2 0x1AD3 JUMPI PUSH2 0x1AD2 PUSH2 0x165E JUMP JUMPDEST JUMPDEST PUSH0 PUSH2 0x1AE0 DUP5 DUP3 DUP6 ADD PUSH2 0x17E7 JUMP JUMPDEST SWAP2 POP POP SWAP3 SWAP2 POP POP JUMP JUMPDEST PUSH0 PUSH0 PUSH1 0x40 DUP4 DUP6 SUB SLT ISZERO PUSH2 0x1AFF JUMPI PUSH2 0x1AFE PUSH2 0x165E JUMP JUMPDEST JUMPDEST PUSH0 PUSH2 0x1B0C DUP6 DUP3 DUP7 ADD PUSH2 0x17E7 JUMP JUMPDEST SWAP3 POP POP PUSH1 0x20 PUSH2 0x1B1D DUP6 DUP3 DUP7 ADD PUSH2 0x17E7 JUMP JUMPDEST SWAP2 POP POP SWAP3 POP SWAP3 SWAP1 POP JUMP JUMPDEST PUSH0 PUSH0 PUSH0 PUSH0 PUSH0 PUSH0 PUSH0 PUSH1 0xE0 DUP9 DUP11 SUB SLT ISZERO PUSH2 0x1B42 JUMPI PUSH2 0x1B41 PUSH2 0x165E JUMP JUMPDEST JUMPDEST PUSH0 PUSH2 0x1B4F DUP11 DUP3 DUP12 ADD PUSH2 0x17E7 JUMP JUMPDEST SWAP8 POP POP PUSH1 0x20 PUSH2 0x1B60 DUP11 DUP3 DUP12 ADD PUSH2 0x17E7 JUMP JUMPDEST SWAP7 POP POP PUSH1 0x40 PUSH2 0x1B71 DUP11 DUP3 DUP12 ADD PUSH2 0x1685 JUMP JUMPDEST SWAP6 POP POP PUSH1 0x60 PUSH2 0x1B82 DUP11 DUP3 DUP12 ADD PUSH2 0x1685 JUMP JUMPDEST SWAP5 POP POP PUSH1 0x80 PUSH2 0x1B93 DUP11 DUP3 DUP12 ADD PUSH2 0x1685 JUMP JUMPDEST SWAP4 POP POP PUSH1 0xA0 PUSH2 0x1BA4 DUP11 DUP3 DUP12 ADD PUSH2 0x17E7 JUMP JUMPDEST SWAP3 POP POP PUSH1 0xC0 PUSH2 0x1BB5 DUP11 DUP3 DUP12 ADD PUSH2 0x1685 JUMP JUMPDEST SWAP2 POP POP SWAP3 SWAP6 SWAP9 SWAP2 SWAP5 SWAP8 POP SWAP3 SWAP6 POP JUMP JUMPDEST PUSH0 PUSH1 0x40 DUP3 ADD SWAP1 POP PUSH2 0x1BD7 PUSH0 DUP4 ADD DUP6 PUSH2 0x16E9 JUMP JUMPDEST PUSH2 0x1BE4 PUSH1 0x20 DUP4 ADD DUP5 PUSH2 0x16E9 JUMP JUMPDEST SWAP4 SWAP3 POP POP POP JUMP JUMPDEST PUSH0 PUSH0 PUSH0 PUSH0 PUSH0 PUSH0 PUSH0 PUSH0 PUSH2 0x100 DUP10 DUP12 SUB SLT ISZERO PUSH2 0x1C08 JUMPI PUSH2 0x1C07 PUSH2 0x165E JUMP JUMPDEST JUMPDEST PUSH0 PUSH2 0x1C15 DUP12 DUP3 DUP13 ADD PUSH2 0x17E7 JUMP JUMPDEST SWAP9 POP POP PUSH1 0x20 PUSH2 0x1C26 DUP12 DUP3 DUP13 ADD PUSH2 0x17E7 JUMP JUMPDEST SWAP8 POP POP PUSH1 0x40 PUSH2 0x1C37 DUP12 DUP3 DUP13 ADD PUSH2 0x1685 JUMP JUMPDEST SWAP7 POP POP PUSH1 0x60 PUSH2 0x1C48 DUP12 DUP3 DUP13 ADD PUSH2 0x1685 JUMP JUMPDEST SWAP6 POP POP PUSH1 0x80 PUSH2 0x1C59 DUP12 DUP3 DUP13 ADD PUSH2 0x1685 JUMP JUMPDEST SWAP5 POP POP PUSH1 0xA0 PUSH2 0x1C6A DUP12 DUP3 DUP13 ADD PUSH2 0x1685 JUMP JUMPDEST SWAP4 POP POP PUSH1 0xC0 PUSH2 0x1C7B DUP12 DUP3 DUP13 ADD PUSH2 0x17E7 JUMP JUMPDEST SWAP3 POP POP PUSH1 0xE0 PUSH2 0x1C8C DUP12 DUP3 DUP13 ADD PUSH2 0x1685 JUMP JUMPDEST SWAP2 POP POP SWAP3 SWAP6 SWAP9 POP SWAP3 SWAP6 SWAP9 SWAP1 SWAP4 SWAP7 POP JUMP JUMPDEST PUSH0 PUSH1 0x60 DUP3 ADD SWAP1 POP PUSH2 0x1CAF PUSH0 DUP4 ADD DUP7 PUSH2 0x16E9 JUMP JUMPDEST PUSH2 0x1CBC PUSH1 0x20 DUP4 ADD DUP6 PUSH2 0x16E9 JUMP JUMPDEST PUSH2 0x1CC9 PUSH1 0x40 DUP4 ADD DUP5 PUSH2 0x16E9 JUMP JUMPDEST SWAP5 SWAP4 POP POP POP POP JUMP JUMPDEST PUSH32 0x4E487B7100000000000000000000000000000000000000000000000000000000 PUSH0 MSTORE PUSH1 0x11 PUSH1 0x4 MSTORE PUSH1 0x24 PUSH0 REVERT JUMPDEST PUSH0 PUSH2 0x1D08 DUP3 PUSH2 0x1666 JUMP JUMPDEST SWAP2 POP PUSH2 0x1D13 DUP4 PUSH2 0x1666 JUMP JUMPDEST SWAP3 POP DUP3 DUP3 ADD SWAP1 POP DUP1 DUP3 GT ISZERO PUSH2 0x1D2B JUMPI PUSH2 0x1D2A PUSH2 0x1CD1 JUMP JUMPDEST JUMPDEST SWAP3 SWAP2 POP POP JUMP JUMPDEST PUSH0 PUSH2 0x1D3B DUP3 PUSH2 0x1666 JUMP JUMPDEST SWAP2 POP PUSH2 0x1D46 DUP4 PUSH2 0x1666 JUMP JUMPDEST SWAP3 POP DUP3 DUP3 MUL PUSH2 0x1D54 DUP2 PUSH2 0x1666 JUMP JUMPDEST SWAP2 POP DUP3 DUP3 DIV DUP5 EQ DUP4 ISZERO OR PUSH2 0x1D6B JUMPI PUSH2 0x1D6A PUSH2 0x1CD1 JUMP JUMPDEST JUMPDEST POP SWAP3 SWAP2 POP POP JUMP JUMPDEST PUSH32 0x4E487B7100000000000000000000000000000000000000000000000000000000 PUSH0 MSTORE PUSH1 0x12 PUSH1 0x4 MSTORE PUSH1 0x24 PUSH0 REVERT JUMPDEST PUSH0 PUSH2 0x1DA9 DUP3 PUSH2 0x1666 JUMP JUMPDEST SWAP2 POP PUSH2 0x1DB4 DUP4 PUSH2 0x1666 JUMP JUMPDEST SWAP3 POP DUP3 PUSH2 0x1DC4 JUMPI PUSH2 0x1DC3 PUSH2 0x1D72 JUMP JUMPDEST JUMPDEST DUP3 DUP3 DIV SWAP1 POP SWAP3 SWAP2 POP POP JUMP JUMPDEST PUSH32 0x4E487B7100000000000000000000000000000000000000000000000000000000 PUSH0 MSTORE PUSH1 0x22 PUSH1 0x4 MSTORE PUSH1 0x24 PUSH0 REVERT JUMPDEST PUSH0 PUSH1 0x2 DUP3 DIV SWAP1 POP PUSH1 0x1 DUP3 AND DUP1 PUSH2 0x1E13 JUMPI PUSH1 0x7F DUP3 AND SWAP2 POP JUMPDEST PUSH1 0x20 DUP3 LT DUP2 SUB PUSH2 0x1E26 JUMPI PUSH2 0x1E25 PUSH2 0x1DCF JUMP JUMPDEST JUMPDEST POP SWAP2 SWAP1 POP JUMP JUMPDEST PUSH32 0x646561646C696E65526561636865640000000000000000000000000000000000 PUSH0 DUP3 ADD MSTORE POP JUMP JUMPDEST PUSH0 PUSH2 0x1E60 PUSH1 0xF DUP4 PUSH2 0x171B JUMP JUMPDEST SWAP2 POP PUSH2 0x1E6B DUP3 PUSH2 0x1E2C JUMP JUMPDEST PUSH1 0x20 DUP3 ADD SWAP1 POP SWAP2 SWAP1 POP JUMP JUMPDEST PUSH0 PUSH1 0x20 DUP3 ADD SWAP1 POP DUP2 DUP2 SUB PUSH0 DUP4 ADD MSTORE PUSH2 0x1E8D DUP2 PUSH2 0x1E54 JUMP JUMPDEST SWAP1 POP SWAP2 SWAP1 POP JUMP JUMPDEST PUSH32 0x4E487B7100000000000000000000000000000000000000000000000000000000 PUSH0 MSTORE PUSH1 0x32 PUSH1 0x4 MSTORE PUSH1 0x24 PUSH0 REVERT JUMPDEST PUSH2 0x1ECA DUP2 PUSH2 0x17C0 JUMP JUMPDEST DUP3 MSTORE POP POP JUMP JUMPDEST PUSH0 PUSH1 0x20 DUP3 ADD SWAP1 POP PUSH2 0x1EE3 PUSH0 DUP4 ADD DUP5 PUSH2 0x1EC1 JUMP JUMPDEST SWAP3 SWAP2 POP POP JUMP JUMPDEST PUSH0 DUP2 MLOAD SWAP1 POP PUSH2 0x1EF7 DUP2 PUSH2 0x166F JUMP JUMPDEST SWAP3 SWAP2 POP POP JUMP JUMPDEST PUSH0 PUSH1 0x20 DUP3 DUP5 SUB SLT ISZERO PUSH2 0x1F12 JUMPI PUSH2 0x1F11 PUSH2 0x165E JUMP JUMPDEST JUMPDEST PUSH0 PUSH2 0x1F1F DUP5 DUP3 DUP6 ADD PUSH2 0x1EE9 JUMP JUMPDEST SWAP2 POP POP SWAP3 SWAP2 POP POP JUMP JUMPDEST PUSH0 DUP2 SWAP1 POP SWAP2 SWAP1 POP JUMP JUMPDEST PUSH0 DUP2 SWAP1 POP SWAP2 SWAP1 POP JUMP JUMPDEST PUSH0 PUSH2 0x1F54 PUSH2 0x1F4F PUSH2 0x1F4A DUP5 PUSH2 0x1F28 JUMP JUMPDEST PUSH2 0x1F31 JUMP JUMPDEST PUSH2 0x1666 JUMP JUMPDEST SWAP1 POP SWAP2 SWAP1 POP JUMP JUMPDEST PUSH2 0x1F64 DUP2 PUSH2 0x1F3A JUMP JUMPDEST DUP3 MSTORE POP POP JUMP JUMPDEST PUSH0 PUSH1 0x60 DUP3 ADD SWAP1 POP PUSH2 0x1F7D PUSH0 DUP4 ADD DUP7 PUSH2 0x1EC1 JUMP JUMPDEST PUSH2 0x1F8A PUSH1 0x20 DUP4 ADD DUP6 PUSH2 0x1EC1 JUMP JUMPDEST PUSH2 0x1F97 PUSH1 0x40 DUP4 ADD DUP5 PUSH2 0x1F5B JUMP JUMPDEST SWAP5 SWAP4 POP POP POP POP JUMP JUMPDEST PUSH2 0x1FA8 DUP2 PUSH2 0x1839 JUMP JUMPDEST DUP2 EQ PUSH2 0x1FB2 JUMPI PUSH0 PUSH0 REVERT JUMPDEST POP JUMP JUMPDEST PUSH0 DUP2 MLOAD SWAP1 POP PUSH2 0x1FC3 DUP2 PUSH2 0x1F9F JUMP JUMPDEST SWAP3 SWAP2 POP POP JUMP JUMPDEST PUSH0 PUSH1 0x20 DUP3 DUP5 SUB SLT ISZERO PUSH2 0x1FDE JUMPI PUSH2 0x1FDD PUSH2 0x165E JUMP JUMPDEST JUMPDEST PUSH0 PUSH2 0x1FEB DUP5 DUP3 DUP6 ADD PUSH2 0x1FB5 JUMP JUMPDEST SWAP2 POP POP SWAP3 SWAP2 POP POP JUMP JUMPDEST PUSH0 PUSH1 0x40 DUP3 ADD SWAP1 POP PUSH2 0x2007 PUSH0 DUP4 ADD DUP6 PUSH2 0x1EC1 JUMP JUMPDEST PUSH2 0x2014 PUSH1 0x20 DUP4 ADD DUP5 PUSH2 0x16E9 JUMP JUMPDEST SWAP4 SWAP3 POP POP POP JUMP JUMPDEST PUSH32 0x4E487B7100000000000000000000000000000000000000000000000000000000 PUSH0 MSTORE PUSH1 0x41 PUSH1 0x4 MSTORE PUSH1 0x24 PUSH0 REVERT JUMPDEST PUSH0 PUSH1 0x60 DUP3 ADD SWAP1 POP PUSH2 0x205B PUSH0 DUP4 ADD DUP7 PUSH2 0x1EC1 JUMP JUMPDEST PUSH2 0x2068 PUSH1 0x20 DUP4 ADD DUP6 PUSH2 0x1EC1 JUMP JUMPDEST PUSH2 0x2075 PUSH1 0x40 DUP4 ADD DUP5 PUSH2 0x16E9 JUMP JUMPDEST SWAP5 SWAP4 POP POP POP POP JUMP JUMPDEST PUSH0 PUSH1 0x60 DUP3 ADD SWAP1 POP PUSH2 0x2090 PUSH0 DUP4 ADD DUP7 PUSH2 0x1EC1 JUMP JUMPDEST PUSH2 0x209D PUSH1 0x20 DUP4 ADD DUP6 PUSH2 0x16E9 JUMP JUMPDEST PUSH2 0x20AA PUSH1 0x40 DUP4 ADD DUP5 PUSH2 0x16E9 JUMP JUMPDEST SWAP5 SWAP4 POP POP POP POP JUMP INVALID LOG2 PUSH5 0x6970667358 0x22 SLT KECCAK256 DUP15 RETURN PUSH0 ISZERO 0xAF REVERT 0xDC PUSH11 0xC1CF19D55897DC830FA61F 0x28 0xC8 EXTCODECOPY 0xD7 0xB7 0xC9 JUMPF 0x3BE6 0xAE BLOCKHASH BYTE CALLCODE PUSH5 0x736F6C6343 STOP ADDMOD 0x1E STOP CALLER "
				},
				"gasEstimates": {
					"creation": {
						"codeDepositCost": "1684800",
						"executionCost": "infinite",
						"totalCost": "infinite"
					},
					"external": {
						"addLiquidity(address,address,uint256,uint256,uint256,uint256,address,uint256)": "infinite",
						"allowance(address,address)": "infinite",
						"approve(address,uint256)": "infinite",
						"balanceOf(address)": "2851",
						"decimals()": "405",
						"getAmountOut(uint256,uint256,uint256)": "infinite",
						"getPrice(address,address)": "infinite",
						"name()": "infinite",
						"removeLiquidity(address,address,uint256,uint256,uint256,address,uint256)": "infinite",
						"swapExactTokensForTokens(uint256,uint256,address[],address,uint256)": "infinite",
						"symbol()": "infinite",
						"totalSupply()": "2455",
						"transfer(address,uint256)": "infinite",
						"transferFrom(address,address,uint256)": "infinite"
					}
				},
				"methodIdentifiers": {
					"addLiquidity(address,address,uint256,uint256,uint256,uint256,address,uint256)": "e8e33700",
					"allowance(address,address)": "dd62ed3e",
					"approve(address,uint256)": "095ea7b3",
					"balanceOf(address)": "70a08231",
					"decimals()": "313ce567",
					"getAmountOut(uint256,uint256,uint256)": "054d50d4",
					"getPrice(address,address)": "ac41865a",
					"name()": "06fdde03",
					"removeLiquidity(address,address,uint256,uint256,uint256,address,uint256)": "baa2abde",
					"swapExactTokensForTokens(uint256,uint256,address[],address,uint256)": "38ed1739",
					"symbol()": "95d89b41",
					"totalSupply()": "18160ddd",
					"transfer(address,uint256)": "a9059cbb",
					"transferFrom(address,address,uint256)": "23b872dd"
				}
			},
			"storageLayout": {
				"storage": [
					{
						"astId": 159,
						"contract": "SimpleSwap.sol:Simpleswap",
						"label": "_balances",
						"offset": 0,
						"slot": "0",
						"type": "t_mapping(t_address,t_uint256)"
					},
					{
						"astId": 165,
						"contract": "SimpleSwap.sol:Simpleswap",
						"label": "_allowances",
						"offset": 0,
						"slot": "1",
						"type": "t_mapping(t_address,t_mapping(t_address,t_uint256))"
					},
					{
						"astId": 167,
						"contract": "SimpleSwap.sol:Simpleswap",
						"label": "_totalSupply",
						"offset": 0,
						"slot": "2",
						"type": "t_uint256"
					},
					{
						"astId": 169,
						"contract": "SimpleSwap.sol:Simpleswap",
						"label": "_name",
						"offset": 0,
						"slot": "3",
						"type": "t_string_storage"
					},
					{
						"astId": 171,
						"contract": "SimpleSwap.sol:Simpleswap",
						"label": "_symbol",
						"offset": 0,
						"slot": "4",
						"type": "t_string_storage"
					}
				],
				"types": {
					"t_address": {
						"encoding": "inplace",
						"label": "address",
						"numberOfBytes": "20"
					},
					"t_mapping(t_address,t_mapping(t_address,t_uint256))": {
						"encoding": "mapping",
						"key": "t_address",
						"label": "mapping(address => mapping(address => uint256))",
						"numberOfBytes": "32",
						"value": "t_mapping(t_address,t_uint256)"
					},
					"t_mapping(t_address,t_uint256)": {
						"encoding": "mapping",
						"key": "t_address",
						"label": "mapping(address => uint256)",
						"numberOfBytes": "32",
						"value": "t_uint256"
					},
					"t_string_storage": {
						"encoding": "bytes",
						"label": "string",
						"numberOfBytes": "32"
					},
					"t_uint256": {
						"encoding": "inplace",
						"label": "uint256",
						"numberOfBytes": "32"
					}
				}
			},
			"userdoc": {
				"kind": "user",
				"methods": {
					"addLiquidity(address,address,uint256,uint256,uint256,uint256,address,uint256)": {
						"notice": "Adds liquidity to the pool"
					},
					"getPrice(address,address)": {
						"notice": "Returns the current price of tokenA in terms of tokenB."
					},
					"removeLiquidity(address,address,uint256,uint256,uint256,address,uint256)": {
						"notice": "Removes liquidity and returns tokens to the user"
					},
					"swapExactTokensForTokens(uint256,uint256,address[],address,uint256)": {
						"notice": "Swaps exact amount of input token for as much as possible of output token"
					}
				},
				"version": 1
			}
		}
	}
}